:020000040800F2
:100000000000032081050008051E0008071E0008E7
:10001000091E00080B1E00080D1E0008000000004D
:10002000000000000000000000000000E16900087E
:100030000F1E000800000000716A0008E962000855
:10004000D1050008D1050008D1050008D105000838
:10005000D1050008D1050008351E0008D1050008AB
:10006000D1050008D1050008D1050008D105000818
:10007000D1050008D1050008D1050008D105000808
:10008000D1050008D1050008D1050008D1050008F8
:10009000D1050008D1050008D1050008D1050008E8
:1000A000D1050008D1050008D1050008D1050008D8
:1000B000D1050008D1050008D1050008D1050008C8
:1000C000D1050008D1050008D1050008D1050008B8
:1000D000D1050008D1050008D1050008D1050008A8
:1000E000D1050008D1050008D1050008D105000898
:1000F000D1050008D1050008D1050008D105000888
:10010000D1050008D1050008D1050008D105000877
:10011000D1050008D1050008111E0008D10500080E
:10012000D1050008D1050008D1050008D105000857
:10013000D1050008D1050008D1050008D105000847
:10014000D1050008D1050008D1050008D105000837
:10015000D1050008D1050008D1050008D105000827
:10016000D1050008D1050008D1050008D105000817
:10017000D1050008D1050008D105000800000000E5
:10018000D1050008D1050008D1050008D1050008F7
:10019000D1050008D1050008D1050008D1050008E7
:0C01A0001D1E0008D1050008291E0008E3
:1001B00010B5054C237833B9044B13B10448AFF3A1
:1001C00000800123237010BDF0000020000000001B
:1001D0004030010808B5034B1BB103490348AFF396
:1001E000008008BD00000000F4000020403001083D
:1001F00001F0FF01102A2BDB10F0070F08D010F8D8
:10020000013B013A8B422DD010F0070F42B3F6D1DB
:10021000F0B441EA012141EA014122F007047FF0F4
:1002200000070023F0E80256083C85EA010586EA4B
:10023000010685FA47F5A3FA87F586FA47F6A5FA87
:1002400087F68EB9EED1F0BC01F0FF0102F0070293
:1002500032B110F8013B013A83EA010313B1F8D13E
:100260000020704701387047002D06BF354603381F
:10027000073815F0010F07D1013015F4807F02BF58
:10028000013015F4C03F0130F0BC0138704700BFA9
:1002900053B94AB9002908BF00281CBF4FF0FF31ED
:1002A0004FF0FF3000F06AB9ADF1080C6DE904CEF3
:1002B00000F006F8DDF804E0DDE9022304B0704741
:1002C0002DE9F047089D0C46002B4ED194468C45F5
:1002D0008646B2FA82F262D94AB1C2F12003914055
:1002E00020FA03F30CFA02FC194300FA02FE4FEA6B
:1002F0001C471FFA8CF6B1FBF7F44FEA1E4307FBCD
:10030000141143EA014304FB06F199420AD91CEB9C
:10031000030304F1FF3080F01281994240F20F8113
:10032000023C6344591A1FFA8EF3B1FBF7F007FB46
:10033000101143EA014300FB06F69E420AD91CEB6A
:10034000030300F1FF3180F0FC809E4240F2F9800F
:10035000634402389B1B40EA044000211DB1D34096
:100360000022C5E90032BDE8F0878B4205D90DB106
:10037000C5E9000100210846F5E7B3FA83F1002939
:1003800046D1A34202D39042C0F0F080861A64EBBB
:1003900003030120002DE6D0C5E90063E3E7002A4E
:1003A00040F09080A1EB0C044FEA1C481FFA8CF738
:1003B0000121B4FBF8F64FEA1E4308FB164443EA5A
:1003C000044307FB06F0984208D91CEB030306F12F
:1003D000FF3402D2984200F2CD8026461C1A1FFA42
:1003E0008EF3B4FBF8F008FB104443EA044300FB2F
:1003F00007F79F4208D91CEB030300F1FF3402D238
:100400009F4200F2B0802046DB1B40EA0640A5E791
:10041000C1F120068B4022FA06F71F4320FA06FCA2
:1004200004FA01F343EA0C03F44000FA01F8380C33
:100430004FEA1349B4FBF0FE1FFA87FC00FB1E4491
:1004400049EA04440EFB0CF9A14502FA01F20AD96B
:100450003C190EF1FF3A80F08480A14540F2818082
:10046000AEF1020E3C44A4EB09041FFA83F9B4FB7D
:10047000F0F300FB134449EA044403FB0CFCA445DD
:1004800007D93C1903F1FF3067D2A44565D9023B77
:100490003C4443EA0E40A0FB0293A4EB0C049C42B4
:1004A000CE469C4651D34ED055B1B8EB0E0364EB0B
:1004B0000C0404FA06F6CB401E43CC40C5E90064A8
:1004C000002150E7C2F1200320FA03F10CFA02FCEC
:1004D00024FA03F394400C434FEA1C4800FA02FE4E
:1004E0001FFA8CF7B3FBF8F008FB1031230C43EA3A
:1004F000014300FB07F1994208D91CEB030300F10B
:10050000FF362CD299422AD9023863445B1AA4B22E
:10051000B3FBF8F108FB113344EA034401FB07F392
:10052000A34208D91CEB040401F1FF3613D2A34205
:1005300011D902396444E41A41EA004139E704461A
:10054000F0E6084606E7C845AED2B9EB020E63EB0B
:10055000070C0138A8E73146EDE7034699E7304636
:10056000D4E7D6467FE7634402384DE70646234684
:1005700008460FE7023E634430E700BF704700BF04
:10058000DFF834D0002103E00C4B5B5843500431BA
:100590000B480C4B42189A42F6D30B4A02E0002358
:1005A00042F8043B094B9A42F9D303F073FC11F073
:1005B000D7FF00F003FF70470000032038720E08D9
:1005C00000000020F0000020F0000020AC290120F5
:1005D000FEE700F0BDBC00F02BBD704710B5042154
:1005E000044611F0DFFC204610BD000038B50C4B6E
:1005F0000C4C18800C4B822019806368984740F699
:10060000110398420AD1094D23682C608220984733
:100610002B688220DB689847002038BD0120FCE76A
:10062000160100204C0000201401002018010020B9
:100630004FF4A071F020FFF7D9BF0000F7B5334D9C
:100640002B6804461B6982209847208000284AD0E6
:100650002B680DF106025B6901A982209847BDF85D
:10066000063040F6746293423FD9ADF80620BDF8DB
:100670000630D21A92B20A2A3DD90B23B2FBF3F20A
:10068000234B1B889A4201D9013B9AB2BDF8043032
:1006900040F6B8318B4230D8C3F571630E339BB24C
:1006A0000F21B3FBF1F31B4909888B4201D90139B2
:1006B0008BB2194E194D30682F68834281B28CBFBE
:1006C000591AC91AB8B2BA428CBF101A801A89B224
:1006D00080B201440529C8BF33603368C8BF2A60AF
:1006E00063802B68A38003B0F0BDB32B9CBFB42301
:1006F000ADF80630BBE70022C8E7C3F56D630833E9
:100700009BB20E2BCCD80023D3E700BF18010020EA
:100710001401002016010020100100200C0100200F
:1007200037B568460D461446FFF788FFBDF8000050
:1007300030B1BDF802302B60BDF8043023600120D9
:1007400003B030BD032821D8DFE800F0020B1219F6
:100750000F4B1A68B2FA82F2520904210D4803F0D5
:100760002FBE0B4B5A68B2FA82F252090821F5E704
:10077000074B9A68B2FA82F252091021EEE7044B55
:10078000DA68B2FA82F252092021E7E7704700BF27
:100790001C01002000100240032821D8DFE800F0EF
:1007A000020B12190F4B1A68003A18BF01220421DC
:1007B0000D4803F005BE0B4B5A68003A18BF0122E2
:1007C0000821F5E7074B9A68003A18BF012210216B
:1007D000EEE7044BDA68003A18BF01222021E7E770
:1007E000704700BF1C0100200010024003280DD8F4
:1007F000DFE800F00206080A0421054803F0E5BD21
:100800000821FAE71021F8E72021F6E7704700BF3A
:100810000010024008B5032811D8DFE800F0020AF2
:100820000C0E0421074803F0C5FD431E58425841F1
:1008300008BD0821F6E71021F4E72021F2E70020A7
:10084000F3E700BF0010024070B5084D00240126F8
:10085000E0B2FFF7DFFF18B12B68012B18BF2E6045
:100860000134052C05F10405F2D170BD1C010020F6
:10087000012380F8781080F87930704770470020A5
:1008800070470000034B4164003918BF0121197003
:10089000704700BF37260120704700207047836BE8
:1008A0000BB10846184770474FF6FF707047406815
:1008B00003689B69184770477047704770477047D7
:1008C00070B5044600F05EFC2368D3F88C50044BEE
:1008D000D4E90F122046AC46BDE87040604700BF27
:1008E000000000D008B503680446D3F88430984768
:1008F00023682046DB6F984700F0ECF82368204619
:100900005B6F9847292000F0AFFF00F0E3F8236801
:1009100020465B6F9847F8E710B5044608F084FE60
:1009200023682046D3F8BC30BDE81040184700F0DB
:100930001BBC00F01FBC00F04BBC00F0F1BB00F092
:100940004BBC00F053BC00F0F5BB08F08FB810B5FD
:100950008421044611F026FB204610BD10B590F806
:10096000341090F878400C4B8C421A7809D03AB980
:100970000A4A0B491488088810800C8001221A70DA
:1009800010BD002AFCD0054A05491488088810804B
:100990000C800022F3E700BF302601202C26012026
:1009A0002E26012070B50D46194635B9094B0A4A65
:1009B0000A4840F2FF2111F023FBC0E90F52084B17
:1009C000003A18BF01221A700368BDE87040D3F8DE
:1009D00090301847B0300108E8300108363101087E
:1009E0003626012008B5094B1B888B4203D8084BDB
:1009F0001B88934205D9074B074A0848A32111F0E9
:100A0000FFFA074B1980074B1A8008BD2C260120DE
:100A10002E2601207B310108DE3101083631010824
:100A20003226012034260120034690F87A0018B1BE
:100A3000586803681B68184770470000012108B513
:100A40000022084605F0DDFC0A4B186028B90A4B65
:100A50000A4A28210A4811F0D3FA00220421012071
:100A600005F077FD074B186018B9074B034A2C2196
:100A7000F0E708BD300100201033010859330108A8
:100A8000883301082C010020D2330108024B4FF0BB
:100A9000FF31186805F0FFBC30010020014B1868D9
:100AA00005F025BD30010020024B0021186805F03B
:100AB000F2BC00BF30010020FFF7F0BF034804493B
:100AC000006800231A4605F07FBD00BF2C010020FE
:100AD0000400002013B5084C00231A4601A9206821
:100AE00005F0A3FD20684FF0FF33002201A905F0B7
:100AF0009CFD02B010BD00BF2C01002003685B6CA0
:100B000018470120704703689B6A184782B000238A
:100B100001930D4B1A6B42F400021A631A6B02F434
:100B200000020192019A1A6942F400021A611A69DC
:100B300022F400021A61054B054A1A61054B4FF079
:100B400080629A6002B07047003802408817002027
:100B5000E50D000800E100E040F2EF3070470000D2
:100B6000054B0360054B4FF08062C3F88820BFF34C
:100B70004F8FBFF36F8F70476C35010800E100E0C5
:100B800010B504464FF45A61FFF7EAFF204611F012
:100B900009FA204610BD000008B50A2809D8DFE888
:100BA00000F006100E0808080810101010000220AF
:100BB00008BD054B054A0648872111F021FA00209F
:100BC000F6E70120F4E700BF143401082F340108D0
:100BD0007A34010838B50C46887FFFF7DDFFA58A17
:100BE000E28A164B2169586342EA05425A64628BD5
:100BF000D963521B1A642568082D0ED19A611A61B7
:100C00005862207F0E4A42EA0062DA61E2681A62A4
:100C10000C4A5961D9601A6038BD0022D8611A6146
:100C2000E1680A0A480902F4784200F4FC600243D1
:100C3000C1F3C4010A439A63034AECE700B00240DF
:100C400009000100010202000102030008B50B289F
:100C50000BD8DFE800F00612100A0A0A0A08080892
:100C60000808022008BD0520FCE7054B054A064898
:100C7000662111F0C5F90020F4E70120F2E700BF7A
:100C800014340108C23401087A3401082DE9F04116
:100C900091F81D800C464046FFF7D8FFA77F054618
:100CA0003846FFF7D3FF06463846FFF775FFA18A9F
:100CB000628B444B521A1A649A61228B521A1A613F
:100CC000E28A586342EA01425A6421696268D96340
:100CD000DA602068802828D0227F0FD8202867D0AB
:100CE000402865D004281AD0364B45EA026545F401
:100CF0000035B845DD6161D0334A44E0B0F5807F0E
:100D000004D0B0F5007FEFD1304800E0304840EA31
:100D10000262DA61E2681A625E62596132E045EAB3
:100D2000026242F40032DA61F6E7A068021DDA627C
:100D3000227F45EA026545F40035DD615E62596156
:100D4000017841B1012921D0224B234A234840F2A6
:100D5000111111F055F9DA69418822F47F42013905
:100D600022F0100242EA0122DA610121154BDA6910
:100D700042F02002DA61DA699206FCD410229A600D
:100D80000029B9D0164A1A60BDE8F081B2F1FF011E
:100D9000DA69408822F47F4200F1FF3022F010022D
:100DA00042EA002242F0100218BF0121DA61DDE7B9
:100DB00045EA0262034B42F40032B4E740F20122FA
:100DC000E1E700BF00B0024001020100090002009B
:100DD0000A0002000C350108263501087A340108A2
:100DE00001020200024B1B68586803685B691847E0
:100DF0003826012070B5044625460A4B0C300026E3
:100E000060602672667245F8203B6022294608F031
:100E100047FD04F55A63EE6024359D42FBD1204620
:100E200070BD00BF6C350108012070471420704769
:100E3000142303FB010008307047142303FB010057
:100E400008307047012070474FF4886070474FF4B6
:100E5000886303FB0100083070474FF4886303FB8D
:100E6000010008307047012070471020704700EBE8
:100E700001100830704700EB011008307047084639
:100E800001F016BC10B5034B0360044607F045FBA8
:100E9000204610BD2436010810B50446FFF7F2FFC6
:100EA00020461C2111F07EF8204610BD10B5034BE2
:100EB0000360044607F031FB204610BDF035010801
:100EC00010B50446FFF7F2FF20464FF4896111F098
:100ED00069F8204610BD000010B5034B03600446BE
:100EE00007F01BFB204610BDBC35010810B50446B9
:100EF000FFF7F2FF2046182111F054F8204610BDEC
:100F000010B5084B0360044600F27440FFF7BAFFC7
:100F100004F12C00FFF7CAFF04F11400FFF7DCFF17
:100F2000204610BD5836010808B50248FFF7E8FF13
:100F300008BD00BFF00F002010B50446FFF7E0FF2A
:100F400020464FF4BF6111F02DF8204610BD00007F
:100F50002DE9F34100F0F8FF054600F0F9FF002409
:100F6000014623462846224600940EF033F9254BCD
:100F7000254A264D1A60204602F06AFA24480EF0EF
:100F800091F82B68BFF35B8FDB0735D4284611F04F
:100F90000BF888B31F4C204B236004F29C4604F1ED
:100FA000140004F12C0804F274476060C4F808804F
:100FB000E760266107F0B2FA184B6361404607F01C
:100FC000ADFA174BE362384607F0A8FA154BC4F8A0
:100FD000743404F5926002F0B7FA224604F5926187
:100FE000304602F0A7FA304601F062FB0E4811F0DD
:100FF00025F8284610F0E4FF0C4802B0BDE8F041A7
:10100000FFF75EBC94260120B8010020EC0F002001
:1010100008000020F00F002058360108BC350108F8
:10102000F035010824360108290F0008340100209A
:101030000148FFF757BC00BF3401002070B5254EB2
:10104000254C264D264B23603046FFF7D3FE28461D
:101050000EF020FF234B2448DC6000224FF4807107
:10106000C3E9121221491A86C3E91A12204983F8EA
:101070005820C3E91E011F49C3F880101E491F48AC
:101080000B60F021C3E90422C3E90622C3E9082268
:10109000C3E90A22C3E90E22C3E91022C3E91422DC
:1010A000C3E917225A6683F870205A67C3E90165BD
:1010B00001801348018013484FF4A0710180124849
:1010C000018012490A70012283F83420104A1A6004
:1010D00070BD00BF48020020E80F0020BC010020C6
:1010E000A0300108340100200000010101000001CE
:1010F000000450001A001400382601202C2601207C
:10110000322601202E2601203426012030260120FF
:101110002C3201080148FFF723BD00BF4802002020
:10112000034B902283F85A2383F85823704700BF5B
:1011300000E100E0094A0A49D3680A48C3F30A03F8
:10114000013B9BB20B801169C1F30A010139018097
:101150001364536B43F0010353637047006801400D
:10116000EA150020E8150020014BD3F8AC007047C9
:1011700000680140024B0122C3F8AC105A6270476C
:101180000068014070B5044607F0C5FC23689D6EF9
:101190000AF018FE01462046A8472368054AD3F8FE
:1011A0008C502046AC460023BDE87040A2F51631B5
:1011B000604700BF00B004D007F094BC90F84B30FB
:1011C00013B1024B01221A7007F098BCEC150020F5
:1011D00007F052BC07F0C1BD034B4FF080629A602C
:1011E0004FF080729A60704700E100E0084B4FF0CA
:1011F0008062C3F88820BFF34F8FBFF36F8F4FF02B
:101200008072C3F88820BFF34F8FBFF36F8F704792
:1012100000E100E038B5184C23685BB3174B184A5F
:101220001B6C11888B4216D1164B198803F0C0FE37
:10123000236893F86A200025013283F86A2083F836
:101240007C50FFF73BFC206808F0EEF92846BDE82B
:101250003840FFF777BA03F0ABFE246823682046D6
:101260001B6A9847012384F87C300020BDE8384091
:10127000FFF792BA38BD00BF382601200068014050
:10128000EA150020E815002007B5064BADF806006A
:101290001B68054801220DF1060104F0D7FB03B0DD
:1012A0005DF804FB0C0000203416002007B51A4D31
:1012B0001A4C0421284603F07DF8034640B94C221D
:1012C0008DF807200DF107010246206805F07CF932
:1012D0000821284603F06EF8034640B952228DF8E3
:1012E00007200DF107010246206805F06DF90C4852
:1012F000012103F05FF8012809D141238DF807305F
:10130000002320681A460DF1070105F05DF9012060
:1013100005F06BF8CDE700BF00180240F41500207F
:101320000000024030B595B0102200210AA811F04B
:101330006EF81422002103A811F069F800241D4B57
:1013400001941A6C42F080521A641B6C03F08053B3
:101350000193019B184B02941A6842F440421A60B0
:101360001B6803F4404302930122029B4FF4803335
:10137000CDE9082302254FF48003CDE90E5308215F
:101380004FF4A873CDE9101308A804231393129502
:1013900003F02CFE0F23CDE903354FF4A0504FF49A
:1013A0008053CDE90603052103A8059403F0FAFF55
:1013B00015B030BD003802400070004080B59AB0D2
:1013C00002F076FDFFF7AEFF142200210DA80024E5
:1013D00011F01DF8C34B00941A6BC348C34D42F083
:1013E00010021A631A6B02F010020092009A019424
:1013F0001A6B42F020021A631A6B02F0200201926B
:10140000019A02941A6B42F080021A631A6B02F07E
:1014100080020292029A03941A6B42F004021A6349
:101420001A6B02F004020392039A04941A6B42F0BE
:1014300001021A631A6B02F001020492049A0594E5
:101440001A6B42F002021A631A6B02F00202059252
:10145000059A06941A6B42F040021A631A6B02F066
:1014600040020692069A07941A6B42F008021A6329
:101470001B6B03F00803079322463C21079B02F0F5
:101480009FFF9B482246042102F09AFF224699487A
:101490004FF4405102F094FF01264FF003083C2323
:1014A0009148CDF840800DA902274FF0040ACDE9FC
:1014B0000D360F9402F09AFE8D480F940DA9CDE9D8
:1014C0000DA6109702F092FE4FF4405389480DA9E3
:1014D000CDE90D36CDE90F4702F088FE86480F941E
:1014E0000DA9CDE90D6402F081FE0DA90C238348FE
:1014F0000F96CDE90D3402F079FE8148814B0360EF
:1015000002F068FD804A814B2C62C5E90023284621
:101510004FF48043C5E90434C5E90244C5E90644F3
:1015200003F04AF91021284603F086FB214628469D
:1015300003F0A1FB7648774984624FF48273C0E9D7
:1015400000134FF400751823C0E906530A23724DA7
:10155000C362C0E90244C0E90444C0E9084404F09D
:1015600019FA6E4B0D974FF0100CC5E90036402369
:10157000C5E904C34FF4C073C5E906344FF40063F2
:10158000C5E908344FF40053AB620DA90723284680
:10159000CDE90E3ACDE910384FF00809C5E9024A05
:1015A000CDE9127704F0F2F84FF6FF7209A9284648
:1015B000CDE90A96089409960C9404F007F9304690
:1015C00002F0A2FC4FF6FF7209A92846CDE909797D
:1015D000CDE90B6404F0FAF84FF6FF7209A928462A
:1015E000CDE90989CDE90BA404F0F0F84FF40C73B0
:1015F0000893089B0C934FF6FF7209A92846CDE982
:1016000009A90B9604F0E2F840F26A51284604F06A
:10161000FBF8342221460DEB020010F0F8FE404D9D
:10162000404B2C61C5E900340923C5E905361D236B
:1016300040F20D1EC5E9073840F24313C5E909E33E
:10164000284640F2471340F21718C5E90B83C5E955
:101650000244AC8685F8364003F0B2FBFF21F0224D
:10166000CDE912144FF4806A05214FF4A073CDE93F
:101670000E24CDE914A1CDE916420DA92246284633
:10168000CDE91037284D18930D94ADF864408DF8CE
:10169000664003F060FC254B2B601B6898472B6865
:1016A000234DDB689847234B2846C5E90034C5E93C
:1016B0000274C5E90A47C5E90C4402F09BFC3146B7
:1016C000284602F04FFDFEF784FF04F01BFE1A4A85
:1016D0003146484604F03DFF184B194A1860214630
:1016E00030E000BF003802400010024034170020F4
:1016F00000080240000C02400000024000180240B6
:10170000C817002000300240005C0040A0860100A5
:10171000341600200050014000160020400100A0B7
:101720008C16002000680140F015002014000020F5
:101730008817002000B0024080360108F415002010
:10174000BC360108074804F009FE074B074A186039
:101750002146074804F002FE064B186004F0E4FD41
:10176000FEE700BFAD120008FC1500209836010806
:10177000D7050008F8150020704770477FB5094B62
:101780008DF817201B6802930DF1170201230092B8
:1017900001930A460146044803F0B6F807B05DF825
:1017A00004FB00BF10000020341700207FB5002389
:1017B0008DF81730084B1B6802930A4601230DF180
:1017C0001701009101930146044803F02DF99DF89B
:1017D000170007B05DF804FB10000020341700204C
:1017E0001FB5084C24680092CDE901340A46012354
:1017F0000146054803F018F9003818BF012004B06D
:1018000010BD00BF100000203417002002F07CBB88
:1018100010B5064C00222046042102F0D1FD2046DE
:101820000122BDE81040042102F0CABD00080240B8
:1018300038B50B4D044601220A484FF4005102F01E
:10184000BFFD00220421284602F0BAFD2046FFF722
:101850001BFD28460122BDE83840042102F0B0BD3E
:1018600000080240000C024038B50B4D044600222F
:101870000A484FF4005102F0A3FD0022042128463B
:1018800002F09EFD2046FFF7FFFC28460122BDE83E
:101890003840042102F094BD00080240000C0240D0
:1018A000F7B5144E144F05460C463046002204216D
:1018B00002F086FD00224FF40051384602F080FD10
:1018C0002846FFF7E1FC0D4B0D481B68224601A995
:1018D00004F05BFA384601224FF40051019C02F0FB
:1018E0006FFD30460122042102F06AFD204603B05C
:1018F000F0BD00BF00080240000C02400C000020B8
:101900003416002002F000BB0268034B9A4201D15A
:1019100002F0E8BA704700BF0010004070470000B6
:1019200082B00E4B00220092596C41F48041596400
:10193000596C01F48041009100990192196C41F0B9
:10194000805119641B6C03F080530193019B0F219C
:101950006FF0010002B002F0FDBA00BF0038024093
:101960000268094B9A4282B00BD100230193074BC6
:101970001A6B42F480521A631B6B03F48053019379
:10198000019B02B0704700BF0030024000380240A7
:1019900007B50F4B02689A4216D10022A3F5F04317
:1019A0000192196B41F4000119631B6B03F40003EE
:1019B000019305215A20019B02F0CCFA5A2003B072
:1019C0005DF804EB02F0F8BA03B05DF804FB00BF69
:1019D00000B002402DE9F043044689B014220021F2
:1019E00003A810F014FD2268244B9A4243D1244CE2
:1019F000244800250095236B43F004032363236BE5
:101A000003F004030093009B0195236B43F0010353
:101A10002363236B03F001030193019B4FF0120931
:101A20004FF400734FF001080327042603A9CDE902
:101A30000339CDE90587079602F0D8FB4FF4807390
:101A40001148079603A9CDE90339CDE9058702F0CE
:101A5000CDFB0295236C43F400032364236C03F451
:101A600000030293029B236A43F400032362236A68
:101A700023F40003236209B0BDE8F083005C00405A
:101A8000003802400008024000000240F0B599B062
:101A900004461422002107A810F0B9FC30220DEBF7
:101AA0000200002110F0B3FC22685E4B9A4240F025
:101AB000B78008230C93C0231093042312930CA81F
:101AC0004FF40033159303F035FD08B1FFF726FFFF
:101AD000554B5648002400945A6C42F080625A6478
:101AE0005A6C02F080620092009A01941A6B42F0E4
:101AF00020021A631A6B02F020020192019A0294EA
:101B00001A6B42F001021A631A6B02F00102029290
:101B1000029A03941A6B42F002021A631A6B02F0E3
:101B200002020392039A04941A6B42F040021A6371
:101B30001A6B02F040020492049A05941A6B42F068
:101B400004021A631A6B02F004020592059A0694C5
:101B50001A6B42F008021A631B6B03F0080306932A
:101B600002250E26069B0B964FF4806307A9CDE94C
:101B70000735CDE9094502F039FB41F658032C48F9
:101B80000B9607A9CDE907350927CDE9094502F0EC
:101B90002DFB032327480B9707A9CDE90735CDE98E
:101BA000094502F023FB4FF4706322480B9607A906
:101BB000CDE90735CDE9094502F018FB4FF40C6378
:101BC0001D480B9607A9CDE90735CDE9094502F077
:101BD0000DFBC02319480B9607A9CDE90735CDE9C0
:101BE000094502F003FB082315480B9607A9CDE928
:101BF0000735CDE9094502F0F9FA4FF4A0530E4834
:101C00000B9707A9CDE90735CDE9094502F0EEFAB2
:101C100058202246052102F09DF9582002F0CCF907
:101C200019B0F0BD006801400038024000140240C5
:101C30000000024000040240001802400008024078
:101C4000000C024010B5044688B01422002103A8FD
:101C500010F0DDFB2268144B9A4223D103F5684350
:101C6000002101915A6C114842F480125A645A6C56
:101C700002F480120192019A02911A6B42F0200242
:101C80001A631B6B03F020030293029B4FF46072F4
:101C900002230321CDE903230523CDE9061303A97C
:101CA00002F0A4FA08B010BD005001400014024038
:101CB0002DE9F04186B0002303932B4B1C68002CC8
:101CC0004FD14FF00108C3F80080284B00949A6B65
:101CD000274842EA08029A639B6B03EA08030093D1
:101CE000022703260C25009B01A94FF63F03CDE9EF
:101CF0000137CDE9046502F079FA1E48059501A97E
:101D0000CDE90187CDE9034602F070FA48F23313BA
:101D10001948059501A9CDE90137CDE9034602F03F
:101D200065FA4FF683731548059501A9CDE901378A
:101D3000CDE9034602F05AFA4CF2037310480595B8
:101D400001A9CDE90137CDE9034602F04FFA60233E
:101D50000C48059501A9CDE90137CDE9034602F00C
:101D600045FA06B0BDE8F081D017002000380240E7
:101D70000014024000080240001802400010024017
:101D8000000C02400004024030B5014689B0002238
:101D9000362002F0DFF8362002F00EF90025154B50
:101DA00002951A6C144C42F010021A641B6C03F07A
:101DB0001003029301A903A8029B03F09DFB03F00B
:101DC0008BFB0E4B236040F2E733E36040000C4B8B
:101DD000B0FBF3F00138606020462561A56004F097
:101DE000B9F920B9204604F06FF809B030BD0120E0
:101DF000FBE700BF00380240D4170020001000406D
:101E000040420F007047FEE7FEE7FEE7FEE770473F
:101E1000014804F097B800BFD4170020014803F030
:101E20003DB800BF8C160020014802F011B900BF78
:101E30008817002013B50B4C206804F026FC0128FD
:101E400009D841238DF807302068C82300220DF1FE
:101E5000070104F0B9FB012002B0BDE8104002F018
:101E6000BFBA00BFF41500200120704708B510F07C
:101E700071FB162303604FF0FF3008BD08B510F06A
:101E800069FB16230360FEE770B50D4614460E4647
:101E9000731B9C4201DC204670BDAFF3008006F846
:101EA000010BF5E770B50D4614460E46731B9C42B8
:101EB00001DC204670BD16F8010BAFF30080F5E79A
:101EC0004FF0FF3070474FF400534B6000207047D5
:101ED00001207047002070470A4A116808B5034680
:101EE00009B9094911601068694603448B4206D953
:101EF00010F030FB0C2303604FF0FF3008BD13607F
:101F0000FCE700BF1C180020B0290120704710B565
:101F10000421044610F046F8204610BD08B50329F8
:101F20000FD8DFE801F00A02060A01F0DDFA406886
:101F300008BD01F0D9FA8068FAE701F0D5FA006827
:101F4000F6E70020F4E7000000487047F436010887
:101F50000920704713B5002451B1036801948DF82E
:101F6000034001AA9C680DF10303A04702B010BD15
:101F70000846FBE7C0897047008A7047C0887047F1
:101F800080887047807A00F07F007047807AC009AF
:101F900070470020704700009FED010A704700BFA6
:101FA00000000000704710B5082104460FF0FAFF4A
:101FB000204610BD7047704700F59873086849685F
:101FC00003C3704770477047416070477047000017
:101FD000064BC0F84C310023C0F8503100F5A27315
:101FE000C0F84801C0F84031704700BF092500081B
:101FF00001230372704770477047704770477047FE
:1020000038B5054640680368DB699847044604B95B
:1020100038BDA188AB89C91A236820461B6B09B259
:102020009847A469F3E710B4C268416854100346A6
:1020300001EB6200D20748BF0A599B685DF8044B68
:1020400048BFD35818470346406830B19A681AB958
:10205000D86800F0010070470120704710B50C21CE
:1020600004460FF09FFF204610BD10B51421044612
:102070000FF098FF204610BD10B5102104460FF058
:1020800091FF204610BD10B5102104460FF08AFFC5
:10209000204610BD10B54FF4AE7104460FF082FF1C
:1020A000204610BD10B509F08DFE0368BDE8104054
:1020B000DB6B184710B509F085FE0368BDE81040DA
:1020C0005B6B184710B509F07DFE0368BDE8104052
:1020D0005B6B184713B50446807A637A0130C0B24F
:1020E0009842A07205D9012323720023A37202B083
:1020F00010BDB4F90C2000210BF098FCC30706D5E5
:1021000000284FF6FF73C8BF0123184400B2144AD9
:10211000E08112880023ADF8023083B2D21AADF804
:102120000020228A20829B1AADF804300D4B1B88B8
:10213000ADF8063009F046FE036802AA1B6C12E9EE
:1021400006009847A37A012BD1D1074B1B78002BAF
:10215000CDD009F037FE02B0BDE8104009F038BE1E
:102160002C2601202E2601203626012037B50546D3
:10217000807A6B7A0130C0B29842A87205D90123E7
:102180002B720023AB7203B030BDB5F90C20B5F94A
:102190000E4000210BF04AFCC30706D500284FF67D
:1021A000FF73C8BF0123184400B2AB7AE881041B57
:1021B000012BA4B206D1174B1B781BB109F002FE0C
:1021C00009F006FE144A00231288ADF80230EB89AC
:1021D0001A445B42ADF80430104BADF800201B8868
:1021E000ADF8063009F0EEFD036802AA12E9060018
:1021F0001B6C984768680368DB6998470546002DA3
:10220000C1D0A9882B68214428461B6B09B2984786
:10221000AD69F4E7362601202C2601202E26012068
:1022200010B50446D0F8400158B10368DB68984700
:1022300038B1D4F8400103689B6898470023C4F87C
:10224000403110BD2DE9F14FD0E9556A0746B0681D
:1022500003681B6A9847B0F5886F05D2484B494A16
:10226000A32149480FF0CCFE706803681B6A9847A9
:102270000F2803D8454B434AA421F2E7F0680368CE
:102280001B6A98470F2803D8414B3E4AA521E8E72F
:1022900009F098FDDFF80491043009F0E0FDD9F869
:1022A000000010B10368DB689847D9F8000010B14E
:1022B00003681B689847DFF8E880D8F8000010B181
:1022C00003685B699847D7F83C0110B103685B6805
:1022D0009847D8F8000010B103681B689847D7F8F2
:1022E0003C0110B103689B689847F06803680021BF
:1022F0005B6A9847274B03604FF4A0530381264B3A
:102300001B884FF0000B80F80AB05B420446C0F80F
:1023100004B0A0F80EB08381B068036859465B6AC8
:102320009847054601F0D0F97068036859465B6A22
:1023300098472946064601F069F9331DC7F83C6104
:10234000CAF808302B68C6F808A02846DB68C9F828
:102350000040C8F80050EE639847336830461B6869
:102360009847214628460BF05BFB236820461B69F3
:10237000984723685B69204601B0BDE8F04F1847D5
:10238000B8370108463801082B39010872390108AD
:10239000153A0108083D01082C2601207826012065
:1023A000742601202DE9F14FD0E955BA0746DBF834
:1023B000080003681B6A9847B32805D8494B4A4A66
:1023C000A3214A480FF01CFEDBF8040003681B6AD7
:1023D00098470F2803D8464B434AA421F1E7DBF87E
:1023E0000C0003681B6A9847132803D8414B3E4AE8
:1023F000A521E6E709F0E6FCDFF80491043009F0D6
:102400002EFDD9F8000010B10368DB689847D9F8B1
:10241000000010B103681B689847DFF8E880D8F81F
:10242000000010B103685B699847D7F83C0110B110
:1024300003685B689847D8F8000010B103681B6810
:102440009847D7F83C0110B103689B689847DBF8C0
:102450000C00036800215B6A9847274B03604FF428
:10246000A0530381254B002686721B8846600446D4
:10247000C68106828381DBF80800036831465B6A07
:102480009847054601F0A4F8DBF8040003683146DC
:102490005B6A98472946064601F074F8331DC7F871
:1024A0003C61CAF808302B68C6F808A02846DB68EB
:1024B000C9F80040C8F80050EE63984733683046CA
:1024C0001B689847214628460BF0AAFA2368204645
:1024D0001B69984723685B69204601B0BDE8F04F4F
:1024E000184700BFB8370108B83A01082B3901086E
:1024F00072390108153A01082C3D01082C260120EB
:1025000078260120742601202DE9F14FD0E9556A83
:102510000746B06803681B6A9847B32805D8444B40
:10252000444AA32144480FF06BFD706803681B6A9E
:1025300098470F2803D8414B3E4AA421F2E7F068A0
:1025400003681B6A98470B2803D83D4B394AA521DD
:10255000E8E709F037FCDFF8F090043009F07FFC81
:10256000D9F8000010B10368DB689847D9F800007B
:1025700010B103681B689847DFF8D080D8F80000D6
:1025800010B103685B699847D7F83C0110B1036844
:102590005B689847D8F8000010B103681B6898473B
:1025A000D7F83C0110B103689B689847F06803684E
:1025B00000215B6A98474FF0000B224BC0F804B033
:1025C000044680F808B00360B068036859465B6A47
:1025D0009847054600F0FCFF7068036859465B6A3F
:1025E00098472946064600F0CDFF331DC7F83C61E9
:1025F000CAF808302B68C6F808A02846DB68C9F876
:102600000040C8F80050EE639847336830461B68B6
:102610009847214628460BF003FA236820461B6999
:10262000984723685B69204601B0BDE8F04F184722
:10263000B83701089C3B01082B39010872390108A1
:10264000153A0108E43C010878260120742601208F
:10265000F8B5044617460E4609F09EFC104B0025BF
:10266000C4E955760F4E1C60C4E953550E4B3068D3
:1026700023600E4BC4E95135036801219B68C4E90E
:102680004F559847284600F0E3FE336893F85820EA
:102690000AB1D86C00B998680EF038FF2046F8BD32
:1026A0008426012038260120903C0108783C01084E
:1026B000064BC0F84C310023C0F8503100F5A2732E
:1026C000C0F84801C0F84031704700BF0925000834
:1026D000064BC0F84C310023C0F8503100F5A2730E
:1026E000C0F84801C0F84031704700BFA52300087A
:1026F000064BC0F84C310023C0F8503100F5A273EE
:10270000C0F84801C0F84031704700BF45220008BA
:10271000406A7047806A704770478A880B8810B596
:10272000D20A4C88C1699BB251F8220043EA0443A3
:10273000184410BD10B50446BAB1107B68B1537B84
:10274000D27A1B0203F4E0631A43236A03EB820389
:102750001A888A4202D193F9020010BD05D80138C7
:1027600080B204330028F3D1F7E70020F5E710B575
:102770002C2104460FF016FC204610BD30B58BB05E
:102780000446BDF860500895BDF85C5007959DF86B
:10279000505006959DF84C5005959DF8485004956D
:1027A0009DF8445003959DF8405002959DF83C508B
:1027B0000195BDF8385000950AF08CFD064B23605A
:1027C000159BE361169B2362199B63621A9BA362AC
:1027D00020460BB030BD00BF503D010800207047BF
:1027E00081807047C1807047018170474181704787
:1027F0007047704770477047704710B4C4880368CB
:10280000121B84885B6D091B12B25DF8044B09B280
:1028100018474FF6FF7383814FF0FF33036213684D
:10282000C3611060704770477047704770477047CA
:1028300070477047704730B4C2684468551003460B
:1028400004EB6200D20748BF62599B6830BC48BFA6
:10285000D35818470346406830B19A681AB9D86807
:1028600000F0010070470120704710B510210446A8
:102870000FF098FB204610BD10B5B02104460FF0B4
:1028800091FB204610BD90F8252012B103685B69CA
:102890001847704790F825201AB190F8242002B10B
:1028A000186070476C30884208B505D109F08AFA83
:1028B000BDE80840FFF71CBF08BD70B503680446BB
:1028C0001B6B154698472368294620465B6BBDE87D
:1028D00070401847F7B5044625460AF0F5FE002279
:1028E000334BE26345F8403B324B2266C4E9103279
:1028F0004FF48073A4F86430FF2384F8663040F20C
:102900000113A4F890302C4BE3664FF6FF73A4F844
:102910009A30A4F89C3084F89E30284BA266C4E913
:102920002834274BC4F8942011462846C4E91222C3
:10293000C4E91422C4E91622C4E91C22C4E91E22F7
:10294000C4E92022C4E9222284F89820C4E92A326A
:10295000FFF7B3FF2846F021FFF746FF28464FF464
:10296000A071FFF743FF271D4FF07F4304F16C0672
:10297000A3662946384605F0E3FD3046C7221421F8
:10298000FFF79BFF032301AA69463046ADF80030EC
:10299000ADF8043007F07CFB04F1A0033846C4F81E
:1029A0009430314605F0CCFD204603B0F0BD00BFA9
:1029B000D03D0108E44501084C460108B83D010836
:1029C000A5280008806A704730B50368018185B08A
:1029D0006D460146D3F8843004462846984795E86A
:1029E00007003C3484E8070005B030BD30B503680B
:1029F000418185B06D460146D3F8843004462846AF
:102A0000984795E807003C3484E8070005B030BDDE
:102A10000022028042808280C280704780F8361097
:102A2000704770B5036804461B6B154698472368CA
:102A3000294620465B6EBDE870401847002070476D
:102A4000806C704770477047704770477047704799
:102A500030B4C26844685510034604EB6200D207E4
:102A600048BF62599B6830BC48BFD35818470346DB
:102A7000406830B19A681AB9D86800F00100704710
:102A80000120704790F82D3080F860307047014683
:102A9000383091F82C3013B1363107F032BC343174
:102AA000FBE710B5642104460FF07CFA204610BD08
:102AB00010B54C2104460FF075FA204610BD10B534
:102AC000102104460FF06EFA204610BD10B54FF4E9
:102AD000757104460FF066FA204610BD08B5FFF781
:102AE000D2FE08BD10B50446006B50B10368DB6828
:102AF000984730B1206B036821469B68BDE81040C1
:102B0000184710BD0B7970B590F82C6004460D463F
:102B10000BB916B170BD002EFCD0B3FA83F35B097C
:102B200084F82C3023682046D3F88C3098472368EB
:102B300020465B699847002EECD02B79012BE9D118
:102B400023682046D3F88830BDE87040184700005D
:102B5000036870B55E6B124B1B6804468DB22BB9CF
:102B6000104B114A6C2111480FF04AFA1049828D1E
:102B70000988914203D80F4B0B4A6D21F3E713F8F4
:102B800012200D4B1B6853F8220003681B6B9847FB
:102B9000291A3346204609B2BDE87040184700BFE5
:102BA00088260120FC3D01083E3E0108793E0108CF
:102BB0008C260120C03E01089026012000F5BA7342
:102BC0008B4210B5044609D109F0FCF8FFF780FDEF
:102BD00023682046DB6ABDE81040184710BD00227C
:102BE0004FF0FF31C0E90021826070470B882DE96A
:102BF000F04183861388B0F90850C3860446104616
:102C000090460CF0FBFAB4F90A30074603EBD37395
:102C10004046C3F34F060CF025FB05EBD575C5F315
:102C20004F0500EBD07007EBD777A6EB6002A5EB62
:102C3000670104F1380012B209B2FFF73EFE2368C3
:102C40002046D3F88C30BDE8F041184770B50446F3
:102C50001D46BDF91060FFF730FE23682946204667
:102C60009B6B9847236831462046DB6BBDE870407C
:102C7000184700000022C0E90122C0E90322C0E990
:102C80000522C0E907224FF480728284014A026063
:102C9000704700BF543F010838B5262204460D4650
:102CA00000210FF0B4FB2046FFF7E4FF064B236042
:102CB0002B88E384FF23204684F82830294607F038
:102CC00020FB204638BD00BFC046010810B52622B3
:102CD000044600210FF09BFB2046FFF7CBFF0A4B79
:102CE00023600A4BA3624FF6FF73A3854FF47F0264
:102CF0000023C4E90C3223874FF0FF32C4E91023CC
:102D0000E363204610BD00BF54450108B0370108F9
:102D10002DE9F04F044695B0264600250AF0D4FC74
:102D2000D14BE56346F8403B2622294630460FF05A
:102D30006EFB3046FFF79EFFCC4B2364FF2384F8E5
:102D4000663004F16C034FF6FF77184604F1980AD9
:102D500012A9A566079304F1C409ADF84870FFF7FE
:102D60009BFF12A9504604F1F008ADF84870FFF738
:102D700093FF12A94846ADF84870FFF78DFF12A9DE
:102D80004046ADF84870FFF787FF04F58E7312A92F
:102D900018460893ADF84870FFF77EFF04F5A4735A
:102DA00012A918460993ADF84870FFF775FF04F5AE
:102DB000BA730A934FF47F43A4F8A03140F2011391
:102DC0004FF0FF3204F5D67BA4F89831A84BC4F835
:102DD000A821C4F8743112A95846C4E95E55C4E963
:102DE0006055C4E96255C4E96455C4F89C51C4F8FF
:102DF000A451ADF84820FFF74FFF59460A9805F057
:102E00009FFB04F5EC7312A904F5017B18460B93A4
:102E1000ADF84870FFF740FF5846FFF757FF04F53D
:102E200013731846934F0393FFF750FF04F526736F
:102E3000C4F84C721846C4F894520493FFF746FF46
:102E400004F53973C4F898721846C4F8E052059333
:102E5000FFF73CFF04F54B7318460693FFF736FF68
:102E6000854BC4E9F134854BC4E9F3354FF4A073C5
:102E70002A46304600932946F023271DFFF7E6FE39
:102E80004FF07F43A3663146384605F059FB2A468A
:102E900007982946FFF711FD08230798ADF8483039
:102EA00012A907F02EFA079984F89150384605F0D8
:102EB00047FB2A4650462946FFF7FFFC07235046AA
:102EC00012A9ADF8483007F01CFA5146384684F88C
:102ED000BD5005F035FB2A4648462946FFF7EDFC74
:102EE0000623484612A9ADF8483007F00AFA4946C9
:102EF000384684F8E95005F023FB2A464046294627
:102F0000FFF7DBFC4FF00509404612A9ADF84890E9
:102F100007F0F7F94146384684F8155105F010FBE3
:102F20002A460898DFF870812946FFF7C6FC4FF063
:102F300004030898ADF8483012A907F0E2F908999F
:102F4000384605F0FDFAA02209985F21FFF7B5FC8D
:102F50004FF002030998ADF8483012A907F0D1F9F3
:102F60000999384605F0ECFA0A98ADF8445012AACF
:102F700011A9ADF84850FFF739FE04F57173C4F894
:102F8000A43120234FF48D720A98C4F8B051CC219B
:102F90000093FFF75BFE0A99384605F0D1FA142238
:102FA0000B983F21FFF789FC4FF0010A0B98ADF811
:102FB00048A012A907F0A5F90B99384605F0C0FA08
:102FC000842258463621FFF778FC0CAE2C4BC4F80F
:102FD000343259463046A4F8385206F053FD96E88C
:102FE000070004F5107383E807000923584612A967
:102FF000ADF84C30CDF8488006F0ECFF5946384625
:1030000084F8295205F09CFA4FF494720398DFF883
:103010008CB05621FFF751FC4FF07F43C4F87C324F
:10302000D4F84C320399D3F88430A4F88052304657
:10303000984796E8070004F5227383E8070004F533
:103040005D730793DBF800302BB90E4B0E4A6021FD
:103050000E480EF0D5FF0E4B1B88022B20D80D4BCF
:10306000094A6121F4E700BF04410108E445010871
:103070004C400108BC3F0108EC400108BD2B000892
:103080001500FFFFFC3D0108FE3E0108793E0108E6
:103090008C260120C03E0108B03701088826012097
:1030A000524B0221186800F00FFA14210346504ACF
:1030B00007980BF0E9FF079AC4F89422039806F0EA
:1030C00069FF0398ADF84C9012A9CDF8488006F03E
:1030D00081FF0399384605F033FA049840F2111243
:1030E0003521FFF7EAFBD4F898320499D3F88430FD
:1030F000A4F8CC524FF07F42C4F8C822304698471B
:1031000096E8070004F5357383E80700DBF8003024
:1031100004F56779002B98D0364A1388032B9ED983
:10312000324B0321186800F0CFF9314A03461421CD
:1031300048460BF0A9FF0498C4F8E09206F02AFF75
:103140004FF004030498ADF84C3012A9CDF8488034
:1031500006F040FF0499384605F0F2F9059840F270
:1031600011122946FFF7A9FB4FF07F430599C4F8D8
:1031700014333046A4F8185306F084FC96E8070090
:1031800004F5487383E807000598CDF8488012A934
:10319000ADF84CA006F01EFF0599384605F0D0F9B1
:1031A00006984FF494722946FFF787FB4FF07F4350
:1031B0000699C4F85C333046A4F8605306F062FC0C
:1031C00096E8070004F55A7383E807000698CDF8DF
:1031D000488012A9ADF84C5006F0FCFE384606991E
:1031E00005F0AEF9204615B0BDE8F08F9426012019
:1031F000493F01088C2601207047000030B5174D6B
:103200002C68BFF35B8F14F001048FB022D12846E5
:103210000EF0CAFEF0B13F230993114B0893114BF6
:1032200007930123CDE9054304930423CDE9024329
:103230000F230D49009319221223CDE90B440B48AB
:103240000A940194FFF79AFA09480EF0F7FE28460F
:103250000EF0B6FE05480FB030BD00BF20180020AC
:10326000BC550108E05501086C53010824180020E2
:10327000F93100087047000030B5164D2C68BFF3D7
:103280005B8F14F001048FB021D128460EF08CFE24
:10329000E8B13F230993104B0893104B0793012388
:1032A000CDE9054304930423CDE9024314230C49DB
:1032B00000931022CDE90B440A480A940194FFF7C9
:1032C0005DFA09480EF0BAFE28460EF079FE054870
:1032D0000FB030BD50180020C0550108E45501085A
:1032E000CC540108541800207532000870470000C3
:1032F00030B5164D2C68BFF35B8F14F001048FB00E
:1033000020D128460EF050FEE0B13F230993104B28
:103310000893104B104911480A940122CDE9064345
:103320000423CDE9033228230093CDE90B44CDE9F2
:1033300001440594FFF722FA09480EF07FFE284663
:103340000EF03EFE05480FB030BD00BF80180020D3
:10335000DC550108E8550108AC5501088418002027
:10336000ED32000800207047002070470EB403B50E
:1033700003AB002153F8042B019309F0D3FD02B0F5
:103380005DF804EB03B070470CB407B504AB53F819
:10339000042B019309F0C6FD03B05DF804EB02B005
:1033A00070470000436C10B5044673B3038F2BB90C
:1033B000184B194AC52119480EF022FEC38E00EBA6
:1033C00043035B8C0BB30BF0B6F8238F012B03D8B0
:1033D000134B144ACB21EEE7E28E531C9BB2092B10
:1033E000194688BFA3F10A0104EB410140F63F10E2
:1033F000498C814209D10A2B04EB420228BF0023E9
:1034000004EB4303508C588451842046BDE810409F
:103410000AF094BF344101083D410108E841010828
:1034200032420108404201080AF04FBF10B586B091
:1034300002AC84E806001A460AAB05930193099B87
:1034400000932146089B08F05BF806B010BD000011
:1034500038B518BB124B13481C681349B4B1226825
:1034600022440260626822440A60A26814440F4B3E
:1034700000221A8000F038F8054600F033F80C4BB3
:103480001C600C4B1D600C4B188007E00B4B03605D
:103490000B4B0B600B4B1C68002CE8D138BD00BFF8
:1034A000BC180020B4180020B0180020B818002064
:1034B00088260120902601208C2601201456010820
:1034C000EC5501089C560108044B1B6853F8210079
:1034D000034B1B6803EB4000704700BFB01800208F
:1034E000B41800200A20704700487047C018002018
:1034F00010B5FFF7C1FE044C2060FFF7F9FE6060D5
:10350000FFF77CFEA06010BDC0180020704710B50A
:103510004FF4AE7104460EF045FD204610BD10B5C7
:103520000446D0F8580100F015F82046BDE81040D8
:1035300008F0F2BC10B50446FFF78AF8014B23608F
:10354000204610BD1C43010800225F2102608180DB
:103550008260704703680133036070478180704761
:10356000B0F904007047704704387047704710B5D1
:10357000102104460EF016FD204610BDA0F10400F7
:10358000F5E7000000228260024A026018324260C1
:10359000C1607047704301087047D0F8B030013304
:1035A000C0F8B0307047000010B5034B036004460C
:1035B000FFF73EF9204610BD9843010810B50446B8
:1035C000FFF7F2FF2046B4210EF0ECFC204610BDC0
:1035D00010B50446FFF77EF9034B23600023C4F8BF
:1035E000B030204610BD00BF98430108FFF721B955
:1035F000704704387047704710B5102104460EF02C
:10360000D1FC204610BDA0F10400F5E70022826045
:10361000024A026018324260C1607047CC43010820
:103620008068FFF79BBF8068FFF79ABFB0F94C2115
:10363000B0F95031B0F9DC1113448B4215DBB0F90D
:10364000E0310B449A4210DCB0F94E31B0F952210E
:10365000B0F9DE111A448A4207DBB0F9E2210A44CC
:103660009342CCBF00200120704700207047B0F982
:103670002C14C06BFFF7D4BF10B5034B0360044696
:10368000FFF7E1F9204610BDF843010810B50446E4
:10369000FFF7F2FF20464FF488610EF083FC2046CE
:1036A00010BD000010B5074C236813B900F026FCCC
:1036B0002060206880EA403080EA504080EA401074
:1036C000206010BDCC18002010B50446FFF720FB89
:1036D000084B236002220023A4F836244FF4003262
:1036E00084F83434C4F8382484F83C34C4F83034D2
:1036F000204610BDF843010810B50446C06BFFF723
:1037000092FFA4F82C042046FFF79EF9B4F82C345D
:10371000A4F84C310E23C4F8DC310023C4F824345F
:10372000C4F8283410BD000073B5884B04461868EF
:1037300094F83434002B4BD000231A460DF10701C6
:1037400002F073FF0546002840D19DF80730412B59
:103750003CD104F57576034628217D4AC4F824043B
:1037600030460BF091FC04F52670C4F8E06209F0D5
:1037700003FD0223A4F836344FF400336422C4F866
:1037800038340123A4F82C2484F8FD31A4F84C210A
:1037900084F8413104F5A47084F83454C4F83054EA
:1037A000A4F8DE5184F8295284F8155184F8E950C0
:1037B00084F8BD5084F8915009F0DEFC04F5EC70FB
:1037C00009F0DAFC04F5017009F0D6FC02B070BD16
:1037D0001A460DF1070102F028FFB0B99DF8071055
:1037E000B4F95021B4F92C344C2922D1002B04DD3A
:1037F000B4F83A249B1AA4F82C34B4F82C34A4F866
:103800004C3104F5A47009F0B7FCD4F8303405222B
:103810000133B3FBF2F202EB8202C4F830349B1A9C
:10382000013B01210022032B0ED8DFE803F07B804F
:10383000858A5229E1D1C2F1F00212B29A42DCDD4E
:10384000B4F83A241344D6E784F8411184F891205F
:10385000B4F9DE31B4F936241344B3F5A07F34DB78
:10386000D4F82434D4F828240133934204F5757530
:10387000C8BFC4F82834364AC4F82434282128465E
:103880000BF002FCC4F8E05204F5267004F57F75D5
:1038900009F072FCD4F828342D4A282128460BF070
:1038A000F3FB04F51370C4F8945209F065FCFFF7BC
:1038B000F9FE3C2300F0030058430F30A4F8DC016C
:1038C00004F5EC7009F058FC0023A4F8DE312368FD
:1038D00020461B6B984758B1012384F8343484F890
:1038E0002932002384F8FD3104F5017009F044FC0D
:1038F000D4F830344FF4C872B3FBF2F102FB113349
:1039000073B9B4F93634042B0ADCB4F83824013323
:103910001BB20132A4F83634A4F83824A4F83A349F
:10392000201D51E784F8151184F8412190E784F8AF
:10393000E91084F815218BE784F8BD1084F8E9209C
:1039400086E784F8911084F8BD2081E7F415002003
:10395000EC430108F02070474FF4A0707047292015
:10396000FDF782BF2820FDF77FBF08B5FDF750FFA8
:10397000CA20FDF779FFC320FDF75AFF0820FDF7A5
:1039800057FF5020FDF754FFCF20FDF76DFF0020BB
:10399000FDF74EFFC120FDF74BFF3020FDF748FF3C
:1039A000ED20FDF761FF6420FDF742FF0320FDF7E6
:1039B0003FFF1220FDF73CFF8120FDF739FFE82093
:1039C000FDF752FF8520FDF733FF0020FDF730FFA4
:1039D0007820FDF72DFFCB20FDF746FF3920FDF7BE
:1039E00027FF2C20FDF724FF0020FDF721FF3420C6
:1039F000FDF71EFF0220FDF71BFFF720FDF734FF48
:103A00002020FDF715FFEA20FDF72EFF0020FDF72F
:103A10000FFF0020FDF70CFFB120FDF725FF002070
:103A2000FDF706FF1B20FDF703FFB620FDF71CFF87
:103A30000A20FDF7FDFEA220FDF7FAFEC020FDF7EB
:103A400013FF1020FDF7F4FEC120FDF70DFF10203D
:103A5000FDF7EEFEC520FDF707FF4520FDF7E8FE68
:103A60001520FDF7E5FEC720FDF7FEFE9020FDF7CF
:103A7000DFFE3620FDF7F8FEC820FDF7D9FEF22064
:103A8000FDF7F2FE0020FDF7D3FEB020FDF7ECFEBF
:103A9000C220FDF7CDFEB620FDF7E6FE0A20FDF7B9
:103AA000C7FEA720FDF7C4FE2720FDF7C1FE0420B6
:103AB000FDF7BEFE2A20FDF7D7FE0020FDF7B8FE79
:103AC0000020FDF7B5FE0020FDF7B2FEEF20FDF768
:103AD000AFFE2B20FDF7C8FE0020FDF7A9FE002059
:103AE000FDF7A6FE0120FDF7A3FE3F20FDF7A0FE97
:103AF000F620FDF7B9FE0120FDF79AFE0020FDF744
:103B000097FE0620FDF794FE2C20FDF7ADFEC820A1
:103B1000FDF7F8FE2620FDF7A7FE0120FDF788FE41
:103B2000E020FDF7A1FE0F20FDF782FE2920FDF722
:103B30007FFE2420FDF77CFE0C20FDF779FE0E2091
:103B4000FDF776FE0920FDF773FE4E20FDF770FEAF
:103B50007820FDF76DFE3C20FDF76AFE0920FDF799
:103B600067FE1320FDF764FE0520FDF761FE1720B8
:103B7000FDF75EFE1120FDF75BFE0020FDF758FE0D
:103B8000E120FDF771FE0020FDF752FE1620FDF743
:103B90004FFE1B20FDF74CFE0420FDF749FE1120CF
:103BA000FDF746FE0720FDF743FE3120FDF740FEFE
:103BB0003320FDF73DFE4220FDF73AFE0520FDF7DC
:103BC00037FE0C20FDF734FE0A20FDF731FE2820D9
:103BD000FDF72EFE2F20FDF72BFE0F20FDF728FE10
:103BE0001120FDF741FEC820FDF78CFE2920FDF7CE
:103BF0003BFEBDE808402C20FDF736BE08B5FDF7BA
:103C000007FE0321D320FDF74BFE80B208BD10B59F
:103C1000C4B2022203212046FDF7B0FD0A20FDF7C1
:103C2000F5FD204600220321FDF7A8FDBDE8104068
:103C30000220FDF7EBBD38B50446E4B2FDF79CFD6C
:103C400000212046FDF7B2FD012105462046FDF783
:103C5000ADFD40EA052080B238BD10B5C4B24021A8
:103C60002046FDF7A3FD030607D54C212046FDF7AE
:103C70009DFD003818BF012010BD01224B212046B8
:103C8000FDF77CFD204600224B21FDF777FD00204B
:103C9000F2E773B50423C4B20E461546D7210DEBE7
:103CA00003022046FDF79CFD019B1BBA1A0DC3F3CE
:103CB0000B23328020462B8001224B21FDF75EFD35
:103CC00000224B212046FDF759FD02B070BD0000D7
:103CD00010B50A4A1378984204460DD051788842AC
:103CE0000AD00BB141B90123D454FDF745FD20465C
:103CF000BDE81040FFF78BBF10BD00BFD0180020FB
:103D000010B5C4B209212046FDF750FD40F0010274
:103D1000D2B220460921BDE81040FDF72FBD10B5F5
:103D2000C4B209212046FDF741FD092100F0FE0241
:103D30002046BDE81040FDF721BD38B5C4B20D46A0
:103D400020460A21FDF732FD40EA0502D2B22046A4
:103D50000A21BDE83840FDF711BD10B50446FDF756
:103D60000CFD20461F21FFF7E8FF2046BDE810406C
:103D7000FFF7C6BF38B5C4B20D4620460A21FDF78D
:103D800015FD20EA0502D2B220460A21BDE83840DE
:103D9000FDF7F4BC10B50446FFF7C1FF20461F2114
:103DA000BDE81040FFF7E6BF10B5C0B20C460B21CE
:103DB000FDF7FCFC204010BD1F21FFF7F5BF0A46B0
:103DC000C0B20B21FDF7DABC1F21FFF7F8BF38B5F1
:103DD000C4B20D4620461721FDF7E8FC20EA050293
:103DE000D2B220461721BDE83840FDF7C7BC70B5F8
:103DF000C4B2064604212046FDF7D8FC042100F099
:103E0000FB0205462046FDF7B9FC3046F021FFF7DE
:103E1000DEFF05F0F80220460421FDF7AFFC492241
:103E200020212046FDF7AAFC0220FDF7EFFC2046EA
:103E300001222121FDF7A2FC20469A224121FDF713
:103E40009DFC204601224A21FDF798FC20460122D4
:103E50004B21FDF793FC204600224B21FDF78EFC01
:103E6000204601225621FDF789FC204601225821D7
:103E7000FDF784FC204601224021FDF77FFC20460F
:103E8000FF220B21FDF77AFCBDE870400220FDF710
:103E9000BDBC0000054BD3F8882042F47002C3F883
:103EA00088204FF000629A60704700BF00ED00E08C
:103EB00008B50B4B1A6842F400721A601A6842F493
:103EC00080621A601A6842F480721A60032000F05F
:103ED0002FF80020FDF758FFFDF722FD002008BD58
:103EE000003C0240034A044B11681B780B441360EA
:103EF000704700BFD418002078000020014B1868DC
:103F0000704700BFD418002038B50446FFF7F6FF0D
:103F1000631C1CBF054B1B78054618BFE418FFF750
:103F2000EDFF431BA342FAD338BD00BF7800002049
:103F30000749CA6822F4E0620302120403F4E06352
:103F4000120C134343F0BF6343F40033CB6070475C
:103F500000ED00E0164B30B5DC68C4F30224C4F178
:103F60000703251D042B28BF0423062D4FF0FF3522
:103F70008CBF033C002405FA03F321EA0303A540A8
:103F800022EA0502A340002843EA0203ACBF00F185
:103F90006040084A4FEA0313B8BF00F00F00DBB2DD
:103FA000AABF00F56140135480F8003330BD00BF54
:103FB00000ED00E014ED00E0002807DB4109044AB1
:103FC00000F01F000123834042F82130704700BFFA
:103FD00000E100E010B5044650B1437903F0FF0260
:103FE00013B90271FDF7BCFC01236371002010BD01
:103FF0000120FCE710B5044630B390F8393003F0E7
:10400000FF021BB980F83820FDF7C2FC2268616806
:10401000022384F83930136823F440330B431360D0
:10402000536BA16823F007030B435363136CE168E0
:1040300023F47F5323F03F030B4313640020012339
:10404000E06384F8393010BD0120FCE77047704709
:10405000036870B55E681D68F207044614D5E9056B
:1040600012D51A6822F480721A60C26B42F0010203
:10407000C26301229A60042380F83930002380F85B
:104080003830436903B19847B20616D5AB0414D54E
:1040900023681A6822F400521A6020229A60E36BA7
:1040A00043F00203E363042384F83930002384F8E7
:1040B000383063690BB120469847300716D529057B
:1040C00014D523681A6822F400621A6008229A60E4
:1040D000E36B43F00403E363042384F839300023E3
:1040E00084F8383063690BB12046984772070BD5C6
:1040F0006B0509D523681A6822F480621A600422CD
:104100009A602046FFF7A2FFB00714D5A90512D583
:1041100023681A6822F400721A6002229A60E36B24
:10412000E363012384F83930002384F838302369AD
:104130000BB120469847F20613D5EB0411D523683E
:104140001A6822F480521A6010229A60E36BE363CB
:10415000012384F83930002384F838302046FFF7F3
:1041600076FF70BDF0B590F83820012A03464FF075
:1041700002002BD0012283F8382083F8390003EBAA
:104180000112D2E90740556A174F44EA0040093C42
:10419000012C9CBF05F07F4210434FEA01161A68BC
:1041A00088BF40EA056091B9516A394001435162C4
:1041B000012C9969916103D8596A21F07F4191627C
:1041C0000122002083F8392083F83800F0BDD1693E
:1041D00039400143D1619919012C896911619CBF52
:1041E00025F07F451562EBE7F0FFFC002DE9F74F66
:1041F000DFF8BC916C4A00230D6801249C4004EA5E
:104200000506AC4340F0B7804D68032705F0030472
:104210004FEA430807FA08FC671E012F6FEA0C0CEF
:1042200034D8876807EA0C0ECF6807FA08F747EA20
:104230000E078760476827EA060EC5F300179F4000
:1042400047EA0E074760C76807EA0C0E8F6807FA4F
:1042500008F747EA0E07022CC76019D14FEAD30AC4
:1042600000EB8A0A03F0070BDAF820704FEA8B0B99
:104270004FF00F0E0EFA0BFE27EA0E0E0F6907FA2B
:104280000BF747EA0E07CAF8207001E0032CDAD1D9
:10429000076804FA08F407EA0C073C4315F4403FAA
:1042A000046068D000240194D9F8444044F4804468
:1042B000C9F84440D9F8444023F0030707F1804788
:1042C00004F4804407F59C37019403F0030C019C2F
:1042D000D7F808E04FEA8C0C0F2404FA0CF42EEA0D
:1042E000040E324CA0424DD004F58064A0424BD065
:1042F00004F58064A04249D004F58064A04247D010
:1043000004F58064A04245D004F58064A04243D007
:1043100004F58064A04241D004F58064A0423FD0FF
:1043200004F58064A0423DD004F58064A04214BF2F
:104330000A24092404FA0CF444EA0E04BC609468CC
:10434000F74315F4801F0CBF3C4034439460D4689D
:1043500015F4001F0CBF3C403443D460546815F47E
:10436000003F0CBF3C40344354601468ED0354BF1D
:104370003C40344314600133102B7FF43DAF03B055
:10438000BDE8F08F0024D5E70124D3E70224D1E76C
:104390000324CFE70424CDE70524CBE70624C9E7AF
:1043A0000724C7E70824C5E7003C0140000002409D
:1043B000003802400369194214BF012000207047F1
:1043C0000AB1816170470904FBE7436901EA03020E
:1043D00021EA030141EA0241816170477047000010
:1043E000044A5169014208B502D05061FFF7F6FF57
:1043F00008BD00BF003C014001684B6913F48063B5
:104400004FF0000210D06FF480634B6120230263F1
:1044100080F83D3080F83E20036C80F83C2043F06B
:104420000403036401207047184670472DE9F846DD
:1044300006460F4691461D464FEA114A3368BAF1C7
:10444000010F0CBF5C699C6927EA0404A4B2B4FAAA
:1044500084F46409A14501D0002017E06A1CEED065
:10446000FFF74CFD089BC01AA84201D8002DE5D1EA
:1044700000232022336386F83D2086F83E30326CDC
:1044800086F83C3042F0200232640120BDE8F88614
:104490002DE9F04104460F4616469846256868699E
:1044A00027EA000080B2C0B16B695A0517D52B68A6
:1044B00043F400732B606FF480636B612022002350
:1044C000236384F83D2084F83E30236C43F00403DA
:1044D0002364002384F83C300120BDE8F081731C84
:1044E000DDD0FFF70BFDA0EB0800B04201D8002E95
:1044F000D4D100232022236384F83D2084F83E3069
:10450000236C1343E4E770B504460D461646236852
:104510005B691B0601D500201AE02046FFF76CFFFF
:10452000A8B96A1CF3D0FFF7E9FC801BA84201D8A8
:10453000002DECD100232022236384F83D2084F851
:104540003E30226C84F83C3042F02002226401208C
:1045500070BD00002DE9F0431546026885B0DDE925
:104560000C789946136843F4807313600E463B46FB
:10457000CDF8008000224FF001110446FFF756FFEE
:10458000236838B11B68DB0502D54FF40073236440
:10459000032620E006F0FE061E611A4943463A460D
:1045A0002046FFF775FFA8B9236803905A69039264
:1045B0009B690393424639462046039BFFF7A3FFBE
:1045C000064660B1236C042B01BF2268136843F4D4
:1045D000007313600126304605B0BDE8F083B9F1E1
:1045E000010F236802D1EDB21D61F4E72A0A1A61B6
:1045F000394642462046FFF786FF0028E2D123686D
:10460000F1E700BF020001002DE9FF479A46036869
:1046100015461A6842F480621A601A68DDE90C785F
:1046200042F480721A600E463B46CDF800800022AC
:104630004FF001110446FFF7F9FE236838B11B68FB
:10464000DB0544BF4FF400732364032021E05FFACD
:1046500086F906F0FE061E612B4943463A4620467F
:10466000FFF716FFA0B9236803905A6903929B696C
:104670000393424639462046039BFFF744FF58B157
:10468000236C042B01BF2268136843F4007313608A
:10469000012004B0BDE8F087BAF1010F23681AD1F8
:1046A000EDB242461D6139462046FFF72CFF024617
:1046B0000028E5D121680B6843F480730B60204625
:1046C000CDF800803B464FF00111FFF7AFFE2268A6
:1046D00060B11368B4E72A0A1A6139464246204697
:1046E000FFF711FF0028CBD12368D9E749F0010378
:1046F0001361054943463A462046FFF7C9FE003894
:1047000018BF0120C5E700BF0200010070B50446D4
:104710000D46164623685B695B0701D500201AE049
:104720002046FFF769FEA8B96A1CF3D0FFF7E6FB45
:10473000801BA84201D8002DECD100232022236346
:1047400084F83D2084F83E30226C84F83C3042F0FE
:1047500020022264012070BD70B504460D46164645
:1047600021684B6913F0400301D0002011E04A6931
:10477000D2060FD56FF010024A612022236384F81D
:104780003D2084F83E30236C2364002384F83C30C1
:10479000012070BDFFF7B2FB801BA84201D8002D9D
:1047A000DED100232022236384F83D2084F83E30AC
:1047B000236C1343E8E7000070B5044608B90120F4
:1047C00070BD90F83D3003F0FF021BB980F83C202B
:1047D000FDF700F9242384F83D3023681A6822F09D
:1047E00001021A601A6842F400421A601A6822F440
:1047F00000421A6000F070FE3F4B65689D4294BF16
:104800003E4B3F4B98428CBF00230123002BD6D157
:104810002268394E51683B4BB0FBF3F321F03F0166
:104820001943B542516088BF4FF49676116A88BF2C
:10483000734321F03F0184BF4FF47A76B3FBF6F364
:1048400001330B431362D169431E2B4821F44F41BE
:10485000854221F0FF0132D86D0040F6FC70B3FBB9
:10486000F5F30133034242D0C3F30B031943D16183
:10487000D4E907301168034321F0C0010B431360F2
:104880009168D4E9030321F40341034321F0FF01BC
:104890000B439360D4E90530D168034321F0FF0155
:1048A0000B43D360136843F00103136000202023FF
:1048B000206484F83D30206384F83E0080E7A068DF
:1048C00050B905EB4505B3FBF5F30133C3F30B0317
:1048D0007BB143F40043C9E719206843B3FBF0F30D
:1048E0000133C3F30B0323B143F44043BEE7042376
:1048F000BCE70123BAE700BFA08601007F841E0049
:10490000FF083D0040420F002DE9F7430446994659
:104910000C9E0F469046FFF7F1FA94F83D30202B9D
:10492000054603D0022003B0BDE8F08300903C4967
:10493000192301222046FFF779FD0028F2D194F8CF
:104940003C30012BEED02068012384F83C30036812
:10495000D9075EBF036843F001030360036823F4D3
:1049600000630360212384F83D30402384F83E3007
:10497000002323640A9B6362BDF82C306385638D3A
:104980002385284BE3624246CDE900654B46394614
:104990002046FFF7DFFD00282AD00120C3E7FFF7FC
:1049A000B2FD40B1236C042B01BF2268136843F4AD
:1049B00000731360F1E7636A27681A4612F8011B57
:1049C00039616262628D218D013A92B262857A69A3
:1049D000481E80B2520720850AD548B15A783A61FC
:1049E00002336362638D013B02399BB2218563858B
:1049F000238D2A4631462046002BD0D1FFF786FE74
:104A00000028CFD12268136843F400731360202379
:104A100084F83D3084F83C0084F83E0083E700BF12
:104A2000020010000000FFFF2DE9F043044687B0AC
:104A30009946109F0D469046FFF760FA94F83D3076
:104A4000202B064604D00225284607B0BDE8F08397
:104A500000907649192301222046FFF7E7FC002841
:104A6000F1D194F83C30012BEDD02068012384F87B
:104A70003C300368DB075EBF036843F0010303605B
:104A8000036823F400630360222384F83D3040234D
:104A900084F83E30002323640E9B6362BDF83C30F3
:104AA0006385638D2385624BE3622946CDE90076F9
:104AB0004B4642462046FFF7A7FD054608B10125B3
:104AC000C2E7228D2368B2B902905A6902929A69AC
:104AD0000292029A1A6842F400721A60DFF8548156
:104AE000238D002B2CD1202284F83D2084F83C30EB
:104AF00084F83E30A8E7012A0AD11A6822F48062BD
:104B00001A6003905A6903929A690392039AE1E743
:104B1000022A0ED11A6822F480621A601A6842F4DE
:104B200000621A6004905A6904929B690493049B82
:104B3000D4E705905A6905929B690593059BCDE7DB
:104B4000032B56D8012B15D1324639462046FFF7A4
:104B500003FE0028B3D123681A69636A1A70636A76
:104B600001336362238D013B2385638D013B9BB23F
:104B70006385B5E7022B00963B464FF000024146A5
:104B8000204619D1FFF752FC002898D123681A68F3
:104B900042F400721A601A69636A1A70626A531CDE
:104BA0006362238D013B2385638D013B9BB263854B
:104BB00023681B695370D2E7FFF738FC02460028D0
:104BC0007FF47DAF2368196821F480611960196949
:104BD000636A1970636A01336362238D013B238525
:104BE000638D013B9BB26385414600963B46204660
:104BF000C8E7324639462046FFF7AEFD00287FF46D
:104C00005EAF23681A69636A1A70626A531C636232
:104C1000238D013B2385638D013B9BB26385236814
:104C2000596949077FF55CAFC3E700BF0200100078
:104C30000000FFFF0400010010B590F83D30202B6C
:104C4000DCB216D1242380F83D3003681A6822F0C4
:104C500001021A605A6A22F010025A625A6A11431B
:104C600059621A6842F001021A6080F83D40002043
:104C700010BD0220FCE730B590F83D30202BDCB2AF
:104C800016D10268242380F83D30136823F0010315
:104C90001360556A4FF6F0732B400B439BB253627F
:104CA000136843F00103136080F83D40002030BDDD
:104CB0000220FCE70068D1F800C0D20184328318DA
:104CC0002DE9F043C6685D684C68D1F8189005F48A
:104CD00070455D60C5680CF10107C5F30B45C6F36F
:104CE0000B463D44264445EA06455D60C668CD68EE
:104CF000C6F30A062E449D6805F470459D60C7689A
:104D00008D68C7F30A0701353D4445EA06459D60B5
:104D10001D690E6925F007051D614FF0000E1E612B
:104D20009D6991F8327091F83180C3F818E091F8DC
:104D3000305045EA096545EA082545EA07459D6181
:104D40005D6925F0FF055D614D695D61DD6925F4F3
:104D5000E06525F00705DD61D1E907573D43DD61D9
:104D60009D6A4D6AC3F828E09D621EB3012E23D0D0
:104D7000B51E022D22D9072E14BF01250225DE6A99
:104D800006F0E026DE62A4EB0C048E6AC96A6C436E
:104D90006E43033444EA0644DC621C6B24F4FF6473
:104DA00024F007041C631963835843F00103835004
:104DB000BDE8F0830425E2E70325E0E70225DEE70E
:104DC00038B50446002863D090F8A13003F0FF0204
:104DD0001BB980F8A020FCF759FE022384F8A1300B
:104DE00023689A6922F070429A61D4E90120024353
:104DF000E06899690243206902430A439A619A680C
:104E0000244960690A409A609A6842EA0042A069AF
:104E100002439A60DA68E0690A40DA60DA6842EAD6
:104E20000042206A0243DA601A69606A0A401A6125
:104E30001A6942EA0042A06A02431A615A690A40AA
:104E40005A615A69E16A42EA0142216B0A435A6196
:104E5000DA6A94F8350094F8361002F07F42DA628C
:104E6000DD6A94F834202A4342EA002242EA0142F1
:104E7000DA625A6B42F006025A639A6942F0010202
:104E80009A6100200123C4F8A40084F8A13038BD41
:104E90000120FCE700F800F070477047036870B528
:104EA0009E6B5D6B7207044614D5690712D55A6B69
:104EB00022F004025A630422DA63D0F8A43043F0EB
:104EC0000103C0F8A430002380F8A12080F8A030AE
:104ED000FFF7E2FFB20716D5AB0714D523685A6B6C
:104EE00022F002025A630222DA63D4F8A430134398
:104EF000C4F8A430042384F8A130002384F8A0303F
:104F00002046FFF7C9FFF00710D5E9070ED5236843
:104F10005A6B22F001025A630122DA63002384F8FB
:104F2000A12084F8A0302046FCF774F9320711D58F
:104F30002B070FD523685A6B22F008025A63082208
:104F4000DA63012384F8A130002384F8A0302046DE
:104F5000FFF7A3FF70BD2DE9F04190F8A030012BC1
:104F600006460F4694464FF002001FD04FF001084E
:104F700086F8A08086F8A10034240D4604FB026464
:104F80000FCD38340FC40FCD0FC40FCD0FC42B6815
:104F90002360304662463946FFF78CFE33680020B6
:104FA000C3F8248086F8A18086F8A000BDE8F081CF
:104FB00090F8A020012A03464FF0020012D01A6890
:104FC00083F8A100506B20F0010050630648016493
:104FD000516B41F0010151630020012283F8A120AF
:104FE00083F8A000704700BF006801402DE9F3413D
:104FF000044640B30368DE0710D423689D075BD4E2
:105000002368190700F19D8023685A0700F1BD80CD
:10501000A369002B40F0248100202CE08D4B9A687E
:1050200002F00C02042A07D09A6802F00C02082A47
:105030000BD15B68590208D5864B1B689A03DCD5F7
:105040006368002BD9D1012015E06368814DB3F569
:10505000803F13D12B6843F480332B60FEF74EFF63
:105060007C4E054633689B03C7D4FEF747FF401BC1
:105070006428F7D9032002B0BDE8F081B3F5A02F72
:1050800004D12B6843F480232B60E3E72A6822F4E1
:1050900080322A602A6822F480222A60002BDDD127
:1050A000FEF72CFF06462B689F03A6D5FEF726FFCA
:1050B000801B6428F7D9DDE7664B9A6812F00C0F65
:1050C00007D09A6802F00C02082A11D15B685D02D1
:1050D0000ED4604A1368990702D5E368012BB2D158
:1050E0001368216923F0F80343EAC103136087E7DB
:1050F000E268594BB2B101221A60FEF7FFFE554D2E
:1051000006462B689B0707D52B68226923F0F80316
:1051100043EAC2032B6073E7FEF7F0FE801B022810
:10512000EFD9A7E71A60FEF7E9FE4A4E0546336855
:105130009F077FF565AFFEF7E1FE401B0228F6D919
:1051400098E76269444B82B10122C3F8802EFEF7D2
:10515000D5FE404E0546736F9B073FF555AFFEF7F2
:10516000CDFE401B0228F6D984E7C3F8802EFEF757
:10517000C5FE384E0546736F9F077FF545AFFEF7B6
:10518000BDFE401B0228F6D974E7324B1A6C12F0B0
:10519000805228D101921A6C42F080521A641B6C22
:1051A00003F080530193019B01272C4D2B68D805F8
:1051B0001BD5A368274D012B27D12B6F43F001038B
:1051C0002B67FEF79BFE234E054641F28838336F6E
:1051D0009A0739D5002F3FF41BAF1E4A136C23F0FA
:1051E0008053136414E70027DFE72B6843F48073D0
:1051F0002B60FEF783FE06462B68D905D9D4FEF74F
:105200007DFE801B0228F7D934E7052B04D12B6FD4
:1052100043F004032B67D0E72A6F22F001022A67CC
:105220002A6F22F004022A67002BCAD1FEF766FE1D
:1052300041F2883806462B6F9B07CBD5FEF75EFE02
:10524000801B4045F7D915E7FEF758FE401B404547
:10525000BDD90FE70038024000004742007000400F
:10526000374DAA6802F00C02082A3ED0022B354BBB
:105270004FF000021A662BD1FEF740FE06462B685F
:1052800099011FD4D4E907321343626A43EA8213B7
:10529000E26A43EA0263A26A5208013A43EA02431D
:1052A0006B60284B264D01221A66FEF727FE044646
:1052B0002B689A013FF5B0AEFEF720FE001B0228D6
:1052C000F6D9D7E6FEF71AFE801B0228D7D9D1E619
:1052D000FEF714FE04462B689B017FF59DAEFEF79A
:1052E0000DFE001B0228F6D9C4E6012B3FF4ABAE3D
:1052F0006B68E26903F4800191427FF4A4AE216AF5
:1053000003F03F028A427FF49EAE616A47F6C072A4
:105310001A40B2EB811F7FF496AEA26A520803F4E2
:105320004031013AB1EB024F7FF48DAEE26A03F0F7
:105330007063B3EB026F14BF012000209BE600BF37
:105340000038024000004742134908B58B6803F05B
:105350000C03042B1CD0082B1CD14A684B684968ED
:1053600013F4800314BF0D480D48C1F3881118BF12
:10537000002302F03F02A1FB0001FAF789FF064B70
:105380005B68C3F3014301335B00B0FBF3F008BD7E
:105390000248FCE70248FAE70038024000127A00AF
:1053A0000024F4002DE9F0410D46044610B9012017
:1053B000BDE8F081434B1A6802F00F028A4228D3FD
:1053C00021688F072DD4C80740D43E4B1A6802F0DD
:1053D0000F02AA4265D8226851076BD4130707D57C
:1053E000394A2169936823F4604343EAC103936017
:1053F000FFF7AAFF344B354A9B68C3F30313D35C12
:10540000D840334B1860334B1868FCF7BDFC0020C4
:10541000CEE7CAB21A701B6803F00F038B42C6D1E5
:10542000CEE7294B11F0040F1EBF9A6842F4E052F8
:105430009A600E0742BF9A6842F460429A609A6886
:10544000A06822F0F00202439A60BCE762681E4B3B
:10545000012A1CD11B6813F4003FA8D01A4EB36870
:1054600023F003031343B360FEF748FD41F288388D
:105470000746B368626803F00C03B3EB820FA4D055
:10548000FEF73CFDC01B4045F3D9032090E7911E79
:1054900001291B6802D813F0007FDEE713F0020F2A
:1054A000DBE7EAB21A701B6803F00F03AB427FF42C
:1054B0007EAF90E70449E0688B6823F4E053034330
:1054C0008B608BE7003C0240003802403444010806
:1054D000740000207C000020044B054A9B68C3F345
:1054E0008223D35C034A1068D840704700380240DA
:1054F0002C440108740000200F2303600B4B9A68B2
:1055000002F0030242609A6802F0F00282609A6838
:1055100002F4E052C2609B68DB0803F4E0530361CD
:10552000034B1B6803F00F030B6070470038024009
:10553000003C0240036813F0430FF7B5044640F007
:105540008880236813F00C0F45D08C4B8C4D0022C3
:105550001A67FEF7D3FC06462B68990000F1CB8052
:1055600021684A0715D5D4E90403D5F888201B061D
:1055700002F0E04243EA80131343C5F88830D5F8BF
:105580008C30226A23F4F853013A43EA0223C5F827
:105590008C300B0714D57A4AA369D2F88810206999
:1055A0001B0701F0706143EA80130B43C2F8883097
:1055B000D2F88C30616A23F440330B43C2F88C304C
:1055C0006E4B6F4E01221A67FEF798FC0546336852
:1055D0009F0040F197802368980634D500230193FB
:1055E000674B684D1A6C42F080521A641B6C03F0D2
:1055F00080530193019B2B6843F480732B60FEF76B
:105600007DFC06462B68D80540F183805C4DA26A7C
:105610002B6F13F4407340F08380A36A03F440724D
:10562000B2F5407F564A40F09E80916823F070406A
:1056300021F4F81120F4407001439160116FC3F31D
:105640000B030B4313672368DB0600F190800020F7
:105650004FE04A4B4A4E00229A66FEF74FFC054641
:1056600033681F013FD42168C80741BFD4E9012333
:105670001B0743EA8213C6F884308A0715D5404ACF
:10568000E368D2F8840065681B0600F0E04043EA56
:1056900085130343C2F88430D2F88C00E36920F00C
:1056A0001F00013B0343C2F88C304B060AD5E36868
:1056B00062681B0643EA8213A26843EA0273304A17
:1056C000C2F884302D4B2E4E01229A66FEF716FC4E
:1056D000054633681F013FF534AFFEF70FFC401B52
:1056E0000228F6D904E0FEF709FC401B0228B7D9CE
:1056F000032003B0F0BDFEF701FC801B02287FF6FB
:105700002BAFF5E7FEF7FAFB401B02287FF65FAFF1
:10571000EEE7FEF7F3FB801B02287FF673AFE7E7A7
:1057200002F4407293423FF478AF2B6F134A012189
:10573000C2F8401E23F440730021C2F8401E2B67BC
:105740002B6FD9077FF569AFFEF7D8FB41F2883799
:1057500006462B6F9A073FF560AFFEF7CFFB801B25
:10576000B842F6D9C4E7916821F4F81165E7064B11
:1057700094F82C20C3F8E02169E700BF00004742FD
:1057800000380240007000400010474238B50D4616
:105790000446C8B190F82C3003F0FF021BB980F822
:1057A0002D20FCF785FA022384F82C30211D206877
:1057B00000F0FEFC62682068294600F031FD0123FC
:1057C00084F82C30002038BD0120FCE770B590F83B
:1057D0002C30022B05460E46D8B212D000F0FB0446
:1057E000012C0FD1022385F82C30286800F04EFDE3
:1057F0003368022B06BF052385F82C3085F82C4032
:10580000002070BD0120FCE738B590F82C30022B49
:105810000446D8B20DD094F82C30012BDDB209D15A
:105820000223206884F82C3000F054FD84F82C50BA
:10583000002038BD0120FCE72DE9F3411C46164647
:105840000F460546FEF75AFB3444241AFEF756FB72
:10585000244B1B68C3F3CB336343804601932A6810
:10586000936837EA030301D000202EE0731CF7D0C1
:10587000FEF744FBA0EB0800A04229D32B685A682E
:1058800022F0E0025A606A68B2F5827F0AD1AA6803
:10589000B2F5004F02D0B2F5806F03D11A6822F042
:1058A00040021A60AA6AB2F5005F07D11A6822F4B2
:1058B00000521A601A6842F400521A60012385F8F7
:1058C0005130002385F85030032002B0BDE8F0814C
:1058D000019A019B002A03F1FF33019308BF14468C
:1058E000BDE700BF7400002038B513464268B2F52A
:1058F000827F044606D00A460121FFF79DFFB8B912
:10590000002038BD8268B2F5004F02D0B2F5806F3A
:1059100007D125682868B2F5806F20F04000286024
:1059200003D00A4680212046E7E70A460121FAE72C
:10593000636D43F0200363650320E2E737B5134648
:10594000124A1568124AB5FBF2F54FF47A725543C4
:1059500042680195B2F5827F04460BD10A46802148
:10596000FFF76AFF78B1636D43F02003636503209E
:1059700003B030BD019B33B1019B013B0193236810
:105980009B681B06F6D40020F2E700BF74000020DD
:1059900000366E0110B50446002855D0436A002B2E
:1059A0004ED14268B2F5827F00D0C3610023A3626A
:1059B00094F8513003F0FF0223B984F850202046B8
:1059C000FCF740F92168A068A269022384F85130ED
:1059D0000B6823F040030B60636800F4044003F499
:1059E00082730343E06800F400600343206900F021
:1059F00002000343606900F00100034302F40070F9
:105A00000343E06900F038000343206A00F080009F
:105A10000343A06A00F4005003430B60636A120C56
:105A200003F0100302F004021A434A60CB6923F426
:105A30000063CB6100200123606584F8513010BD04
:105A40000023C0E90433B1E70120F8E72DE9F7436B
:105A50001F4690F85030012B04460D46904600F04A
:105A6000A080012380F85030FEF748FA94F85130B6
:105A7000012B8146D8B240F09280002D61D0B8F160
:105A8000000F5ED0032384F8513000236365C4E91E
:105A90001033A4F83680A363A387E387A36826683E
:105AA0002563B3F5004FA4F8348007D1336823F0A1
:105AB00040033360336843F4804333603368E26803
:105AC0005B065EBF336843F040033360B2F5006F9E
:105AD00063683FD113B1B8F1010F07D135F8023B2C
