:020000040800F2
:1000000000000320210600082D2200082F220008EE
:1000100031220008332200083522000800000000C9
:10002000000000000000000000000000A15E0008C9
:100030003722000800000000315F00088D570008DB
:1000400071060008710600087106000871060008B4
:1000500071060008710600087106000871060008A4
:100060007106000871060008710600087106000894
:100070007106000871060008710600087106000884
:100080007106000871060008710600087106000874
:100090007106000871060008710600087106000864
:1000A0007106000871060008710600087106000854
:1000B0007106000871060008710600087106000844
:1000C0007106000871060008710600087106000834
:1000D0007106000871060008710600087106000824
:1000E0007106000871060008710600087106000814
:1000F0007106000871060008710600087106000804
:1001000071060008710600087106000871060008F3
:1001100071060008710600083922000871060008FF
:1001200071060008710600087106000871060008D3
:1001300071060008710600087106000871060008C3
:1001400071060008710600087106000871060008B3
:1001500071060008710600087106000871060008A3
:100160007106000871060008710600087106000893
:100170007106000871060008710600080000000002
:100180007106000871060008710600087106000873
:100190007106000871060008710600087106000863
:0C01A000452200087106000851220008EA
:1001B00010B5054C237833B9044B13B10448AFF3A1
:1001C00000800123237010BD800300200000000088
:1001D000B417020808B5034B1BB103490348AFF33A
:1001E000008008BD0000000084030020B41702084E
:1001F00001F0FF01102A2BDB10F0070F08D010F8D8
:10020000013B013A8B422DD010F0070F42B3F6D1DB
:10021000F0B441EA012141EA014122F007047FF0F4
:1002200000070023F0E80256083C85EA010586EA4B
:10023000010685FA47F5A3FA87F586FA47F6A5FA87
:1002400087F68EB9EED1F0BC01F0FF0102F0070293
:1002500032B110F8013B013A83EA010313B1F8D13E
:100260000020704701387047002D06BF354603381F
:10027000073815F0010F07D1013015F4807F02BF58
:10028000013015F4C03F0130F0BC0138704700BFA9
:100290007BB972B90029BEBF00204FF0004106E0D3
:1002A00008BF00281CBF6FF000414FF0FF3000F086
:1002B000B5B9ADF1080C6DE904CE002909DB002BBE
:1002C0001ADB00F04DF8DDF804E0DDE9022304B0AC
:1002D0007047404261EB4101002B1BDB00F040F80E
:1002E000DDF804E0DDE9022304B0404261EB4101A6
:1002F000524263EB43037047524263EB430300F007
:100300002FF8DDF804E0DDE9022304B0404261EBA0
:1003100041017047524263EB430300F021F8DDF8DE
:1003200004E0DDE9022304B0524263EB430370476B
:1003300053B94AB9002908BF00281CBF4FF0FF314C
:100340004FF0FF3000F06AB9ADF1080C6DE904CE52
:1003500000F006F8DDF804E0DDE9022304B07047A0
:100360002DE9F047089D0C46002B4ED194468C4554
:100370008646B2FA82F262D94AB1C2F120039140B4
:1003800020FA03F30CFA02FC194300FA02FE4FEACA
:100390001C471FFA8CF6B1FBF7F44FEA1E4307FB2C
:1003A000141143EA014304FB06F199420AD91CEBFC
:1003B000030304F1FF3080F01281994240F20F8173
:1003C000023C6344591A1FFA8EF3B1FBF7F007FBA6
:1003D000101143EA014300FB06F69E420AD91CEBCA
:1003E000030300F1FF3180F0FC809E4240F2F9806F
:1003F000634402389B1B40EA044000211DB1D340F6
:100400000022C5E90032BDE8F0878B4205D90DB165
:10041000C5E9000100210846F5E7B3FA83F1002998
:1004200046D1A34202D39042C0F0F080861A64EB1A
:1004300003030120002DE6D0C5E90063E3E7002AAD
:1004400040F09080A1EB0C044FEA1C481FFA8CF797
:100450000121B4FBF8F64FEA1E4308FB164443EAB9
:10046000044307FB06F0984208D91CEB030306F18E
:10047000FF3402D2984200F2CD8026461C1A1FFAA1
:100480008EF3B4FBF8F008FB104443EA044300FB8E
:1004900007F79F4208D91CEB030300F1FF3402D297
:1004A0009F4200F2B0802046DB1B40EA0640A5E7F1
:1004B000C1F120068B4022FA06F71F4320FA06FC02
:1004C00004FA01F343EA0C03F44000FA01F8380C93
:1004D0004FEA1349B4FBF0FE1FFA87FC00FB1E44F1
:1004E00049EA04440EFB0CF9A14502FA01F20AD9CB
:1004F0003C190EF1FF3A80F08480A14540F28180E2
:10050000AEF1020E3C44A4EB09041FFA83F9B4FBDC
:10051000F0F300FB134449EA044403FB0CFCA4453C
:1005200007D93C1903F1FF3067D2A44565D9023BD6
:100530003C4443EA0E40A0FB0293A4EB0C049C4213
:10054000CE469C4651D34ED055B1B8EB0E0364EB6A
:100550000C0404FA06F6CB401E43CC40C5E9006407
:10056000002150E7C2F1200320FA03F10CFA02FC4B
:1005700024FA03F394400C434FEA1C4800FA02FEAD
:100580001FFA8CF7B3FBF8F008FB1031230C43EA99
:10059000014300FB07F1994208D91CEB030300F16A
:1005A000FF362CD299422AD9023863445B1AA4B28E
:1005B000B3FBF8F108FB113344EA034401FB07F3F2
:1005C000A34208D91CEB040401F1FF3613D2A34265
:1005D00011D902396444E41A41EA004139E704467A
:1005E000F0E6084606E7C845AED2B9EB020E63EB6B
:1005F000070C0138A8E73146EDE7034699E7304696
:10060000D4E7D6467FE7634402384DE706462346E3
:1006100008460FE7023E634430E700BF704700BF63
:10062000DFF834D0002103E00C4B5B584350043119
:100630000B480C4B42189A42F6D30B4A02E00023B7
:1006400042F8043B094B9A42F9D302F0FDFD20F039
:1006500041FB01F079F870470000032060D80508DD
:10066000000000206401002080030020BC33012032
:10067000FEE7704708B500F0B7FDBDE8084000F0A0
:100680003BBD00F0B3BD704710B5042104461FF018
:10069000E8F8204610BD000038B50C4B0C4C188013
:1006A0000C4B822019806368984740F611039842EA
:1006B0000AD1094D23682C60822098472B6882203C
:1006C000DB689847002038BD0120FCE7A603002026
:1006D0004C000020A4030020A80300204FF4A071C8
:1006E000F020FFF7D9BF0000F7B5374D2B6804465F
:1006F0001B6982209847208000284ED02B680DF17E
:1007000006025B6901A982209847304B1B78002BB9
:100710004BD0BDF8063040F6746293423FD9ADF835
:100720000620BDF80630D21A92B20A2A42D90B230B
:10073000B2FBF3F2264B1B889A4201D9013B9AB2D5
:10074000BDF8043040F6B8318B4235D8C3F571633B
:100750000E339BB20F21B3FBF1F31E4909888B4284
:1007600001D901398BB21C4E1C4D30682F68834271
:1007700081B28CBF591AC91AB8B2BA428CBF101ACA
:10078000801A89B280B201440529C8BF336033683A
:10079000C8BF2A6063802B68A38003B0F0BDB32B71
:1007A0009CBFB423ADF80630BBE7BDF80620A2F528
:1007B000B472B9E70022C3E7C3F56D6308339BB297
:1007C0000E2BC7D80023CEE7A80300203C1600203C
:1007D000A4030020A6030020A00300209C03002007
:1007E00037B568460D461446FFF77EFFBDF800009A
:1007F00030B1BDF802302B60BDF804302360012019
:1008000003B030BD032821D8DFE800F0020B121935
:100810000F4B1A68B2FA82F2520904210D4802F015
:10082000A9BF0B4B5A68B2FA82F252090821F5E7C8
:10083000074B9A68B2FA82F252091021EEE7044B94
:10084000DA68B2FA82F252092021E7E7704700BF66
:10085000AC03002000100240032821D8DFE800F09C
:10086000020B12190F4B1A68003A18BF012204211B
:100870000D4802F07FBF0B4B5A68003A18BF0122A7
:100880000821F5E7074B9A68003A18BF01221021AA
:10089000EEE7044BDA68003A18BF01222021E7E7AF
:1008A000704700BFAC0300200010024003280DD8A1
:1008B000DFE800F00206080A0421054802F05FBFE5
:1008C0000821FAE71021F8E72021F6E7704700BF7A
:1008D0000010024008B5032811D8DFE800F0020A32
:1008E0000C0E0421074802F03FFF431E58425841B6
:1008F00008BD0821F6E71021F4E72021F2E70020E7
:10090000F3E700BF0010024070B5084D0024012637
:10091000E0B2FFF7DFFF18B12B68012B18BF2E6084
:100920000134052C05F10405F2D170BDAC030020A3
:10093000012380F8781080F87930704770470020E4
:1009400070470000034B4164003918BF0121197042
:10095000704700BF7B260120704700207047836BE3
:100960000BB10846184770474FF6FF707047406854
:1009700003689B6918477047704770477047704716
:1009800010B5044600F048FD23680349D3F89030C1
:100990002046BDE810401847000000D008B50368A5
:1009A0000446D3F88430984723682046DB6F984785
:1009B00000F0ECF8236820465B6F9847292001F08F
:1009C00055F900F0E3F8236820465B6F9847F8E795
:1009D00010B5044608F086F823682046D3F8BC30EA
:1009E000BDE81040184700F0F9BC00F0FDBC00F075
:1009F00031BD00F0CFBC00F041BD00F049BD00F0BA
:100A0000D3BC07F09DBA10B5842104461EF029FF1F
:100A1000204610BD10B590F8341090F878400C4B7B
:100A20008C421A7809D03AB90A4A0B4914880888C6
:100A300010800C8001221A7010BD002AFCD0054ADB
:100A400005491488088810800C800022F3E700BF55
:100A500074260120702601207226012070B50D46F3
:100A6000194635B9094B0A4A0A4840F2FF211FF0DE
:100A700081FEC0E90F52084B003A18BF01221A70DC
:100A80000368BDE87040D3F8903018472418020876
:100A90005C180208AA1802087A26012008B5094B3A
:100AA0001B888B4203D8084B1B88934205D9074B00
:100AB000074A0848A3211FF05DFE074B1980074B2A
:100AC0001A8008BD7026012072260120EF18020846
:100AD00052190208AA180208762601207826012059
:100AE000034690F87A0018B1586803681B681847E5
:100AF00070470000012108B50022084604F0DDFE21
:100B00000A4B186028B90A4B0A4A28210A481FF0E4
:100B100031FE00220421012004F077FF074B18600A
:100B200018B9074B034A2C21F0E708BDC003002089
:100B3000841A0208CD1A0208FC1A0208BC0300201D
:100B40003F1B0208024B4FF0FF31186804F0FFBE54
:100B5000C0030020014B186804F025BFC00300202B
:100B6000024B0021186804F0F2BE00BFC003002051
:100B7000FFF7F0BF03480449006800231A4604F059
:100B80007FBF00BFBC0300200400002013B5084C49
:100B900000231A4601A9206804F0A3FF20684FF043
:100BA000FF33002201A904F09CFF02B010BD00BF7A
:100BB000BC03002003685B6C184701207047036882
:100BC0009B6A1847FEE740F2EF307047054B036021
:100BD000054B4FF08062C3F88820BFF34F8FBFF3FF
:100BE0006F8F7047D41C020800E100E010B5044686
:100BF0004FF45A61FFF7EAFF20461EF032FE20460E
:100C000010BD000082B0002301930E4B1A6B42F41A
:100C100000021A631A6B02F400020192019A1A6927
:100C200042F400021A611A6922F400021A61064BAA
:100C3000064A1A61064A5A61064B4FF080629A6072
:100C400002B0704700380240D0170020A50E0008FF
:100C5000C50B000800E100E008B50A2809D8DFE864
:100C600000F006100E0808080810101010000220EE
:100C700008BD054B054A064890211FF07BFD00206A
:100C8000F6E70120F4E700BF811B02089C1B020865
:100C9000E71B020838B50C46887FFFF7DDFFA58A01
:100CA000E28A164B2169586342EA05425A64628B14
:100CB000D963521B1A642568082D0ED19A611A61F6
:100CC0005862207F0E4A42EA0062DA61E2681A62E4
:100CD0000C4A5961D9601A6038BD0022D8611A6186
:100CE000E1680A0A480902F4784200F4FC60024311
:100CF000C1F3C4010A439A63034AECE700B002401F
:100D000009000100012302000123030008B50B289C
:100D10000BD8DFE800F00612100A0A0A0A080808D1
:100D20000808022008BD0520FCE7054B054A0648D7
:100D30006F211FF01FFD0020F4E70120F2E700BF44
:100D4000811B0208281C0208E71B02082DE9F0415C
:100D500091F81D800C464046FFF7D8FFA77F054657
:100D60003846FFF7D3FF06463846FFF775FFA18ADE
:100D7000628B444B521A1A649A61228B521A1A617E
:100D8000E28A586342EA01425A6421696268D9637F
:100D9000DA602068802828D0227F0FD8202867D0EA
:100DA000402865D004281AD0364B45EA026545F440
:100DB0000035B845DD6161D0334A44E0B0F5807F4D
:100DC00004D0B0F5007FEFD1304800E0304840EA71
:100DD0000262DA61E2681A625E62596132E045EAF3
:100DE000026242F40032DA61F6E7A068021DDA62BC
:100DF000227F45EA026545F40035DD615E62596196
:100E0000017841B1012921D0224B234A23484FF4D4
:100E10008D711FF0AFFCDA69418822F47F420139FD
:100E200022F0100242EA0122DA610121154BDA694F
:100E300042F02002DA61DA699206FCD410229A604C
:100E40000029B9D0164A1A60BDE8F081B2F1FF015D
:100E5000DA69408822F47F4200F1FF3022F010026C
:100E600042EA002242F0100218BF0121DA61DDE7F8
:100E700045EA0262034B42F40032B4E742F2013227
:100E8000E1E700BF00B002400123010009000200B9
:100E90000A000200721C02088C1C0208E71B0208F0
:100EA00001230200024B1B68586803685B691847FE
:100EB0007C26012070B5044625460A4B0C300026DE
:100EC00060602672667245F8203B6022294607F072
:100ED0005FFF04F55A63EE6024359D42FBD1204646
:100EE00070BD00BFD41C0208034B1A68D207FCD4A3
:100EF00023229A60704700BF00B002407047000094
:100F000030B50F4C2568ED07FCD423250904A560F6
:100F100041F001010225FF2B65636164E0630AD0A3
:100F20000849656241EA0363E361074B226260613D
:100F3000E060236030BDE561039BA363034BF8E7EA
:100F400000B002400900010001000200010003009E
:100F500030B50E4C2568ED07FCD423251204A5609E
:100F600042F001020225FF2B65636264E063E160E9
:100F700008D01B0643F00213E361054B6562606114
:100F8000236030BD034BE3610123F9E700B0024069
:100F900001000200020002FF30B50B4C2568ED078E
:100FA000FCD4232512041B06A56043F4003302255C
:100FB00042F0010265636264E063E160E361034B58
:100FC00065626061236030BD00B002400100020034
:100FD000012070470C2070470C2303FB01000830F0
:100FE00070470C2303FB0100083070470120704755
:100FF0004FF4967070474FF4967303FB010008306E
:1010000070474FF4967303FB0100083070470120CE
:1010100070471020704700EB01100830704700EB5C
:10102000011008307047084601F004BB10B5034BAF
:101030000360044606F0D9FC204610BD8C1D020852
:1010400010B50446FFF7F2FF204614211EF009FCFC
:10105000204610BD10B5034B0360044606F0C5FCE6
:10106000204610BD581D020810B50446FFF7F2FFD8
:1010700020464FF49A711EF0F4FB204610BD00008C
:1010800010B5034B0360044606F0AFFC204610BDCC
:10109000241D020810B50446FFF7F2FF2046182170
:1010A0001EF0DFFB204610BD10B5084B0360044660
:1010B00000F5B070FFF7BAFF04F12C00FFF7CAFF8C
:1010C00004F11400FFF7DCFF204610BDC01D02082C
:1010D00008B50248FFF7E8FF08BD00BF9C120020DA
:1010E00010B50446FFF7E0FF20464FF435711EF0BF
:1010F000B8FB204610BD00002DE9F34101F01CF9BA
:10110000054601F01DF900240146234628462246E3
:1011100000940FF013FB274B274A1A60204601F07A
:10112000F1FC264D264B274A27489A600FF06EFAAD
:101130002B68BFF35B8FDB0735D428461EF093FB8B
:1011400088B3224C224B236004F5BC7604F11400D2
:1011500004F12C0804F5B0776060C4F80880E760FB
:10116000266106F043FC1B4B6361404606F03EFCE3
:10117000194BE362384606F039FC184BC4F860316D
:1011800004F5BA7001F034FD224604F5BA71304618
:1011900001F024FD304601F04DFA11481FF008FB24
:1011A00028461EF06CFB0F4802B0BDE8F041FFF787
:1011B000E7BB00BFE0260120480400209812002071
:1011C000680400204C040020080000209C1200202D
:1011D000C01D0208241D0208581D02088C1D0208AB
:1011E000D1100008C4030020704700000148FFF739
:1011F000D5BB00BFC403002070B5264E264C274D3A
:10120000274B23603046FFF755FE284614F09CFB21
:1012100024480DF00DFA244B2448DC6000224FF4E2
:101220008071C3E9121222491A86C3E91A122149B0
:1012300083F85820C3E91E011F49C3F880101F49D5
:101240001F480B60F021C3E90422C3E90622C3E969
:101250000822C3E90A22C3E90E22C3E91022C3E926
:101260001422C3E917225A6683F870205A67C3E92B
:10127000016501801348018013484FF4A07101807B
:101280001248018012490A70012283F83420114A61
:101290001A6070BDF404002094120020680400203D
:1012A000141802084C040020C403002000000101AF
:1012B00001000001000450001A0014007C260120E7
:1012C0007026012076260120722601207826012032
:1012D00074260120A01902080148FFF777BC00BF5F
:1012E000F40400200020704781807047C18070475F
:1012F0000181704741817047704770477047704760
:10130000704710B4C4880368121B84885B6D091B86
:1013100012B25DF8044B09B218474FF6FF73838190
:101320004FF0FF3303621368C36110607047002001
:1013300070478B88838001207047704780F82610A3
:10134000704790F82600704710B50022B1F90840A8
:10135000B1F90A10028042808480C18010BD002251
:10136000028042808280C28070470177704780EDA2
:10137000080A704780F82410704780F825107047DD
:1013800001207047983070478C3070478430704728
:1013900070470000034B902283F85A2383F85823A8
:1013A000704700BF00E100E0094A0A49D3680A48D3
:1013B000C3F30A03013B9BB20B801169C1F30A011D
:1013C000013901801364536B43F001035363704789
:1013D000006801407215002070150020014BD3F801
:1013E000AC00704700680140024B0122C3F8AC100A
:1013F0005A627047006801407047704710B52C2151
:1014000004461EF02EFA204610BD10B5BC2104463D
:101410001EF027FA204610BD70B5044606F0E5FD23
:1014200023689D6E0BF09CFE01462046A84723686A
:10143000054AD3F88C502046AC460023BDE87040E6
:10144000A2F51631604700BF00B004D006F0B4BD6D
:1014500006F0BEBD06F07ABD06F0E9BE90F8252084
:1014600012B103685B691847704790F825201AB1DC
:1014700090F8242002B1186070470000034B4FF031
:1014800080629A604FF080729A60704700E100E0DD
:10149000084B4FF08062C3F88820BFF34F8FBFF333
:1014A0006F8F4FF08072C3F88820BFF34F8FBFF368
:1014B0006F8F704700E100E070B50023124E83800B
:1014C000124B0360336893F8582005460AB1D86C74
:1014D00000B998680368DB6A98473368B0FA80F40B
:1014E000D86C640930B10368DB6A9847002808BFEC
:1014F00044F001042CB9064B064A07482C211FF082
:1015000039F9284670BD00BF7C260120D01E020894
:10151000CC1D02082A1E0208631E020870B5254E63
:101520003568BFF35B8F15F0010540D130461EF0E2
:101530009AF900283BD0204C204B256104F134005F
:10154000C4E90035C4E90255E584A562A5850DF01E
:1015500054FB04F1580009F0CFF8194BA36520465D
:10156000184B40F8843BFFF7A7FF174BC4F88430B3
:101570002433C4F88C304FF4C803C4E92835002361
:10158000C4F8AC30C4F8B030C4F8B430C4F8B830E3
:101590000E480F4BC4F89050C4F89C50C4F8A850A3
:1015A000C4F898301FF004F930461EF068F902487C
:1015B00070BD00BF7415002078150020A428020813
:1015C000F01E0208681F020858280208911300083C
:1015D0003828020838B5184C23685BB3174B184AF3
:1015E0001B6C11888B4216D1164B198802F0D4FE61
:1015F000236893F86A200025013283F86A2083F873
:101600007C50FFF7B7FA206807F06CFA2846BDE86F
:101610003840FFF7F7B802F0BFFE24682368204681
:101620001B6A9847012384F87C300020BDE83840CD
:10163000FFF712B938BD00BF7C26012000680140C9
:10164000721500207015002007B5064BADF8060096
:101650001B68054801220DF1060103F03DFC03B0B3
:101660005DF804FB0C0000207C16002037B50D4D02
:101670000D4C0121284602F077F801280ED1206890
:1016800004F05FFA012809D850238DF8073020684C
:101690000A2300220DF1070104F0F2F9012004F001
:1016A00000F9E6E7000002403816002030B595B09A
:1016B000102200210AA81FF064FA1422002103A8B6
:1016C0001FF05FFA00241E4B01941A6C42F0805206
:1016D0001A641B6C03F080530193019B194B029415
:1016E0001A6842F440421A601B6803F440430293B4
:1016F0000122029B4FF48033CDE9082302254FF4E9
:1017000080030821CDE90E534FF4B473CDE91013D3
:1017100008A804231393129502F096FE02F05AFED5
:101720000F23CDE903354FF4A0504FF48053CDE99A
:101730000603052103A8059403F062F815B030BD37
:10174000003802400070004080B59AB001F08AFD78
:10175000FFF7ACFF142200210DA81FF012FA00249D
:10176000C94B00941A6BC948C94DDFF8608342F039
:1017700010021A631A6B02F010020092009A019490
:101780001A6B42F020021A631A6B02F020020192D7
:10179000019A02941A6B42F080021A631A6B02F0EB
:1017A00080020292029A03941A6B42F004021A63B6
:1017B0001A6B02F004020392039A04941A6B42F02B
:1017C00001021A631A6B02F001020492049A059452
:1017D0001A6B42F002021A631A6B02F002020592BF
:1017E000059A06941A6B42F040021A631A6B02F0D3
:1017F00040020692069A07941A6B42F008021A6396
:101800001B6B03F00803224607933C21079B01F062
:10181000B1FFA0480122022101F0ACFF22469D4801
:10182000042101F0A7FF22469B484FF4405101F0EC
:10183000A1FF01263C23CDE90D3694480F940323E4
:101840000DA90227109301F0ABFE92480DA9CDE936
:101850000D76CDE90F4401F0A3FE04238D480DA9B8
:10186000CDE90D36CDE90F4701F09AFE4FF4405314
:1018700089480DA9CDE90D36CDE90F4701F090FE5D
:101880004FF4C04385480DA9CDE90D36CDE90F478A
:1018900001F086FE0DA982480F97CDE90D6401F095
:1018A0007FFE8048804B036001F06EFDDFF820E290
:1018B0007E4B2C62C5E900E328464FF48043C5E91E
:1018C0000434C5E90244C5E9064402F061F9102177
:1018D000284602F0A5FB21462846754D02F0BFFBC5
:1018E0004FF48273C5E900834FF400791823C5E9EA
:1018F000069328460A23C5E90244C5E90444C5E91C
:101900000844AC62EB6203F08BFA8F23224639461F
:1019100060488DF824308DF8344001F02BFF3246BA
:101920004FF47A7309A9284603F0D6FA4FF47A7374
:1019300032460DA9284603F07BFC3246394655480D
:101940005C4D01F017FF9DF83430D32B04BF5A4B88
:101950001E705A4B0126C5E9003610224023002490
:10196000C5E904234FF4C073C5E906344FF400639E
:10197000C5E908344FF4005302274FF00409AB6265
:101980004FF0030A07230DA92846CDE90D73CDE9D1
:101990000F934FF00808C5E90249CDE911A7139745
:1019A00003F022F94FF6FF7209A92846CDE90A860D
:1019B000089409960C9403F037F9304601F07EFC48
:1019C0004FF6FF7209A92846CDE90978CDE90B64E5
:1019D00003F02AF94FF6FF7209A92846CDE909A8B4
:1019E000CDE90B9403F020F94FF40C730893089B96
:1019F0000C934FF6FF7209A92846CDE909980B967A
:101A000003F012F940F26A51284603F02BF9342210
:101A10000DEB020021461FF0B4F8294D294B2C6133
:101A2000C5E900340923C5E905361D23C5E9073A90
:101A300040F20D1140F24313C5E9091340F21710AB
:101A400040F24713C5E90B032846C5E90244AC86BA
:101A500085F8364002F0A8FBFF214FF4806CF0229D
:101A6000CDE912140521CDE914C14FF4A0730DA9DD
:101A7000CDE90E24CDE9164228462246124D189390
:101A8000CDE9103726E000BF0038024000100240C8
:101A90007C17002000080240000C024000180240A1
:101AA000000002401018002000300240A086010013
:101AB0007C160020481600203C160020400100A0A3
:101AC000D416002000680140341600200050014068
:101AD000005C00400D94ADF864408DF8664002F063
:101AE0002EFC1B4B2B601B6898472B68194DDB683D
:101AF0009847194B2846C5E90034C5E90274C5E981
:101B00000A47C5E90C4401F04FFC3146284601F074
:101B100003FDFEF7AFFDFEF7ACFD03F045FE0F4AF7
:101B20003146404603F071FF0D4B0E4A18602146C6
:101B30000D4803F06FFE0D4B0D4A186021460D480D
:101B400003F068FE0C4B186003F040FEFEE700BF98
:101B500014000020D017002000B00240C81F020867
:101B600038160020042002086D16000844160020D4
:101B7000E01F0208830600084016002070477047E7
:101B80007FB5094B8DF817201B6802930DF11702E2
:101B90000123009201930A460146044802F0A0F88E
:101BA00007B05DF804FB00BF100000207C17002088
:101BB0007FB500238DF81730084B1B6802930A4647
:101BC00001230DF11701009101930146044802F031
:101BD00017F99DF8170007B05DF804FB100000200E
:101BE0007C1700201FB5084C24680092CDE9013411
:101BF0000A4601230146054802F002F9003818BFE1
:101C0000012004B010BD00BF100000207C17002090
:101C100001F054BB10B5064C00222046042101F00F
:101C2000A9FD20460122BDE81040042101F0A2BD1B
:101C30000008024038B50B4D044601220A484FF413
:101C4000005101F097FD00220421284601F092FD89
:101C50002046FFF7F9FC28460122BDE83840042160
:101C600001F088BD00080240000C024038B50B4D61
:101C7000044600220A484FF4005101F07BFD002287
:101C80000421284601F076FD2046FFF7DDFC2846BA
:101C90000122BDE83840042101F06CBD000802407B
:101CA000000C0240F7B5144E144F05460C46304662
:101CB0000022042101F05EFD00224FF4005138465D
:101CC00001F058FD2846FFF7BFFC0D4B0D481B687F
:101CD000224601A903F0ACFA384601224FF4005124
:101CE000019C01F047FD30460122042101F042FD34
:101CF000204603B0F0BD00BF00080240000C0240C7
:101D00000C0000207C16002001F0D8BA0268034BBA
:101D10009A4201D101F0C0BA704700BF00100040E4
:101D20007047000082B00E4B00220092596C41F4C3
:101D300080415964596C01F48041009100990192ED
:101D4000196C41F0805119641B6C03F080530193AE
:101D5000019B0F216FF0010002B001F0D5BA00BF66
:101D6000003802400268094B9A4282B00BD100232E
:101D70000193074B1A6B42F480521A631B6B03F4F6
:101D800080530193019B02B0704700BF00300240B6
:101D90000038024007B50F4B02689A4216D1002264
:101DA000A3F5F0430192196B41F4000119631B6B19
:101DB00003F40003019305215A20019B01F0A4FACA
:101DC0005A2003B05DF804EB01F0D0BA03B05DF81F
:101DD00004FB00BF00B002402DE9F043044689B087
:101DE0001422002103A81EF0CCFE2268244B9A4244
:101DF00043D1244C244800250095236B43F0040371
:101E00002363236B03F004030093009B0195236B72
:101E100043F001032363236B03F001030193019B50
:101E20004FF012094FF400734FF001080327042606
:101E300003A9CDE90339CDE90587079601F0B0FB89
:101E40004FF480731148079603A9CDE90339CDE912
:101E5000058701F0A5FB0295236C43F4000323647E
:101E6000236C03F400030293029B236A43F40003F0
:101E70002362236A23F40003236209B0BDE8F083E0
:101E8000005C0040003802400008024000000240B0
:101E9000F0B599B004461422002107A81EF071FE87
:101EA00030220DEB020000211EF06BFE22685E4B1B
:101EB0009A4240F0B78008230C93C0231093042368
:101EC00012930CA84FF40033159302F061FD08B192
:101ED000FFF726FF554B5648002400945A6C42F0F9
:101EE00080625A645A6C02F080620092009A0194F7
:101EF0001A6B42F020021A631A6B02F02002019260
:101F0000019A02941A6B42F001021A631A6B02F0F2
:101F100001020292029A03941A6B42F002021A63BF
:101F20001A6B02F002020392039A04941A6B42F0B5
:101F300040021A631A6B02F040020492049A05945C
:101F40001A6B42F004021A631A6B02F00402059243
:101F5000059A06941A6B42F008021A631B6B03F091
:101F60000803069302250E26069B0B964FF480630A
:101F700007A9CDE90735CDE9094501F011FB41F687
:101F800058032C480B9607A9CDE907350927CDE959
:101F9000094501F005FB032327480B9707A9CDE965
:101FA0000735CDE9094501F0FBFA4FF4706322488B
:101FB0000B9607A9CDE90735CDE9094501F0F0FAFF
:101FC0004FF40C631D480B9607A9CDE90735CDE901
:101FD000094501F0E5FAC02319480B9607A9CDE998
:101FE0000735CDE9094501F0DBFA082315480B96C2
:101FF00007A9CDE90735CDE9094501F0D1FA4FF43C
:10200000A0530E480B9707A9CDE90735CDE909453F
:1020100001F0C6FA58202246052101F075F9582032
:1020200001F0A4F919B0F0BD006801400038024089
:102030000014024000000240000402400018024068
:1020400000080240000C024010B5044688B014227B
:10205000002103A81EF095FD2268144B9A4223D15B
:1020600003F56843002101915A6C114842F4801233
:102070005A645A6C02F480120192019A02911A6B0E
:1020800042F020021A631B6B03F020030293029BB1
:102090004FF4607202230321CDE903230523CDE928
:1020A000061303A901F07CFA08B010BD00500140EE
:1020B000001402402DE9F04186B0002303932B4B1E
:1020C0001C68002C4FD14FF00108C3F80080284B4A
:1020D00000949A6B274842EA08029A639B6B03EAD2
:1020E00008030093022703260C25009B01A94FF645
:1020F0003F03CDE90137CDE9046501F051FA1E48EF
:10210000059501A9CDE90187CDE9034601F048FA1B
:1021100048F233131948059501A9CDE90137CDE9F6
:10212000034601F03DFA4FF683731548059501A962
:10213000CDE90137CDE9034601F032FA4CF20373E1
:102140001048059501A9CDE90137CDE9034601F015
:1021500027FA60230C48059501A9CDE90137CDE99F
:10216000034601F01DFA06B0BDE8F0811818002002
:1021700000380240001402400008024000180240EB
:1021800000100240000C02400004024070B588B00C
:1021900000230293204B1A6C42F010021A641B6C4D
:1021A00003F010030293054601A903A8029B02F065
:1021B000D1FB069B4BBB02F0BDFB184E184B3360A6
:1021C00040F2E733F360174BB0FBF3F3013B73606E
:1021D000304600233361B360B36103F00DFA044667
:1021E00080B9304603F0CAF8044658B9362001F0E9
:1021F000BDF80F2D0DD822462946362001F084F86F
:10220000094B1D60204608B070BD02F093FB4000F2
:10221000D3E70124F6E700BF003802401C18002075
:102220000010004040420F007C0000207047FEE795
:10223000FEE7FEE7FEE77047014803F0DDB800BFA8
:102240001C180020014802F01DB800BFD416002061
:10225000014801F0D7B800BFD01700200120704717
:1022600008B51EF031FD162303604FF0FF3008BDA6
:1022700008B51EF029FD16230360FEE770B50D4674
:1022800014460E46731B9C4201DC204670BDAFF322
:10229000008006F8010BF5E770B50D4614460E46B2
:1022A000731B9C4201DC204670BD16F8010BAFF396
:1022B0000080F5E74FF0FF3070474FF400534B605C
:1022C0000020704701207047002070470A4A1168BB
:1022D00008B5034609B90949116010686946034405
:1022E0008B4206D91EF0F0FC0C2303604FF0FF3048
:1022F00008BD1360FCE700BF64180020C033012054
:10230000704710B5042104461DF0ABFA204610BDFD
:10231000012908B506D0022908D059B900F030FCCF
:10232000006808BD00F02CFC4068FAE700F028FCCB
:102330008068F6E70020F4E7004870473C20020878
:102340000220704713B5002451B1036801948DF841
:10235000034001AA9C680DF10303A04702B010BD21
:102360000846FBE7C0897047008A7047C0887047FD
:1023700080887047807A00F07F007047807AC009BB
:1023800070470020704700009FED010A704700BFB2
:10239000000000007047704700F5987308684968AE
:1023A00003C3704770477047416070477047000033
:1023B000064BC0F84C310023C0F8503100F5A27331
:1023C000C0F84801C0F84031704700BF71240008D0
:1023D0000123037270477047704710B4C2684168A8
:1023E0005410034601EB6200D20748BF0A599B68AC
:1023F0005DF8044B48BFD35818470346406830B1D6
:102400009A681AB9D86800F0010070470120704737
:1024100010B50C2104461DF024FA204610BD10B55D
:10242000102104461DF01DFA204610BD10B54FF4D2
:10243000AE7104461DF015FA204610BD10B50AF025
:102440008FFE0368BDE81040DB6B184710B50446EB
:10245000D0F8400158B10368DB68984738B1D4F828
:10246000400103689B6898470023C4F8403110BDC1
:102470002DE9F14FD0E9556A0746B06803681B6A39
:102480009847B0F5967F05D2444B454AA32145486D
:102490001EF070F9706803681B6A98470F2803D80C
:1024A000414B3F4AA421F2E7F06803681B6A984752
:1024B0000B2803D83D4B3A4AA521E8E70AF050FE25
:1024C000DFF8F09004300AF070FED9F8000010B187
:1024D0000368DB689847D9F8000010B103681B68EF
:1024E0009847DFF8D480D8F8000010B103685B6922
:1024F0009847D7F83C0110B103685B689847D8F853
:10250000000010B103681B689847D7F83C0110B170
:1025100003689B689847F068036800215B6A9847E6
:102520004FF0000B224BC0F804B0044680F808B00E
:102530000360B068036859465B6A9847054600F037
:102540008BFB7068036859465B6A984729460646C4
:1025500000F060FB331DC7F83C61C9F80040C8F8C3
:102560000050CAF800302B68C6F808A02846DB687F
:10257000EE639847336830461B68984721462846E3
:102580000CF0C0FF236820461B69984723685B69ED
:10259000204601B0BDE8F04F184700BF6420020894
:1025A000F2200208C42102080B220208AE2202080F
:1025B000C8230208C4260120C0260120044B1B6842
:1025C00093F858200AB1D86C00B99868704700BFDA
:1025D0007C26012070B504460D4616460AF082FEA0
:1025E000104A1460104A2260104A0023C4E95123A3
:1025F000C4E95333C4E94F330D4B18680368012114
:102600009B68C4E955659847FFF7D8FF15F045F872
:10261000FFF7D4FF15F0BCF8FFF7D0FF15F0C4F8B2
:10262000204670BDD0260120742302085C230208D6
:102630007C260120064BC0F84C310023C0F85031F5
:1026400000F5A273C0F84801C0F84031704700BFE0
:1026500071240008406A7047806A704770478A8812
:102660000B8810B5D20A4C88C1699BB251F8220080
:1026700043EA0443184410BD10B50446BAB1107BB8
:1026800068B1537BD27A1B0203F4E0631A43236AD6
:1026900003EB82031A888A4202D193F9020010BD2B
:1026A00005D8013880B204330028F3D1F7E70020C1
:1026B000F5E710B52C2104461DF0D3F8204610BDD7
:1026C00030B58BB00446BDF860500895BDF85C503D
:1026D00007959DF8505006959DF84C5005959DF82E
:1026E000485004959DF8445003959DF8405002953C
:1026F0009DF83C500195BDF8385000950CF03AFB20
:10270000064B2360159BE361169B2362199B636252
:102710001A9BA36220460BB030BD00BFEC23020819
:10272000704770477047704770477047704710B5E3
:102730004FF4947104461DF094F8204610BD70B516
:10274000036804461B6B15469847236829462046B4
:102750005B6BBDE8704018472DE9F74304462746F8
:102760000CF024FD0025534BE56347F8403B524BEA
:102770002566C4E910354FF4807304F16C084FF6F8
:10278000FF79FF22A4F86430A4F890304B4BE36645
:1027900004F1980684F86620A4F8929084F8949046
:1027A00001A94046C4E91255C4E91455C4E91655B7
:1027B000C4E91C55C4E91E55C4E92055C4E9225595
:1027C000A566ADF8049008F05EFD01A93046ADF8AD
:1027D000049008F07FF82A4629463846FFF7AFFFF5
:1027E0003846F021FEF784FD38464FF4A071FEF71D
:1027F00081FD04F104094FF07F43A3663946484642
:1028000005F008F9282229464046FFF798FF01A95C
:102810004046ADF8045008F036FD4146484605F004
:10282000F9F8282229463046FFF789FF01A901233C
:102830003046ADF8043008F0EFF94FF0F013C4F86B
:10284000A0301F4BC4F8C4301E4BC4F8C83030460B
:1028500008F08CF8DFF878801B4FB7EE000A30469E
:1028600008F0EBF93046C4F8F08008F07FF8304605
:10287000C4F8DC70C4F8E070C4F8E48008F076F8BE
:102880003046C4F8E870C4F8EC7008F06FF89FEDBB
:102890000F1A3046F0EE410AB0EE410A08F0C5F9D1
:1028A000484684F8C150314605F0B4F8204603B0DC
:1028B000BDE8F083542402087C2A0208E42A0208B6
:1028C0000000DC42000006420000F0420000000070
:1028D00000007A447047000030B5164D2C68BFF3F5
:1028E0005B8F14F001048FB020D128461CF0BBFF91
:1028F000E0B13F230993104B0893104B1049114846
:102900000A940122CDE906430423CDE903320A23C8
:102910000093CDE90B44CDE901440594FFF7D0FEC7
:1029200009481DF045FF28461CF0A9FF05480FB0D7
:1029300030BD00BF68180020C4350208D035020839
:10294000943502086C180020D52800087047000054
:1029500030B5164D2C68BFF35B8F14F001048FB0B7
:1029600020D128461CF07FFFE0B13F230993104B94
:102970000893104B104911480A940122CDE90643EF
:102980000423CDE9033214230093CDE90B44CDE9B0
:1029900001440594FFF794FE09481DF009FF2846FD
:1029A0001CF06DFF05480FB030BD00BF9818002027
:1029B000C8350208D4350208A43502089C18002046
:1029C0004D2900087047000030B5164D2C68BFF344
:1029D0005B8F14F001048FB020D128461CF043FF18
:1029E000E0B13F230993104B0893104B1049114855
:1029F0000A940122CDE906430423CDE903322823BA
:102A00000093CDE90B44CDE901440594FFF758FE4E
:102A100009481DF0CDFE28461CF031FF05480FB0D7
:102A200030BD00BFC8180020CC350208D8350208D8
:102A3000B4350208CC180020C529000800207047D2
:102A4000002070470EB403B503AB002153F8042BEC
:102A500001930BF00DFC02B05DF804EB03B070477E
:102A60000CB407B504AB53F8042B01930BF000FC36
:102A700003B05DF804EB02B070470000436C10B582
:102A8000044673B3038F2BB9184B194AC521194853
:102A90001DF070FEC38E00EB43035B8C0BB30DF097
:102AA00024FA238F012B03D8134B144ACB21EEE7D2
:102AB000E28E531C9BB2092B194688BFA3F10A0171
:102AC00004EB410140F63F10498C814209D10A2BA9
:102AD00004EB420228BF002304EB4303508C5884CC
:102AE00051842046BDE810400DF002B98024020850
:102AF00089240208342502087E2502088C25020854
:102B00000DF0BDB838B518BB124B13481C681349FB
:102B1000B4B1226822440260626822440A60A2685A
:102B200014440F4B00221A8000F02AF8054600F0EA
:102B300025F80C4B1C600C4B1D600C4B188007E0FB
:102B40000B4B03600B4B0B600B4B1C68002CE8D14C
:102B500038BD00BF04190020FC180020F818002020
:102B600000190020D4260120DC260120D8260120CF
:102B7000E0350208DC350208E43502080020704721
:102B8000004870470819002010B5FFF7E1FE044C1B
:102B90002060FFF719FF6060FFF79EFEA06010BD88
:102BA0000819002010B5002404600C6014601C603B
:102BB00010BD704710B54FF4AE7104461CF051FEC5
:102BC000204610BD10B50446D0F8580100F013F8A7
:102BD0002046BDE810400AF045BB000010B5044691
:102BE000FFF7F8FC014B2360204610BD6826020861
:102BF0000022026070477047704704387047704782
:102C000010B5102104461CF02CFE204610BDA0F18A
:102C10000400F5E700228260024A02601832426036
:102C2000C1607047BC2602087047000010B5034B16
:102C300003600446FFF779FD204610BDE426020834
:102C400010B50446FFF7F2FF20464FF496711CF0D2
:102C500008FE204610BD000010B50446FFF77CFDBD
:102C6000034B23600023C4F82831204610BD00BF69
:102C7000E4260208FFF75ABDF7B5054602F0C0FD8D
:102C8000C5F82801044602F0C2FD1C4F064638680C
:102C900002F057FF00228DF8072068B34FF0FF3392
:102CA00038680DF1070102F01CFF9DF80730502B2A
:102CB00022D1B4FBF6F43C23B4FBF3F203FB124342
:102CC00007EE903AF8EEE77AB1EE087A67EE877A87
:102CD0009FED0B7A9FED0B1AD5ED340A95ED330A73
:102CE00067EE877A05F19807384687EE811A07F074
:102CF000ABFD38460BF0E6FB03B0F0BD3816002004
:102D0000D00F494000003443F02070474FF4A070CA
:102D100070472920FEF7AABF2820FEF7A7BF08B5F5
:102D2000FEF778FFCA20FEF7A1FFC320FEF782FF5F
:102D30000820FEF77FFF5020FEF77CFFCF20FEF734
:102D400095FF0020FEF776FFC120FEF773FF3020CD
:102D5000FEF770FFED20FEF789FF6420FEF76AFFA3
:102D60000320FEF767FF1220FEF764FF8120FEF7C5
:102D700061FFE820FEF77AFF8520FEF75BFF002069
:102D8000FEF758FF7820FEF755FFCB20FEF76EFFC9
:102D90003920FEF74FFF2C20FEF74CFF0020FEF7F6
:102DA00049FF3420FEF746FF0220FEF743FFF720DD
:102DB000FEF75CFF2020FEF73DFFEA20FEF756FFFE
:102DC0000020FEF737FF0020FEF734FFB120FEF7AA
:102DD0004DFF0020FEF72EFF1B20FEF72BFFB62035
:102DE000FEF744FF0A20FEF725FFA220FEF722FF90
:102DF000C020FEF73BFF1020FEF71CFFC120FEF7AE
:102E000035FF1020FEF716FFC520FEF72FFF4520E7
:102E1000FEF710FF1520FEF70DFFC720FEF726FF77
:102E20009020FEF707FF3620FEF720FFC820FEF7B0
:102E300001FFF220FEF71AFF0020FEF7FBFEB02094
:102E4000FEF714FFC220FEF7F5FEB620FEF70EFFD8
:102E50000A20FEF7EFFEA720FEF7ECFE2720FEF784
:102E6000E9FE0420FEF7E6FE2A20FEF7FFFE002022
:102E7000FEF7E0FE0020FEF7DDFE0020FEF7DAFEA2
:102E8000EF20FEF7D7FE2B20FEF7F0FE0020FEF726
:102E9000D1FE0020FEF7CEFE0120FEF7CBFE3F2044
:102EA000FEF7C8FEF620FEF7E1FE0120FEF7C2FEA7
:102EB0000020FEF7BFFE0620FEF7BCFE2C20FEF72A
:102EC000D5FEC820FEF720FF2620FEF7CFFE01200A
:102ED000FEF7B0FEE020FEF7C9FE0F20FEF7AAFEC7
:102EE0002920FEF7A7FE2420FEF7A4FE0C20FEF703
:102EF000A1FE0E20FEF79EFE0920FEF79BFE4E204F
:102F0000FEF798FE7820FEF795FE3C20FEF792FE35
:102F10000920FEF78FFE1320FEF78CFE0520FEF73A
:102F200089FE1720FEF786FE1120FEF783FE0020A3
:102F3000FEF780FEE120FEF799FE0020FEF77AFE04
:102F40001620FEF777FE1B20FEF774FE0420FEF726
:102F500071FE1120FEF76EFE0720FEF76BFE31209A
:102F6000FEF768FE3320FEF765FE4220FEF762FEA4
:102F70000520FEF75FFE0C20FEF75CFE0A20FEF740
:102F800059FE2820FEF756FE2F20FEF753FE0F2095
:102F9000FEF750FE1120FEF769FEC820FEF7B4FED2
:102FA0002920FEF763FEBDE808402C20FEF75EBE38
:102FB00008B5FEF72FFE0321D320FEF773FE80B283
:102FC00008BD10B5C4B2022203212046FEF7D8FD89
:102FD0000A20FEF71DFE204600220321FEF7D0FD49
:102FE000BDE810400220FEF713BE38B50446E4B237
:102FF000FEF7C4FD00212046FEF7DAFD012105465B
:103000002046FEF7D5FD40EA052080B238BD10B558
:10301000C4B240212046FEF7CBFD030607D54C2164
:103020002046FEF7C5FD003818BF012010BD012263
:103030004B212046FEF7A4FD204600224B21FEF73F
:103040009FFD0020F2E773B50423C4B20E46154677
:10305000D7210DEB03022046FEF7C4FD019B1BBAEE
:103060001A0DC3F30B23328020462B8001224B2103
:10307000FEF786FD00224B212046FEF781FD02B0BF
:1030800070BD000010B50A4A1378984204460DD06E
:10309000517888420AD00BB141B90123D454FEF7CC
:1030A0006DFD2046BDE81040FFF78BBF10BD00BF8F
:1030B0001419002010B5C4B209212046FEF778FD8E
:1030C00040F00102D2B220460921BDE81040FEF7CF
:1030D00057BD10B5C4B209212046FEF769FD09218C
:1030E00000F0FE022046BDE81040FEF749BD38B5AD
:1030F000C4B20D4620460A21FEF75AFD40EA0502F9
:10310000D2B220460A21BDE83840FEF739BD10B5DD
:103110000446FEF734FD20461F21FFF7E8FF204656
:10312000BDE81040FFF7C6BF38B5C4B20D46204613
:103130000A21FEF73DFD20EA0502D2B220460A210F
:10314000BDE83840FEF71CBD10B50446FFF7C1FFCF
:1031500020461F21BDE81040FFF7E6BF10B5C0B202
:103160000C460B21FEF724FD204010BD1F21FFF768
:10317000F5BF0A46C0B20B21FEF702BD1F21FFF7C3
:10318000F8BF38B5C4B20D4620461721FEF710FD32
:1031900020EA0502D2B220461721BDE83840FEF7EA
:1031A000EFBC70B5C4B2064604212046FEF700FD10
:1031B000042100F0FB0205462046FEF7E1FC304604
:1031C000F021FFF7DEFF05F0F80220460421FEF7AC
:1031D000D7FC492220212046FEF7D2FC0220FEF730
:1031E00017FD204601222121FEF7CAFC20469A2223
:1031F0004121FEF7C5FC204601224A21FEF7C0FC12
:10320000204601224B21FEF7BBFC204600224B2129
:10321000FEF7B6FC204601225621FEF7B1FC2046FF
:1032200001225821FEF7ACFC204601224021FEF786
:10323000A7FC2046FF220B21FEF7A2FCBDE8704050
:103240000220FEF7E5BC0000054BD3F8882042F4CD
:103250007002C3F888204FF000629A60704700BF88
:1032600000ED00E008B50B4B1A6842F400721A60DA
:103270001A6842F480621A601A6842F480721A6016
:10328000032000F02FF80020FEF780FFFEF74AFD34
:10329000002008BD003C0240034A044B11681B7823
:1032A0000B441360704700BF1819002078000020FD
:1032B000014B1868704700BF1819002038B5044644
:1032C000FFF7F6FF631C1CBF054B1B78054618BFB4
:1032D000E418FFF7EDFF431BA342FAD338BD00BF4C
:1032E000780000200749CA6822F4E0620302120451
:1032F00003F4E063120C134343F0BF6343F4003361
:10330000CB60704700ED00E0164B30B5DC68C4F3CD
:103310000224C4F10703251D042B28BF0423062D16
:103320004FF0FF358CBF033C002405FA03F321EA7C
:103330000303A54022EA0502A340002843EA020352
:10334000ACBF00F16040084A4FEA0313B8BF00F079
:103350000F00DBB2AABF00F56140135480F80033C0
:1033600030BD00BF00ED00E014ED00E0002807DBF9
:10337000044A4109012300F01F00834042F8213034
:10338000704700BF00E100E010B5044650B143793A
:1033900003F0FF0213B90271FEF7E4FC012363712D
:1033A000002010BD0120FCE710B5044630B390F8B2
:1033B000393003F0FF021BB980F83820FEF7EAFC31
:1033C00022686168022384F83930136823F440339B
:1033D0000B431360536BA16823F007030B43536344
:1033E000136CE16823F47F5323F03F030B43136412
:1033F00000200123E06384F8393010BD0120FCE790
:1034000070477047036870B55E681D68F207044630
:1034100014D5E90512D51A6822F480721A60C26BBD
:1034200042F00102C26301229A60042380F839301D
:10343000002380F83830436903B19847B20616D5A7
:10344000AB0414D523681A6822F400521A602022B3
:103450009A60E36B43F00203E363042384F839309A
:10346000002384F8383063690BB120469847300751
:1034700016D5290514D523681A6822F400621A604B
:1034800008229A60E36B43F00403E363042384F8A7
:103490003930002384F8383063690BB120469847EF
:1034A00072070BD56B0509D523681A6822F4806270
:1034B0001A6004229A602046FFF7A2FFB00714D5D5
:1034C000A90512D523681A6822F400721A60022234
:1034D0009A60E36BE363012384F83930002384F8B6
:1034E000383023690BB120469847F20613D5EB0418
:1034F00011D523681A6822F480521A6010229A604B
:10350000E36BE363012384F83930002384F8383017
:103510002046FFF776FF70BDF0B590F83820012AFD
:1035200003464FF002002BD0012283F8382083F8A5
:10353000390003EB0112D2E90740556A174F44EAFC
:103540000040093C012C9CBF05F07F4210434FEA2C
:1035500001161A6888BF40EA056091B9516A39407E
:1035600001435162012C9969916103D8596A21F094
:103570007F4191620122002083F8392083F83800CE
:10358000F0BDD16939400143D1619919012C896994
:1035900011619CBF25F07F451562EBE7F0FFFC0051
:1035A0002DE9F74FDFF8BC916C4A00230D68012428
:1035B0009C4004EA0506AC4340F0B7804D68032701
:1035C00005F003044FEA430807FA08FC671E012FC1
:1035D0006FEA0C0C34D8876807EA0C0ECF6807FA3C
:1035E00008F747EA0E078760476827EA060EC5F323
:1035F00000179F4047EA0E074760C76807EA0C0EAE
:103600008F6807FA08F747EA0E07022CC76019D13E
:103610004FEAD30A00EB8A0A03F0070BDAF82070AE
:103620004FEA8B0B4FF00F0E0EFA0BFE27EA0E0E31
:103630000F6907FA0BF747EA0E07CAF8207001E096
:10364000032CDAD1076804FA08F407EA0C073C43B4
:1036500015F4403F046068D000240194D9F8444038
:1036600044F48044C9F84440D9F8444023F00307A7
:1036700007F1804704F4804407F59C37019403F078
:10368000030C019CD7F808E04FEA8C0C0F2404FAD5
:103690000CF42EEA040E324CA0424DD004F58064A6
:1036A000A0424BD004F58064A04249D004F5806468
:1036B000A04247D004F58064A04245D004F5806460
:1036C000A04243D004F58064A04241D004F5806458
:1036D000A0423FD004F58064A0423DD004F5806450
:1036E000A04214BF0A24092404FA0CF444EA0E048C
:1036F000BC609468F74315F4801F0CBF3C40344312
:103700009460D46815F4001F0CBF3C403443D4606F
:10371000546815F4003F0CBF3C40344354601468B7
:10372000ED0354BF3C40344314600133102B7FF44D
:103730003DAF03B0BDE8F08F0024D5E70124D3E707
:103740000224D1E70324CFE70424CDE70524CBE707
:103750000624C9E70724C7E70824C5E7003C014061
:1037600000000240003802400369194214BF0120E2
:10377000002070470AB1816170470904FBE7436983
:1037800001EA030221EA030141EA02418161704733
:1037900001684B6913F480634FF0000210D06FF49E
:1037A00080634B612023026380F83D3080F83E2027
:1037B000036C80F83C2043F004030364012070474D
:1037C000184670472DE9F84606460F4691461D46B5
:1037D0004FEA114A3368BAF1010F0CBF5C699C696A
:1037E00027EA0404A4B2B4FA84F46409A14501D020
:1037F000002025E06A1CEED0FFF75AFD089BC01A96
:10380000A84201D8002DE5D13368BAF1010F0CBFF1
:103810005B699B6927EA03039BB2B3FA83F35B09F5
:103820009945D7D100232022336386F83D2086F8BE
:103830003E30326C86F83C3042F020023264012087
:10384000BDE8F8862DE9F04104460F461646984635
:103850002568686927EA000080B2C0B16B695A0523
:1038600017D52B6843F400732B606FF480636B6192
:1038700020220023236384F83D2084F83E30236C0B
:1038800043F004032364002384F83C300120BDE8A6
:10389000F081731CDDD0FFF70BFDA0EB0800B042F8
:1038A00001D8002ED4D123685A6927EA020292B2C5
:1038B000002ACDD000232022236384F83D2084F801
:1038C0003E30236C1343DDE770B504460D461646C3
:1038D00023685B691B0601D500201EE02046FFF728
:1038E00057FFC8B96A1CF3D0FFF7E2FC801BA8425F
:1038F00001D8002DECD123685B6913F08003E7D178
:103900002022236384F83D2084F83E30226C84F822
:103910003C3042F020022264012070BD2DE9F043CA
:103920001546026885B0DDE90C789946136843F4C2
:10393000807313600E463B46CDF8008000224FF0A6
:1039400001110446FFF73EFF236838B11B68DB0511
:1039500002D54FF400732364032620E006F0FE0630
:103960001E611A4943463A462046FFF76BFFA8B945
:10397000236803905A6903929B6903934246394630
:103980002046039BFFF7A0FF064660B1236C042B83
:1039900001BF2268136843F40073136001263046A8
:1039A00005B0BDE8F083B9F1010F236802D1EDB293
:1039B0001D61F4E72A0A1A61394642462046FFF79C
:1039C00083FF0028E2D12368F1E700BF0200010075
:1039D0002DE9FF479A46036815461A6842F480624B
:1039E0001A601A68DDE90C7842F480721A600E469B
:1039F0003B46CDF8008000224FF001110446FFF74E
:103A0000E1FE236838B11B68DB0544BF4FF4007347
:103A10002364032021E05FFA86F906F0FE061E61AA
:103A20002B4943463A462046FFF70CFFA0B92368CE
:103A300003905A6903929B69039342463946204694
:103A4000039BFFF741FF58B1236C042B01BF226891
:103A5000136843F400731360012004B0BDE8F087DD
:103A6000BAF1010F23681AD1EDB242461D61394601
:103A70002046FFF729FF02460028E5D121680B68A0
:103A800043F480730B602046CDF800803B464FF036
:103A90000111FFF797FE226860B11368B4E72A0AA4
:103AA0001A61394642462046FFF70EFF0028CBD167
:103AB0002368D9E749F001031361054943463A46B3
:103AC0002046FFF7BFFE003818BF0120C5E700BF42
:103AD0000200010070B504460D46164623685B6976
:103AE0005B0701D500201EE02046FFF751FEC8B954
:103AF0006A1CF3D0FFF7DCFB801BA84201D8002D25
:103B0000ECD123685B6913F00403E7D1202223631F
:103B100084F83D2084F83E30226C84F83C3042F03A
:103B200020022264012070BD70B504460D46164681
:103B300021684B6913F0400301D0002011E04A696D
:103B4000D2060FD56FF010024A612022236384F859
:103B50003D2084F83E30236C2364002384F83C30FD
:103B6000012070BDFFF7A4FB801BA84201D8002DE7
:103B7000DED123685B6913F04003D9D1202223638F
:103B800084F83D2084F83E30236C1343E4E70000C2
:103B900070B5044608B9012070BD90F83D3003F0BF
:103BA000FF021BB980F83C20FEF716F9242384F8A5
:103BB0003D3023681A6822F001021A601A6842F444
:103BC00000421A601A6822F400421A6000F0B2FE45
:103BD0003F4B65689D4294BF3E4B3F4B98428CBF24
:103BE00000230123002BD6D12268394E51683B4B6C
:103BF000B0FBF3F321F03F011943B542516088BF98
:103C00004FF49676116A88BF734321F03F0184BF59
:103C10004FF47A76B3FBF6F301330B431362D169A9
:103C2000431E2B4821F44F41854221F0FF0132D839
:103C30006D0040F6FC70B3FBF5F30133034242D054
:103C4000C3F30B031943D161D4E90730116803436F
:103C500021F0C0010B4313609168D4E9030321F400
:103C60000341034321F0FF010B439360D4E9053086
:103C7000D168034321F0FF010B43D360136843F085
:103C80000103136000202023206484F83D3020636A
:103C900084F83E0080E7A06850B905EB4505B3FB0A
:103CA000F5F30133C3F30B037BB143F40043C9E7DE
:103CB00019206843B3FBF0F30133C3F30B0323B1C3
:103CC00043F44043BEE70423BCE70123BAE700BF47
:103CD000A08601007F841E00FF083D0040420F00C7
:103CE0002DE9F743044699460C9E0F469046FFF790
:103CF000DFFA94F83D30202B054603D0022003B0B4
:103D0000BDE8F08300903C49192301222046FFF7CB
:103D100059FD0028F2D194F83C30012BEED02068F8
:103D2000012384F83C300368D9075EBF036843F081
:103D300001030360036823F400630360212384F814
:103D40003D30402384F83E30002323640A9B6362A5
:103D5000BDF82C306385638D2385284BE362424692
:103D6000CDE900654B4639462046FFF7D7FD0028D0
:103D70002AD00120C3E7FFF7A7FD40B1236C042B35
:103D800001BF2268136843F400731360F1E7636AAC
:103D900027681A4612F8011B39616262628D218D13
:103DA000013A92B262857A69481E80B25207208534
:103DB0000AD548B15A783A6102336362638D013B98
:103DC00002399BB221856385238D2A4631462046E0
:103DD000002BD0D1FFF77EFE0028CFD122681368D8
:103DE00043F400731360202384F83D3084F83C00D2
:103DF00084F83E0083E700BF020010000000FFFFD0
:103E00002DE9F043044687B09946109F0D46904631
:103E1000FFF74EFA94F83D30202B064604D00225D9
:103E2000284607B0BDE8F08300907A4919230122A3
:103E30002046FFF7C7FC0028F1D194F83C30012B55
:103E4000EDD02068012384F83C300368DB075EBFB7
:103E5000036843F001030360036823F40063036015
:103E6000222384F83D30402384F83E30002323642D
:103E70000E9B6362BDF83C306385638D2385664B82
:103E8000E3622946CDE900764B4642462046FFF7DD
:103E90009FFD054608B10125C2E7228D2368B2B90E
:103EA00002905A6902929A690292029A1A6842F43E
:103EB00000721A60DFF86481238D002B2CD1202240
:103EC00084F83D2084F83C3084F83E30A8E7012A8D
:103ED0000AD11A6822F480621A6003905A69039228
:103EE0009A690392039AE1E7022A0ED11A6822F432
:103EF00080621A601A6842F400621A6004905A697B
:103F000004929B690493049BD4E705905A69059237
:103F10009B690593059BCDE7032B56D8012B15D143
:103F2000324639462046FFF7FFFD0028B3D123680B
:103F30001A69636A1A70636A01336362238D013BF5
:103F40002385638D013B9BB26385B5E7022B009609
:103F50003B464FF000024146204619D1FFF732FCA4
:103F6000002898D123681A6842F400721A601A690E
:103F7000636A1A70626A531C6362238D013B238556
:103F8000638D013B9BB2638523681B695370D2E745
:103F9000FFF718FC024600287FF47DAF23681968FC
:103FA00021F4806119601969636A1970636A0133C9
:103FB0006362238D013B2385638D013B9BB2638547
:103FC000414600963B462046C8E7324639462046E1
:103FD000FFF7AAFD00287FF45EAF23681A69636AC1
:103FE0001A70628D616A013A92B24B1C6285226836
:103FF0006362238D5069013B9BB2400723857FF5A7
:104000005BAF032B02BF136823F480631360136953
:104010004B7090E7020010000000FFFF0400010059
:1040200010B590F83D30202BDCB216D1242380F857
:104030003D3003681A6822F001021A605A6A22F0C1
:1040400010025A625A6A114359621A6842F0010218
:104050001A6080F83D40002010BD0220FCE730B51A
:1040600090F83D30202BDCB216D10268242380F872
:104070003D30136823F001031360556A4FF6F07367
:104080002B400B439BB25362136843F00103136050
:1040900080F83D40002030BD0220FCE70068D1F8E8
:1040A00000C0D201843283182DE9F043C6685D68F0
:1040B0004C68D1F8189005F470455D60C5680CF146
:1040C0000107C5F30B45C6F30B463D44264445EABC
:1040D00006455D60C668CD68C6F30A062E449D6835
:1040E00005F470459D60C7688D68C7F30A07013500
:1040F0003D4445EA06459D601D690E6925F00705AA
:104100001D614FF0000E1E619D6991F8327091F8AB
:104110003180C3F818E091F8305045EA096545EA66
:10412000082545EA07459D615D6925F0FF055D614C
:104130004D695D61DD6925F4E06525F00705DD6108
:10414000D1E907573D43DD619D6A4D6AC3F828E018
:104150009D621EB3012E23D0B51E022D22D9072E3B
:1041600014BF01250225DE6A06F0E026DE62A4EB1C
:104170000C048E6AC96A6C436E43033444EA0644F5
:10418000DC621C6B24F4FF6424F007041C631963D5
:10419000835843F001038350BDE8F0830425E2E730
:1041A0000325E0E70225DEE738B50446002863D0A2
:1041B00090F8A13003F0FF021BB980F8A020FDF7B2
:1041C00067FE022384F8A13023689A6922F07042C6
:1041D0009A61D4E901200243E068996902432069A9
:1041E00002430A439A619A68244960690A409A60C6
:1041F0009A6842EA0042A06902439A60DA68E0697C
:104200000A40DA60DA6842EA0042206A0243DA6071
:104210001A69606A0A401A611A6942EA0042A06A91
:1042200002431A615A690A405A615A69E16A42EACC
:104230000142216B0A435A61DA6A94F8350094F816
:10424000361002F07F42DA62DD6A94F834202A43A5
:1042500042EA002242EA0142DA625A6B42F0060266
:104260005A639A6942F001029A6100200123C4F85E
:10427000A40084F8A13038BD0120FCE700F800F06C
:1042800070477047036870B59E6B5D6B720704469C
:1042900014D5690712D55A6B22F004025A6304221E
:1042A000DA63D0F8A43043F00103C0F8A43000234F
:1042B00080F8A12080F8A030FFF7E2FFB20716D502
:1042C000AB0714D523685A6B22F002025A6302220C
:1042D000DA63D4F8A4301343C4F8A430042384F878
:1042E000A130002384F8A0302046FFF7C9FFF00773
:1042F00010D5E9070ED523685A6B22F001025A63E4
:104300000122DA63002384F8A12084F8A03020463B
:10431000FDF760F9320711D52B070FD523685A6BCB
:1043200022F008025A630822DA63012384F8A130DC
:10433000002384F8A0302046FFF7A3FF70BD2DE9CD
:10434000F04190F8A030012B06460F4694464FF0FE
:1043500002001FD04FF0010886F8A08086F8A10067
:1043600034240D4604FB02640FCD38340FC40FCD46
:104370000FC40FCD0FC42B68236030466246394608
:10438000FFF78CFE33680020C3F8248086F8A180F4
:1043900086F8A000BDE8F08190F8A020012A03462D
:1043A0004FF0020012D01A6883F8A100506B20F081
:1043B0000100506306480164516B41F001015163F3
:1043C0000020012283F8A12083F8A000704700BFDD
:1043D0000068014037B500230193184B184D1A6C43
:1043E00042F080521A641B6C03F080530193019BCE
:1043F000144B01221A64FEF75BFF04466B68DA0374
:104400000BD5104B0E4D01225A64FEF751FF0446A6
:104410006B689B030AD5002006E0FEF749FF001BEE
:10442000B0F57A7FEAD9032003B030BDFEF740FF34
:10443000001BB0F57A7FEBD9F5E700BF00380240EA
:104440000070004000000E422DE9F341044640B3E5
:104450000368DE0710D423689D075BD4236819071F
:1044600000F19D8023685A0700F1BD80A369002BED
:1044700040F0248100202CE08D4B9A6802F00C0261
:10448000042A07D09A6802F00C02082A0BD15B6854
:10449000590208D5864B1B689A03DCD56368002B4C
:1044A000D9D1012015E06368814DB3F5803F13D168
:1044B0002B6843F480332B60FEF7FAFE7C4E0546F2
:1044C00033689B03C7D4FEF7F3FE401B6428F7D97B
:1044D000032002B0BDE8F081B3F5A02F04D12B6812
:1044E00043F480232B60E3E72A6822F480322A60B9
:1044F0002A6822F480222A60002BDDD1FEF7D8FE44
:1045000006462B689F03A6D5FEF7D2FE801B6428C3
:10451000F7D9DDE7664B9A6812F00C0F07D09A685E
:1045200002F00C02082A11D15B685D020ED4604AC9
:104530001368990702D5E368012BB2D1136821698A
:1045400023F0F80343EAC103136087E7E268594B9D
:10455000B2B101221A60FEF7ABFE554D06462B683C
:104560009B0707D52B68226923F0F80343EAC203AF
:104570002B6073E7FEF79CFE801B0228EFD9A7E7AC
:104580001A60FEF795FE4A4E054633689F077FF591
:1045900065AFFEF78DFE401B0228F6D998E76269E9
:1045A000444B82B10122C3F8802EFEF781FE404EBB
:1045B0000546736F9B073FF555AFFEF779FE401B2D
:1045C0000228F6D984E7C3F8802EFEF771FE384E34
:1045D0000546736F9F077FF545AFFEF769FE401BE9
:1045E0000228F6D974E7324B1A6C12F0805228D1A7
:1045F00001921A6C42F080521A641B6C03F08053D3
:104600000193019B01272C4D2B68D8051BD5A3686E
:10461000274D012B27D12B6F43F001032B67FEF7AA
:1046200047FE234E054641F28838336F9A0739D545
:10463000002F3FF41BAF1E4A136C23F0805313640A
:1046400014E70027DFE72B6843F480732B60FEF745
:104650002FFE06462B68D905D9D4FEF729FE801B0C
:104660000228F7D934E7052B04D12B6F43F004035C
:104670002B67D0E72A6F22F001022A672A6F22F007
:1046800004022A67002BCAD1FEF712FE41F28838D5
:1046900006462B6F9B07CBD5FEF70AFE801B4045D5
:1046A000F7D915E7FEF704FE401B4045BDD90FE7DB
:1046B000003802400000474200700040374DAA68B1
:1046C00002F00C02082A3ED0022B354B4FF00002BC
:1046D0001A662BD1FEF7ECFD06462B6899011FD414
:1046E000D4E907321343626A43EA8213E26A43EA77
:1046F0000263A26A5208013A43EA02436B60284B04
:10470000264D01221A66FEF7D3FD04462B689A0156
:104710003FF5B0AEFEF7CCFD001B0228F6D9D7E678
:10472000FEF7C6FD801B0228D7D9D1E6FEF7C0FDF3
:1047300004462B689B017FF59DAEFEF7B9FD001B7B
:104740000228F6D9C4E6012B3FF4ABAE6B68E269F0
:1047500003F4800191427FF4A4AE216A03F03F028A
:104760008A427FF49EAE616A47F6C0721A40B2EB8D
:10477000811F7FF496AEA26A520803F44031013AD9
:10478000B1EB024F7FF48DAEE26A03F07063B3EBDE
:10479000026F14BF012000209BE600BF00380240DA
:1047A00000004742134908B58B6803F00C03042B43
:1047B0001CD0082B1CD14A684B68496813F480034D
:1047C00014BF0D480D48C1F3881118BF002302F033
:1047D0003F02A1FB0001FBF7ABFD064B5B68C3F397
:1047E000014301335B00B0FBF3F008BD0248FCE776
:1047F0000248FAE70038024000127A000024F40070
:104800002DE9F0410D46044610B90120BDE8F081C4
:10481000434B1A6802F00F028A4228D321688F079F
:104820002DD4C80740D43E4B1A6802F00F02AA42AA
:1048300065D8226851076BD4130707D5394A216917
:10484000936823F4604343EAC1039360FFF7AAFF30
:10485000344B354A9B68C3F30313D35CD840334BC6
:104860001860334B1868FDF791FC0020CEE7CAB200
:104870001A701B6803F00F038B42C6D1CEE7294B99
:1048800011F0040F1EBF9A6842F4E0529A600E07BE
:1048900042BF9A6842F460429A609A68A06822F027
:1048A000F00202439A60BCE762681E4B012A1CD1E9
:1048B0001B6813F4003FA8D01A4EB36823F003031B
:1048C0001343B360FEF7F4FC41F288380746B3683F
:1048D000626803F00C03B3EB820FA4D0FEF7E8FC90
:1048E000C01B4045F3D9032090E7911E01291B68A6
:1048F00002D813F0007FDEE713F0020FDBE7EAB225
:104900001A701B6803F00F03AB427FF47EAF90E791
:104910000449E0688B6823F4E05303438B608BE722
:10492000003C0240003802401827020874000020B2
:104930007C000020044B054A9B68C3F38223D35CB0
:10494000034A1068D8407047003802401027020818
:10495000740000200F2303600B4B9A6802F00302DF
:1049600042609A6802F0F00282609A6802F4E052B3
:10497000C2609B68DB0803F4E0530361034B1B68D0
:1049800003F00F030B60704700380240003C024008
:10499000036813F0430FF7B5044640F0888023689E
:1049A00013F00C0F45D08C4B8C4D00221A67FEF78C
:1049B0007FFC06462B68990000F1CB8021684A07EE
:1049C00015D5D4E90403D5F888201B0602F0E0428F
:1049D00043EA80131343C5F88830D5F88C30226A37
:1049E00023F4F853013A43EA0223C5F88C300B074D
:1049F00014D57A4AA369D2F8881020691B0701F000
:104A0000706143EA80130B43C2F88830D2F88C30CF
:104A1000616A23F440330B43C2F88C306E4B6F4E07
:104A200001221A67FEF744FC054633689F0040F1F7
:104A300097802368980634D500230193674B684D0F
:104A40001A6C42F080521A641B6C03F0805301937D
:104A5000019B2B6843F480732B60FEF729FC06460C
:104A60002B68D80540F183805C4DA26A2B6F13F44C
:104A7000407340F08380A36A03F44072B2F5407F34
:104A8000564A40F09E80916823F0704021F4F8115E
:104A900020F4407001439160116FC3F30B030B438B
:104AA00013672368DB0600F1908000204FE04A4B3B
:104AB0004A4E00229A66FEF7FBFB054633681F014B
:104AC0003FD42168C80741BFD4E901231B0743EA4B
:104AD0008213C6F884308A0715D5404AE368D2F8B5
:104AE000840065681B0600F0E04043EA8513034339
:104AF000C2F88430D2F88C00E36920F01F00013B3B
:104B00000343C2F88C304B060AD5E36862681B0683
:104B100043EA8213A26843EA0273304AC2F884303F
:104B20002D4B2E4E01229A66FEF7C2FB05463368D6
:104B30001F013FF534AFFEF7BBFB401B0228F6D93F
:104B400004E0FEF7B5FB401B0228B7D9032003B0F1
:104B5000F0BDFEF7ADFB801B02287FF62BAFF5E71B
:104B6000FEF7A6FB401B02287FF65FAFEEE7FEF7DD
:104B70009FFB801B02287FF673AFE7E702F44072C9
:104B800093423FF478AF2B6F134A0121C2F8401EC5
:104B900023F440730021C2F8401E2B672B6FD90706
:104BA0007FF569AFFEF784FB41F2883706462B6F2D
:104BB0009A073FF560AFFEF77BFB801BB842F6D942
:104BC000C4E7916821F4F81165E7064B94F82C20AE
:104BD000C3F8E02169E700BF000047420038024007
:104BE000007000400010474238B50D460446C8B179
:104BF00090F82C3003F0FF021BB980F82D20FDF750
:104C000059FA022384F82C30211D206800F022FD7F
:104C100062682068294600F055FD012384F82C3095
:104C2000002038BD0120FCE770B590F82C30022B35
:104C300005460E46D8B212D000F0FB04012C0FD16D
:104C4000022385F82C30286800F072FD3368022BAF
:104C500006BF052385F82C3085F82C40002070BD58
:104C60000120FCE738B590F82C30022B0446D8B26E
:104C70000DD094F82C30012BDDB209D1022320682D
:104C800084F82C3000F078FD84F82C50002038BDDA
:104C90000120FCE72DE9F3471F468946904604466C
:104CA000FEF706FB0A9D3D442D1AFEF701FB264B3D
:104CB0001E68C6F3CB366E4382460196226893681F
:104CC00039EA03030CBF01230023434501D100202F
:104CD0002EE07B1CF3D0FEF7EBFAA0EB0A00A84213
:104CE00029D323685A6822F0E0025A606268B2F55C
:104CF000827F0AD1A268B2F5004F02D0B2F5806F70
:104D000003D11A6822F040021A60A26AB2F5005F6D
:104D100007D11A6822F400521A601A6842F400524D
:104D20001A60012384F85130002384F850300320A6
:104D300002B0BDE8F087019A019B002A03F1FF331E
:104D4000019308BF1546B9E774000020F0B585B09F
:104D50000B4600920E461746022101220446FFF739
:104D600099FF054628B1636D43F020036365032571
:104D700015E0124B1868124BB0FBF3F04FF47A7346
:104D8000584363680390B3F5827F0BD10097334695
:104D90002A4680212046FFF77DFF0028E3D12846E0
:104DA00005B0F0BD039B002BF9D0039B013B03939F
:104DB00023689B681B06F5D4F1E700BF7400002050
:104DC00000366E0137B50B464168B1F5827F044667
:104DD00008D0009201210022FFF75CFFD0B900202B
:104DE00003B030BD8168B1F5004F02D0B1F5806FDE
:104DF00007D125682868B1F5806F20F04000286051
:104E000004D00092802100222046E5E70092012193
:104E10000022F9E7636D43F0200363650320DFE7B9
:104E200010B50446002855D0436A002B4ED1426885
:104E3000B2F5827F00D0C3610023A36294F85130A1
:104E400003F0FF0223B984F850202046FDF7FCF858
:104E50002168A068A269022384F851300B6823F00E
:104E600040030B60636800F4044003F4827303435F
:104E7000E06800F400600343206900F0020003438F
:104E8000606900F00100034302F400700343E0692D
:104E900000F038000343206A00F080000343A06A5A
:104EA00000F4005003430B60636A120C03F010031C
:104EB00002F004021A434A60CB6923F40063CB6119
:104EC00000200123606584F8513010BD0023C0E943
:104ED0000433B1E70120F8E72DE9F74304461F4604
:104EE0000D469046FEF7E4F994F85130012B8146C7
:104EF000D8B240F09F80002D74D0B8F1000F71D06F
:104F000094F85030012B00F09580032384F8513041
:104F100000236365C4E91033A4F83680A363A38734
:104F2000E387A368266884F85000B3F5004F256333
:104F3000A4F8348007D1336823F04003336033682A
:104F400043F4804333603368E2685B065EBF3368D6
:104F500043F040033360B2F5006F636845D113B18D
:104F6000B8F1010F07D135F8023BF3602563E38EFA
:104F7000013B9BB2E386E38E9BB2D3B94A463946E6
:104F80002046FFF7E3FE002851D1A36833B901930F
:104F90002368DA6801929B680193019B012384F8DE
:104FA0005130606D0023C01A84F8503018BF0120C2
:104FB00018E022689368980705D5236B33F8021B25
:104FC000D1602363D3E7FEF773F9A0EB0900B84281
:104FD000D1D3791CCFD0012384F85130002384F839
:104FE0005030032003B0BDE8F08313B1B8F1010FD6
:104FF00008D12B783373236B01332363E38E013B9A
:105000009BB2E386E38E9BB2002BB7D023689A68ED
:10501000920703D5226B12781A73ECE7FEF748F972
:10502000A0EB0900B842EDD37B1CEBD0D3E72023E3
:105030006365AAE70220D5E72DE9F74304460D464C
:1050400091461E46DDF82880FEF732F994F851307B
:105050006268012B0746D9B20AD0B2F5827F40F0D0
:10506000E580A368002B40F0E180042940F0DE8059
:10507000002D4BD0B9F1000F48D0002E46D094F847
:105080005030012B00F0D280012384F8503094F886
:105090005130C4F83890042B1CBF052384F85130DC
:1050A00000236365C4E910332368E687E686196840
:1050B000A687490658BF1968256358BF41F04001CB
:1050C000A68658BF1960E168B1F5006F55D10AB1E5
:1050D000012E07D135F8022BDA60E38E2563013B00
:1050E0009BB2E3860125E38E9BB28BB9E38F9BB223
:1050F00073B93A4641462046FFF728FE002800F0E3
:10510000818020236365002384F85030012031E042
:1051100021688B689A070DD5E38E9BB253B145B1D8
:10512000236B33F8022BCA602363E38E013B9BB2EF
:10513000E38600258A6812F001020CD0E38F9BB24F
:105140004BB1A36BC96823F8021BA363E38F013B38
:105150009BB2E3871546FEF7ABF8C01B4045C2D3B0
:10516000B8F1FF3FBFD0012384F85130002384F809
:105170005030032003B0BDE8F0830AB1012E08D1FE
:105180002A781A73236B01332363E38E013B9BB2AE
:10519000E38601252DE0226893689B070ED5E38EF8
:1051A0009BB25BB14DB1236B1B781373236B01333F
:1051B0002363E38E013B9BB2E3860025226891685E
:1051C00011F001010DD0E38F9BB253B1A36BD268F4
:1051D0001A70A36B0133A363E38F013B9BB2E38798
:1051E0000D46FEF765F8C01B404502D3B8F1FF3FFE
:1051F000B9D1E38E9BB2002BCDD1E38F9BB2002BB4
:10520000C9D176E7A36833B901932368DA680192BC
:105210009B680193019B012384F85130606D00234A
:10522000C01A84F8503018BF0120A3E70220A1E77C
:105230002DE9F7431E4690F85130012B044689466C
:105240001746DDB204D00225284603B0BDE8F0833E
:105250004368B3F5827F0BD183684BB9042380F890
:105260005130134600960A46FFF7E6FE0546EBE787
:10527000FEF71EF88046B9F1000FE5D0002FE3D00D
:1052800094F85030012BDED0A268C4F83890012386
:10529000002584F85030B2F5004F4FF0040384F835
:1052A0005130C4E9105565652368E787A7872563F2
:1052B000A586E58607D11A6822F040021A601A68AE
:1052C00022F480421A601A6855065EBF1A6842F0DE
:1052D00040021A60E368F3B1E38F9BB2FBB123682D
:1052E0009A68D2073CD5DA68A36B23F8022BA36334
:1052F000E38F013B9BB2E387EEE723689A68D00710
:105300001ED5A26B1B7B1370A36B0133A363E38FCA
:10531000013B9BB2E387E38F9BB2002BEDD142466A
:1053200031462046FFF74EFD18BB012384F851306B
:10533000656D0023ED1A84F8503018BF012583E70E
:10534000FDF7B6FFA0EB0800B042E4D3711CE2D039
:10535000012384F85130002384F85030032573E78B
:10536000FDF7A6FFA0EB0800B042B5D3731CB3D085
:10537000EEE720236365D8E77047000090F83D30E2
:10538000012B30D1022380F83D300368DA6842F007
:105390000102DA60154A93421AD0B3F1804F17D058
:1053A000A2F57C42934213D002F5806293420FD063
:1053B00002F5806293420BD002F57842934207D007
:1053C00002F57052934203D0A2F59432934204D175
:1053D0009A6802F00702062A03D01A6842F0010216
:1053E0001A60002070470120704700BF0000014094
:1053F0007047704770477047036870B5DD681E6975
:10540000B10704460DD5AA070BD56FF002021A6149
:10541000012202779B699B0769D0FFF7EAFF00230F
:105420002377710710D56A070ED523686FF0040241
:105430001A61022222779B6913F4407F20465CD0D8
:10544000FFF7D7FF0023237733070FD528070DD5A4
:1054500023686FF008021A6104222277DB6999073A
:10546000204650D0FFF7C5FF00232377F20610D562
:10547000EB060ED523686FF010021A61082222771E
:10548000DB6913F4407F204643D0FFF7B2FF0023CF
:105490002377F00708D5E90706D523686FF00102E6
:1054A0001A612046FCF732FC320608D52B0606D5D9
:1054B00023686FF080021A61204600F0CAF8700677
:1054C00008D5690606D523686FF040021A612046A8
:1054D000FFF791FFB20622D5AB0620D523686FF007
:1054E000200220461A61BDE8704000F0B1B8FFF715
:1054F0007FFF2046FFF77EFF91E7FFF779FF204609
:10550000FFF778FF9EE7FFF773FF2046FFF772FF74
:10551000AAE7FFF76DFF2046FFF76CFFB7E770BD06
:10552000334A0368904212D0B0F1804F0FD0A2F5F9
:105530007C4290420BD002F58062904207D002F587
:105540008062904203D002F57842904219D14A68B5
:1055500023F070031343264A904229D0B0F1804FC4
:1055600026D0A2F57C42904222D002F58062904281
:105570001ED002F5806290421AD002F57842904225
:1055800016D01C4A904213D002F5806290420FD090
:1055900002F5806290420BD0A2F59832904207D07B
:1055A00002F58062904203D002F58062904203D1FE
:1055B000CA6823F4407313434A6923F080031343FA
:1055C00003608B68C3620B688362094B984203D007
:1055D00003F58063984201D10B69036301234361A2
:1055E0000369DB0742BF036923F0010303617047CE
:1055F000000001400040014010B5044630B390F86F
:105600003D3003F0FF021BB980F83C20FFF7B4FEE9
:105610000223206884F83D30211DFFF781FF01231C
:1056200084F84630002084F83E3084F83F3084F817
:10563000403084F8413084F8423084F8433084F8B4
:10564000443084F8453084F83D3010BD0120FCE73B
:10565000704770472DE9F041D1E90738D1E9012CB5
:10566000D1E90376D1E90554D1F824E0096843EA89
:10567000080391B943EA0E03134343EA0C0301689C
:105680003B4333432B4321F4FF41234321F07F016C
:105690000B4303600020BDE8F081016843EA0E037C
:1056A00021F4F8410B43036042EA0C0341683B4399
:1056B00033432B4321F4FF42234322F07F02134361
:1056C0004360E7E7CB6803F1FF3C4B69F0B50F6837
:1056D0004C688E680D698969013B1B05013C013EE0
:1056E000013D0139013F240136022D04090643EA38
:1056F0000C335AB93B432343826833432B430B4358
:1057000002F07042134383600020F0BD826822F4EF
:10571000700222F470421A43826044EA0603C268AF
:105720003B432B430B4302F070421343C360EBE750
:1057300070B5044615460269D1E900300343C868D4
:10574000920D43EA4023920513438A68013A43EAE3
:1057500042132361FDF7ACFD0646A06910F020005E
:1057600003D06B1CF9D00DB9032070BDFDF7A0FD6F
:10577000801BA842F1D9F7E7436923F47F5323F054
:105780003E0343EA410343610020704708B54FF0F0
:10579000E0231B6901F034FE012803D0BDE8084076
:1057A00000F0F8BB08BD0000EFF305832BB9064BF2
:1057B000186828B901221A6070476FF00500704719
:1057C0004FF0FF30704700BFDC1F002010B5EFF333
:1057D00005845CB9084B1A68012A0AD1074AD477B4
:1057E00002221A6001F082FB204610BD6FF0050016
:1057F000FBE74FF0FF30F8E7DC1F002000ED00E092
:10580000EFF305830BB101F0C5BB01F0BDBB4FF455
:105810007A707047F0B587B0144600220B460592A7
:10582000EFF30582CAB9C0B16CB3A569002D08BFFA
:105830001825691E3729AC462AD86168C90727D4BC
:1058400066696EB1B208D4E9027E216857B1BEF133
:105850005F0F02D9246904B1E6B9059807B0F0BD1D
:105860008022F0E7BEF1000FF7D12469002CF4D1BB
:1058700005ACCDE900C492B201F009FB01281CBFC0
:1058800000230593E9E721464FF0180C8022EFE74B
:105890001046E3E7CDE90147009501F0C0FA059015
:1058A000DBE708B5EFF3058222B908B101F084FC0B
:1058B000002008BD6FF00500FBE7F7B504460E4673
:1058C0001546EFF3058242B938B1884205D355B188
:1058D000D5E902372BB14F2F22D80024204603B040
:1058E000F0BD002FF9D1012C0CD02046314600F03C
:1058F0008BFD04460028F0D085B92946204601F0EA
:10590000C9F8EBE703220021012000F034FD0EE08E
:105910001A4600F057FD04460028DED02D68ECE75B
:105920000128F5D103210091114600F0D6FC044670
:105930000028D2D0002EDFD000231A46194600F0EE
:1059400081FD0128D8D0204601F0CEF8C5E713B577
:105950000C4628B3EFF30583CBB109BB01AA019133
:1059600001F02BF8012803D06FF0020002B010BD47
:10597000019B0BB90020F9E74FF0E0234FF0805274
:10598000C3F8042DBFF34F8FBFF36F8FF2E700F022
:1059900057FF0128EED0002CE6D06FF00100E5E7BC
:1059A0006FF00300E2E707B518B3EFF30583CBB15F
:1059B000002301A9019300F054FE012804D06FF0E8
:1059C000020003B05DF804FB019B4BB14FF0E023F4
:1059D0004FF08052C3F8042DBFF34F8FBFF36F8F8A
:1059E0000020EEE71A46194600F02CFD0128F7D0FA
:1059F000E5E76FF00300E4E730B1EFF305830BB1A7
:105A000001F03BB801F026B87047F7B505460E46E1
:105A10001446EFF305871FB10025284603B0F0BDFB
:105A20000028F9D00029F7D0DAB1D2E9023283B1E7
:105A30004F2AF1D92269002AEED066694D43AE4261
:105A4000EAD3009700F049FC05460028E4D024681A
:105A500011E0002AE0D12369002BDDD16369002B1E
:105A6000DAD128460022314600F085FC05460028A0
:105A7000D2D0002CEBD12146284601F00BF8CCE720
:105A800073B51C46EFF30586DEB138B331B32BBBDB
:105A900001AA019300F088FD012803D06FF00200F5
:105AA00002B070BD019B0BB90020F9E74FF0E02375
:105AB0004FF08052C3F8042DBFF34F8FBFF36F8FA9
:105AC000F2E758B151B13346224600F0BBFC012841
:105AD000EAD0002CE2D06FF00100E1E76FF00300A4
