:020000040800F2
:1000000000000320290E0008392A00083B2A0008B6
:100010003D2A00083F2A0008412A0008000000008D
:1000200000000000000000000000000061680008FF
:10003000432A000800000000F16800086961000818
:10004000790E0008790E0008790E0008790E000874
:10005000790E0008790E0008790E0008790E000864
:10006000790E0008790E0008790E0008790E000854
:10007000790E0008790E0008790E0008790E000844
:10008000790E0008790E0008790E0008790E000834
:10009000790E0008790E0008790E0008790E000824
:1000A000790E0008790E0008790E0008790E000814
:1000B000790E0008790E0008790E0008790E000804
:1000C000790E0008790E0008790E0008790E0008F4
:1000D000790E0008790E0008790E0008790E0008E4
:1000E000790E0008790E0008790E0008790E0008D4
:1000F000790E0008790E0008790E0008790E0008C4
:10010000790E0008790E0008790E0008790E0008B3
:10011000790E0008790E0008452A0008790E0008BB
:10012000790E0008790E0008790E0008790E000893
:10013000790E0008790E0008790E0008790E000883
:10014000790E0008790E0008790E0008790E000873
:10015000790E0008790E0008790E0008790E000863
:10016000790E0008790E0008790E0008790E000853
:10017000790E0008790E0008790E000800000000D2
:10018000790E0008790E0008790E0008790E000833
:10019000790E0008790E0008790E0008790E000823
:0C01A000512A0008790E00085D2A0008B2
:1001B00010B5054C237833B9044B13B10448AFF3A1
:1001C00000800123237010BD800300200000000088
:1001D0003C3A020808B5034B1BB103490348AFF38F
:1001E000008008BD00000000840300203C3A0208A3
:1001F00001F0FF01102A2BDB10F0070F08D010F8D8
:10020000013B013A8B422DD010F0070F42B3F6D1DB
:10021000F0B441EA012141EA014122F007047FF0F4
:1002200000070023F0E80256083C85EA010586EA4B
:10023000010685FA47F5A3FA87F586FA47F6A5FA87
:1002400087F68EB9EED1F0BC01F0FF0102F0070293
:1002500032B110F8013B013A83EA010313B1F8D13E
:100260000020704701387047002D06BF354603381F
:10027000073815F0010F07D1013015F4807F02BF58
:10028000013015F4C03F0130F0BC0138704700BFA9
:1002900070B54FF0FF0C4CF4E06C1CEA11541DBF1C
:1002A0001CEA135594EA0C0F95EA0C0F00F0DEF8E7
:1002B0002C4481EA030621EA4C5123EA4C5350EACC
:1002C000013518BF52EA033541F4801143F480131D
:1002D00038D0A0FB02CE4FF00005E1FB02E506F0AE
:1002E0000042E0FB03E54FF00006E1FB03569CF003
:1002F000000F18BF4EF0010EA4F1FF04B6F5007F09
:1003000064F5407404D25FEA4E0E6D4146EB06067A
:1003100042EAC62141EA55514FEAC52040EA5E5003
:100320004FEACE2EB4F1FD0C88BFBCF5E06F1ED8AD
:10033000BEF1004F08BF5FEA500E50F1000041EBE4
:10034000045170BD06F0004646EA010140EA020091
:1003500081EA0301B4EB5C04C2BFD4EB0C0541EAB3
:10036000045170BD41F480114FF0000E013C00F3C8
:10037000AB8014F1360FDEBF002001F0004170BDEC
:10038000C4F10004203C35DA0C341BDC04F1140405
:10039000C4F1200500FA05F320FA04F001FA05F291
:1003A00040EA020001F0004221F0004110EBD3705E
:1003B00021FA04F642EB06015EEA430E08BF20EA8A
:1003C000D37070BDC4F10C04C4F1200500FA04F32D
:1003D00020FA05F001FA04F240EA020001F00041BF
:1003E00010EBD37041F100015EEA430E08BF20EA32
:1003F000D37070BDC4F1200500FA05F24EEA020E7A
:1004000020FA04F301FA05F243EA020321FA04F0A8
:1004100001F0004121FA04F220EA020000EBD3705F
:100420005EEA430E08BF20EAD37070BD94F0000F5F
:100430000FD101F00046400041EB010111F4801F93
:1004400008BF013CF7D041EA060195F0000F18BF44
:10045000704703F00046520043EB030313F4801F80
:1004600008BF013DF7D043EA0603704794EA0C0F3A
:100470000CEA135518BF95EA0C0F0CD050EA410650
:1004800018BF52EA4306D1D181EA030101F00041CD
:100490004FF0000070BD50EA410606BF10461946F5
:1004A00052EA430619D094EA0C0F02D150EA013601
:1004B00013D195EA0C0F05D152EA03361CBF104642
:1004C00019460AD181EA030101F0004141F0FE41E1
:1004D00041F470014FF0000070BD41F0FE4141F465
:1004E000780170BD81F0004102E000BF83F000435D
:1004F00030B54FEA41044FEA430594EA050F08BFBF
:1005000090EA020F1FBF54EA000C55EA020C7FEA82
:10051000645C7FEA655C00F0E2804FEA5454D4EBFF
:100520005555B8BF6D420CDD2C4480EA020281EAC9
:10053000030382EA000083EA010180EA020281EA01
:100540000303362D88BF30BD11F0004F4FEA013153
:100550004FF4801C4CEA113102D0404261EB410162
:1005600013F0004F4FEA03334CEA133302D05242E8
:1005700063EB430394EA050F00F0A780A4F10104A4
:10058000D5F1200E0DDB02FA0EFC22FA05F28018DE
:1005900041F1000103FA0EF2801843FA05F35941C4
:1005A0000EE0A5F120050EF1200E012A03FA0EFC43
:1005B00028BF4CF0020C43FA05F3C01851EBE3716D
:1005C00001F0004507D54FF0000EDCF1000C7EEB8A
:1005D00000006EEB0101B1F5801F1BD3B1F5001FC8
:1005E0000CD349085FEA30004FEA3C0C04F10104E7
:1005F0004FEA445212F5800F80F09A80BCF1004F10
:1006000008BF5FEA500C50F1000041EB045141EA91
:10061000050130BD5FEA4C0C404141EB0101013C5A
:1006200028BFB1F5801FE9D291F0000F04BF014649
:100630000020B1FA81F308BF2033A3F10B03B3F11B
:1006400020020CDA0C3208DD02F1140CC2F10C02AB
:1006500001FA0CF021FA02F10CE002F11402D8BF09
:10066000C2F1200C01FA02F120FA0CFCDCBF41EAD5
:100670000C019040E41AA2BF01EB0451294330BDA4
:100680006FEA04041F3C1CDA0C340EDC04F1140481
:10069000C4F1200220FA04F001FA02F340EA030058
:1006A00021FA04F345EA030130BDC4F10C04C4F19E
:1006B000200220FA02F001FA04F340EA030029467E
:1006C00030BD21FA04F0294630BD94F0000F83F4C8
:1006D000801306BF81F480110134013D4EE77FEAAB
:1006E000645C18BF7FEA655C29D094EA050F08BFF7
:1006F00090EA020F05D054EA000C04BF19461046D8
:1007000030BD91EA030F1EBF0021002030BD5FEA1B
:10071000545C05D14000494128BF41F0004130BD43
:1007200014F580043CBF01F5801130BD01F0004597
:1007300045F0FE4141F470014FF0000030BD7FEA0A
:10074000645C1ABF194610467FEA655C1CBF0B4605
:10075000024650EA013406BF52EA033591EA030F1C
:1007600041F4002130BD00BF90F0000F04BF002114
:10077000704730B54FF4806404F132044FF0000547
:100780004FF0000150E700BF90F0000F04BF0021C0
:10079000704730B54FF4806404F1320410F0004526
:1007A00048BF40424FF000013EE700BF42004FEA21
:1007B000E2014FEA31014FEA02701FBF12F07F439E
:1007C00093F07F4F81F06051704732F07F4208BF55
:1007D000704793F07F4F04BF41F40021704730B55C
:1007E0004FF4607401F0004521F000411CE700BFA8
:1007F00050EA010208BF704730B54FF000050AE02B
:1008000050EA010208BF704730B511F0004502D52B
:10081000404261EB41014FF4806404F132045FEA2D
:10082000915C3FF4D8AE4FF003025FEADC0C18BFD6
:1008300003325FEADC0C18BF033202EBDC02C2F1C8
:10084000200300FA03FC20FA02F001FA03FE40EA5A
:100850000E0021FA02F11444BDE600BF4FF0FF3C48
:1008600006E000BF4FF0010C02E000BF4FF0010CAA
:100870004DF804CD4FEA410C7FEA6C5C4FEA430C23
:1008800018BF7FEA6C5C1BD001B050EA410C0CBF72
:1008900052EA430C91EA030F02BF90EA020F0020D4
:1008A000704710F1000F91EA030F58BF994208BF3B
:1008B00090422CBFD8176FEAE37040F001007047F8
:1008C0004FEA410C7FEA6C5C02D150EA013C07D14F
:1008D0004FEA430C7FEA6C5CD6D152EA033CD3D09A
:1008E0005DF8040B704700BF8446104662468C4694
:1008F0001946634600E000BF01B5FFF7B7FF0028C7
:1009000048BF10F1000F01BD4DF808EDFFF7F4FFEF
:100910000CBF012000205DF808FB00BF4DF808ED7A
:10092000FFF7EAFF34BF012000205DF808FB00BF9D
:100930004DF808EDFFF7E0FF94BF012000205DF8BF
:1009400008FB00BF4DF808EDFFF7CEFF94BF012074
:1009500000205DF808FB00BF4DF808EDFFF7C4FF6D
:1009600034BF012000205DF808FB00BF4FEA4102C0
:1009700012F5001215D211D56FF47873B3EB6252F1
:1009800012D94FEAC12343F0004343EA505311F018
:10099000004F23FA02F018BF404270474FF00000AA
:1009A000704750EA013005D111F0004008BF6FF0E8
:1009B000004070474FF00000704700BF4FEA41020F
:1009C000B2F1E04324BFB3F5001CDCF1FE5C0DD9AD
:1009D00001F0004C4FEAC0024CEA5070B2F1004FF7
:1009E00040EB830008BF20F00100704711F0804FFA
:1009F00021D113F13872BCBF01F00040704741F4BF
:100A000080114FEA5252C2F11802C2F1200C10FAC2
:100A10000CF320FA02F018BF40F001004FEAC123A6
:100A20004FEAD32303FA0CFC40EA0C0023FA02F34A
:100A30004FEA4303CCE77FEA625307D150EA013320
:100A40001EBF4FF0FE4040F44000704701F00040F0
:100A500040F0FE4040F40000704700BF7BB972B91F
:100A60000029BEBF00204FF0004106E008BF00286B
:100A70001CBF6FF000414FF0FF3000F0D3B9ADF173
:100A8000080C6DE904CE002909DB002B1ADB00F00D
:100A90004DF8DDF804E0DDE9022304B07047404280
:100AA00061EB4101002B1BDB00F040F8DDF804E0B6
:100AB000DDE9022304B0404261EB4101524263EBA5
:100AC00043037047524263EB430300F02FF8DDF815
:100AD00004E0DDE9022304B0404261EB41017047CC
:100AE000524263EB430300F021F8DDF804E0DDE956
:100AF000022304B0524263EB4303704753B94AB92F
:100B0000002908BF00281CBF4FF0FF314FF0FF3015
:100B100000F088B9ADF1080C6DE904CE00F006F8DC
:100B2000DDF804E0DDE9022304B070472DE9F04769
:100B3000089D8E4604468846002B4AD18A421746B5
:100B400062D9B2FA82F64EB1C6F1200301FA06F874
:100B500020FA03F3B74043EA0808B4404FEA174EBF
:100B60001FFA87FCB8FBFEF1230C0EFB118843EA49
:100B7000084301FB0CF29A4209D9FB1801F1FF303E
:100B800080F0EA809A4240F2E78002393B449A1AA8
:100B9000A3B2B2FBFEF00EFB102243EA024300FBBD
:100BA0000CFC9C4509D9FB1800F1FF3280F0D6807F
:100BB0009C4540F2D3803B44023840EA0140A3EB1D
:100BC0000C0300211DB1F3400022C5E90032BDE84D
:100BD000F0878B4205D90DB1C5E900010021084617
:100BE000F5E7B3FA83F1002946D1734502D3824277
:100BF00000F20581841A6EEB030201209046002D5D
:100C0000E5D0C5E90048E2E7002A00F09080B2FA9A
:100C100082F6002E40F0A4808A1A030C4FEA174E89
:100C200080B2BCB20121B2FBFEFC0EFB1C2243EAE7
:100C3000024304FB0CF29A4207D9FB180CF1FF386F
:100C400002D29A4200F2E080C4469B1AB3FBFEF245
:100C50000EFB123340EA034302FB04F49C4207D923
:100C6000FB1802F1FF3002D29C4200F2CA80024619
:100C70001B1B42EA0C40A5E7C1F120068B4022FA7B
:100C800006F71F430EFA01F420FA06F32EFA06FEC9
:100C90004FEA1749234300FA01F81FFA87FCBEFB0D
:100CA000F9F01C0C09FB10EE44EA0E4400FB0CFEAC
:100CB000A64502FA01F209D93C1900F1FF3A80F089
:100CC0009C80A64540F2998002383C44A4EB0E0477
:100CD0001FFA83FEB4FBF9F309FB13444EEA044404
:100CE00003FB0CFCA44508D93C1903F1FF3E80F03E
:100CF0008280A4457FD9023B3C4443EA0040A4EBF8
:100D00000C04A0FB02EC64457346E14662D35FD05D
:100D10005DB1B8EB030264EB090404FA06F622FAAB
:100D200001F31E43CC40C5E9006400214FE7B1FB4D
:100D3000F2FC010C41EA0E4180B240EA01423B461E
:100D400038463C46B846BE462026B1FBF7F1A2EB3A
:100D5000080241EA0C4166E7014618E710462CE715
:100D6000C6F120022EFA02F3B740B14020FA02F297
:100D70004FEA174E0A43B3FBFEF8BCB20EFB183322
:100D8000110C41EA034108FB04F9B04089454FEAE0
:100D9000104380B23ED9791808F1FF3C01D2894551
:100DA0001FD8A1EB0901B1FBFEF909FB04F80EFB0A
:100DB000191192B242EA0142424529D2BA1809F108
:100DC000FF31C4D24245C2D2A9F102013A44BEE782
:100DD000F0459DD2BEEB02036CEB070C0138E146F7
:100DE00096E7A7EB09094944A8F1020CB1FBFEF90B
:100DF00009FB04F8DBE773467FE7504666E70846E1
:100E0000FDE63B44023A33E7ACF1020C3B441CE7FD
:100E100049469CE7A1EB0901C446B1FBFEF909FB79
:100E200004F8C4E7704700BFDFF834D0002103E0C6
:100E30000C4B5B58435004310B480C4B42189A4200
:100E4000F6D30B4A02E0002342F8043B094B9A42D6
:100E5000F9D302F00BFF22F083F801F079F8704724
:100E6000000003207CD5030800000020640100205E
:100E700080030020C4410120FEE7704708B500F060
:100E8000BBFDBDE8084000F03FBD00F0B7BD7047B6
:100E900010B5042104461FF051FE204610BD00008D
:100EA00038B50C4B0C4C18800C4B822019806368B1
:100EB000984740F6110398420AD1094D23682C60E7
:100EC000822098472B688220DB689847002038BD35
:100ED0000120FCE7A60300204C000020A403002012
:100EE000A80300204FF4A071F020FFF7D9BF000045
:100EF000F7B5394D2B6804461B698220984720803E
:100F000000284ED02B680DF106025B6901A98220F2
:100F10009847324B1B78002B4BD0BDF8062040F68B
:100F200074639A423FD9ADF80630BDF806209B1A8B
:100F30009BB20A2B42D90B22B3FBF2F3284A128848
:100F4000934201D9013A93B2BDF80420254840F6F6
:100F5000B8318A4234D8C2F571620E32016892B259
:100F60000F25B2FBF5F2204D2D88AA4284BF05F172
:100F7000FF35AAB28A4215468EB22AD9921B91B287
:100F80001A4E3768BB42BAB28CBF9A1AD21A92B2C2
:100F900011440529C4BF056033600368638033686A
:100FA000A38003B0F0BDB32A9CBFB422ADF80620E5
:100FB000BBE7BDF80630A3F5B473B9E70023C3E778
:100FC000C2F56D62083292B20E2A0168C8D80025B7
:100FD0002A46891A89B2D3E7A80300201C260020DC
:100FE000A4030020A0030020A60300209C030020EF
:100FF00037B568460D461446FFF77AFFBDF8000086
:1010000030B1BDF802302B60BDF804302360012000
:1010100003B030BD032821D8DFE800F0020B12191D
:101020000F4B1A68B2FA82F2520904210D4803F0FC
:10103000B1B80B4B5A68B2FA82F252090821F5E7AF
:10104000074B9A68B2FA82F252091021EEE7044B7C
:10105000DA68B2FA82F252092021E7E7704700BF4E
:10106000AC03002000100240032821D8DFE800F084
:10107000020B12190F4B1A68003A18BF0122042103
:101080000D4803F087B80B4B5A68003A18BF01228D
:101090000821F5E7074B9A68003A18BF0122102192
:1010A000EEE7044BDA68003A18BF01222021E7E797
:1010B000704700BFAC0300200010024003280DD889
:1010C000DFE800F00206080A0421054803F067B8CB
:1010D0000821FAE71021F8E72021F6E7704700BF62
:1010E0000010024008B5032811D8DFE800F0020A1A
:1010F0000C0E0421074803F047F8431E584258419C
:1011000008BD0821F6E71021F4E72021F2E70020CE
:10111000F3E700BF0010024070B5084D002401261F
:10112000E0B2FFF7DFFF18B12B68012B18BF2E606C
:101130000134052C05F10405F2D170BDAC0300208B
:10114000012380F8781080F87930704770470020CC
:1011500070470000034B4164003918BF012119702A
:10116000704700BF83340120704700207047836BB5
:101170000BB10846184770474FF6FF70704740683C
:1011800003689B69184770477047704770477047FE
:1011900010B5044600F048FD23680349D3F89030A9
:1011A0002046BDE810401847000000D008B503688D
:1011B0000446D3F88430984723682046DB6F98476D
:1011C00000F0ECF8236820465B6F9847292001F077
:1011D00053F900F0E3F8236820465B6F9847F8E77F
:1011E00010B5044608F054F923682046D3F8BC3003
:1011F000BDE81040184700F0FBBC00F0FFBC00F059
:1012000031BD00F0D1BC00F041BD00F049BD00F09F
:10121000D5BC07F06BBB10B5842104461FF08EFCD3
:10122000204610BD10B590F8341090F878400C4B63
:101230008C421A7809D03AB90A4A0B4914880888AE
:1012400010800C8001221A7010BD002AFCD0054AC3
:1012500005491488088810800C800022F3E700BF3D
:101260007C340120783401207A34012070B50D4699
:10127000194635B9094B0A4A0A4840F2FF2121F0C4
:10128000BFFBC0E90F52084B003A18BF01221A7089
:101290000368BDE87040D3F890301847B03A0208B0
:1012A000E83A0208363B02088234012008B5094BAF
:1012B0001B888B4203D8084B1B88934205D9074BE8
:1012C000074A0848A32121F09BFB074B1980074BD5
:1012D0001A8008BD783401207A3401207B3B020853
:1012E000DE3B0208363B02087E34012080340120B8
:1012F000034690F87A0018B1586803681B681847CD
:1013000070470000012108B50022084604F0B6FF2E
:101310000A4B186028B90A4B0A4A28210A4821F0CA
:101320006FFB00220421012005F050F8074B1860E4
:1013300018B9074B034A2C21F0E708BDC003002071
:10134000213C02086A3C0208993C0208BC030020C8
:10135000E43C0208024B4FF0FF31186804F0D8BF9C
:10136000C0030020014B186804F0FEBFC00300203A
:10137000024B0021186804F0CBBF00BFC00300205F
:10138000FFF7F0BF03480449006800231A4605F040
:1013900058B800BFBC0300200400002013B5084C5F
:1013A00000231A4601A9206805F07CF820684FF058
:1013B000FF33002201A905F075F802B010BD00BF8F
:1013C000BC03002003685B6C18470120704703686A
:1013D0009B6A1847FEE740F2EF307047054B036009
:1013E000054B4FF08062C3F88820BFF34F8FBFF3E7
:1013F0006F8F70479446020800E100E010B5044684
:101400004FF45A61FFF7EAFF20461FF097FB204692
:1014100010BD000082B0002301930E4B1A6B42F402
:1014200000021A631A6B02F400020192019A1A690F
:1014300042F400021A611A6922F400021A61064B92
:10144000064A1A61064A5A61064B4FF080629A605A
:1014500002B0704700380240D4250020B5160008BD
:10146000D513000800E100E008B50A2809D8DFE834
:1014700000F006100E0808080810101010000220D6
:1014800008BD054B054A0648902121F0B9FA002015
:10149000F6E70120F4E700BF263D0208413D0208BF
:1014A0008C3D020838B50C46887FFFF7DDFFA58A22
:1014B000E28A164B2169586342EA05425A64628BFC
:1014C000D963521B1A642568082D0ED19A611A61DE
:1014D0005862207F0E4A42EA0062DA61E2681A62CC
:1014E0000C4A5961D9601A6038BD0022D8611A616E
:1014F000E1680A0A480902F4784200F4FC600243F9
:10150000C1F3C4010A439A63034AECE700B0024006
:1015100009000100012302000123030008B50B2884
:101520000BD8DFE800F00612100A0A0A0A080808B9
:101530000808022008BD0520FCE7054B054A0648BF
:101540006F2121F05DFA0020F4E70120F2E700BFEF
:10155000263D0208D53D02088C3D02082DE9F041E8
:1015600091F81D800C464046FFF7D8FFA77F05463F
:101570003846FFF7D3FF06463846FFF775FFA18AC6
:10158000628B444B521A1A649A61228B521A1A6166
:10159000E28A586342EA01425A6421696268D96367
:1015A000DA602068802828D0227F0FD8202867D0D2
:1015B000402865D004281AD0364B45EA026545F428
:1015C0000035B845DD6161D0334A44E0B0F5807F35
:1015D00004D0B0F5007FEFD1304800E0304840EA59
:1015E0000262DA61E2681A625E62596132E045EADB
:1015F000026242F40032DA61F6E7A068021DDA62A4
:10160000227F45EA026545F40035DD615E6259617D
:10161000017841B1012921D0224B234A23484FF4BC
:101620008D7121F0EDF9DA69418822F47F420139A8
:1016300022F0100242EA0122DA610121154BDA6937
:1016400042F02002DA61DA699206FCD410229A6034
:101650000029B9D0164A1A60BDE8F081B2F1FF0145
:10166000DA69408822F47F4200F1FF3022F0100254
:1016700042EA002242F0100218BF0121DA61DDE7E0
:1016800045EA0262034B42F40032B4E742F201320F
:10169000E1E700BF00B002400123010009000200A1
:1016A0000A0002001F3E0208393E02088C3D020873
:1016B00001230200024B1B68586803685B691847E6
:1016C0008434012070B5044625460A4B0C300026B0
:1016D00060602672667245F8203B6022294608F059
:1016E0002DF804F55A63EE6024359D42FBD1204667
:1016F00070BD00BF94460208034B1A68D207FCD4A1
:1017000023229A60704700BF00B00240704700007B
:1017100030B50F4C2568ED07FCD423250904A560DE
:1017200041F001010225FF2B65636164E0630AD08B
:101730000849656241EA0363E361074B2262606125
:10174000E060236030BDE561039BA363034BF8E7D2
:1017500000B0024009000100010002000100030086
:1017600030B50E4C2568ED07FCD423251204A56086
:1017700042F001020225FF2B65636264E063E160D1
:1017800008D01B0643F00213E361054B65626061FC
:10179000236030BD034BE3610123F9E700B0024051
:1017A00001000200020002FF30B50B4C2568ED0776
:1017B000FCD4232512041B06A56043F40033022544
:1017C00042F0010265636264E063E160E361034B40
:1017D00065626061236030BD00B00240010002001C
:1017E000012070470C2070470C2303FB01000830D8
:1017F00070470C2303FB010008307047012070473D
:1018000040F63470704740F6347303FB0100083033
:10181000704740F6347303FB010008307047012025
:1018200070471020704700EB01100830704700EB44
:10183000011008307047084601F00EBB10B5034B8D
:101840000360044606F0A7FD204610BD4C47020881
:1018500010B50446FFF7F2FF204614211FF06EF981
:10186000204610BD10B5034B0360044606F093FDFF
:10187000204610BD1847020810B50446FFF7F2FFD6
:10188000204640F63C711FF059F9204610BD00007B
:1018900010B5034B0360044606F07DFD204610BDE5
:1018A000E446020810B50446FFF7F2FF204618216F
:1018B0001FF044F9204610BD10B5084B03600446E4
:1018C00000F66870FFF7BAFF04F12C00FFF7CAFFBB
:1018D00004F11400FFF7DCFF204610BD804702082A
:1018E00008B50248FFF7E8FF08BD00BF9C120020C2
:1018F00010B50446FFF7E0FF204641F2DC011FF07F
:101900001DF9204610BD00002DE9F34101F01AF940
:10191000054601F01BF900240146234628462246CD
:10192000009410F059F8274B274A1A60204601F01E
:101930008FFD264D264B274A27489A600FF0B4FFAB
:101940002B68BFF35B8FDB0735D428461FF0F8F810
:1019500088B3224C224B236004F5786604F114000E
:1019600004F12C0804F668776060C4F80880E7602A
:10197000266106F011FD1B4B6361404606F00CFD2D
:10198000194BE362384606F007FD184BC4F8683F70
:1019900004F67C7001F0E0FD224604F67C713046CE
:1019A00001F0D0FD304601F057FA114821F046F819
:1019B00028461FF0D1F80F4802B0BDE8F041FFF70C
:1019C000E7BB00BFE8340120480400209812002043
:1019D000680400204C040020080000209C12002015
:1019E00080470208E4460208184702084C470208EC
:1019F000E1180008C4030020704700000148FFF709
:101A0000D5BB00BFC403002070B5264E264C274D21
:101A1000274B23603046FFF755FE284615F0E2F8C5
:101A200024480DF0F3FF244B2448DC6000224FF4DF
:101A30008071C3E9121222491A86C3E91A12214998
:101A400083F85820C3E91E011F49C3F880101F49BD
:101A50001F480B60F021C3E90422C3E90622C3E951
:101A60000822C3E90A22C3E90E22C3E91022C3E90E
:101A70001422C3E917225A6683F870205A67C3E913
:101A8000016501801348018013484FF4A071018063
:101A90001248018012490A70012283F83420114A49
:101AA0001A6070BDF4040020941200206804002025
:101AB000A03A02084C040020C403002000000101E9
:101AC00001000001000450001A00140084340120B9
:101AD000783401207E3401207A34012080340120C2
:101AE0007C340120A84502080148FFF777BC00BFFD
:101AF000F40400200020704781807047C180704747
:101B00000181704741817047704770477047704747
:101B1000704710B4C4880368121B84885B6D091B6E
:101B200012B25DF8044B09B218474FF6FF73838178
:101B30004FF0FF3303621368C361106070470020E9
:101B400070478B88838001207047704780F826108B
:101B5000704790F82600704710B50022B1F9084090
:101B6000B1F90A10028042808480C18010BD002239
:101B7000028042808280C28070470177704780ED8A
:101B8000080A704780F82410704780F825107047C5
:101B900001207047983070478C3070478430704710
:101BA0007047704770470000034B902283F85A2318
:101BB00083F85823704700BF00E100E0094A0A4952
:101BC000D3680A48C3F30A03013B9BB20B80116937
:101BD000C1F30A01013901801364536B43F001031F
:101BE00053637047006801407A2300207823002067
:101BF000014BD3F8AC00704700680140024B012252
:101C0000C3F8AC105A6270470068014010B52C212F
:101C100004461EF093FF204610BD10B5BC210446BB
:101C20001EF08CFF204610BD70B5044606F0B3FED2
:101C300023689D6E0CF082FC01462046A84723686D
:101C4000054AD3F88C502046AC460023BDE87040CE
:101C5000A2F51631604700BF00B004D006F082BE86
:101C600006F08CBE06F048BE06F0B7BF90F82520FF
:101C700012B103685B691847704790F825201AB1C4
:101C800090F8242002B1186070470000034B4FF019
:101C900080629A604FF080729A60704700E100E0C5
:101CA000084B4FF08062C3F88820BFF34F8FBFF31B
:101CB0006F8F4FF08072C3F88820BFF34F8FBFF350
:101CC0006F8F704700E100E070B50023124E8380F3
:101CD000124B0360336893F8582005460AB1D86C5C
:101CE00000B998680368DB6A98473368B0FA80F4F3
:101CF000D86C640930B10368DB6A9847002808BFD4
:101D000044F001042CB9064B064A07482C2120F068
:101D100077FE284670BD00BF843401209447020836
:101D2000773E0208D53E02080E3F020870B5254EE8
:101D30003568BFF35B8F15F0010540D130461EF0CA
:101D4000FFFE00283BD0204C204B256104F13400DD
:101D5000C4E90035C4E90255E584A562A5850EF005
:101D60003AF904F1580009F073FE194BA3652046B7
:101D7000184B40F8843BFFF7A7FF174BC4F884309B
:101D80002433C4F88C304FF4C803C4E92835002349
:101D9000C4F8AC30C4F8B030C4F8B430C4F8B830CB
:101DA0000E480F4BC4F89050C4F89C50C4F8A8508B
:101DB000C4F8983020F042FE30461EF0CDFE0248B6
:101DC00070BD00BF7C23002080230020A84C0208A7
:101DD000B44702082C4802085C4C0208A51B000806
:101DE0003C4C020838B5184C23685BB3174B184AB3
:101DF0001B6C11888B4216D1164B198802F0D2FF4A
:101E0000236893F86A200025013283F86A2083F85A
:101E10007C50FFF7B7FA206807F03AFB2846BDE888
:101E20003840FFF7F7B802F0BDFF2468236820466A
:101E30001B6A9847012384F87C300020BDE83840B5
:101E4000FFF712B938BD00BF84340120006801409B
:101E50007A2300207823002007B5064BADF8060052
:101E60001B68054801220DF1060103F03BFD03B09C
:101E70005DF804FB0C0000208024002007B50B4C0B
:101E80000B4D0121204602F07FF9012809D158238A
:101E90008DF8073028680A2300220DF1070104F0AD
:101EA000D0FA012004F0DEF9EBE700BF00000240A9
:101EB0004024002030B595B0102200210AA820F05F
:101EC000A6FF1422002103A820F0A1FF00241E4B2E
:101ED00001941A6C42F080521A641B6C03F0805318
:101EE0000193019B194B02941A6842F440421A6014
:101EF0001B6803F4404302930122029B4FF480339A
:101F0000CDE9082302254FF480030821CDE90E53C3
:101F10004FF4B473CDE9101308A80423139312955A
:101F200002F098FF02F05CFF0F23CDE903354FF478
:101F3000A0504FF48053CDE90603052103A8059472
:101F400003F064F915B030BD003802400070004065
:101F50002DE980489BB001F097FEFFF7ABFF1422FC
:101F600000210DA820F053FF0024C94B00941A6BE8
:101F7000C848C94D42F010021A631A6B02F01002F1
:101F80000092009A01941A6B42F020021A631A6BB5
:101F900002F020020192019A02941A6B42F0800230
:101FA0001A631A6B02F080020292029A03941A6B6F
:101FB00042F004021A631A6B02F004020392039ABD
:101FC00004941A6B42F001021A631A6B02F00102C8
:101FD0000492049A05941A6B42F002021A631A6B77
:101FE00002F002020592059A06941A6B42F0400232
:101FF0001A631A6B02F040020692069A07941A6B53
:1020000042F008021A631B6B03F008032246079391
:102010003C21079B02F0BEF8A0480122022102F0F9
:10202000B9F822469D48042102F0B4F822469C48A3
:102030004FF4405102F0AEF801263C23CDE90D36B5
:1020400094480F9403230DA90227109301F0B8FFC1
:1020500092480DA9CDE90D76CDE90F4401F0B0FF0E
:1020600004238E480DA9CDE90D36CDE90F4701F0C7
:10207000A7FF4FF440538A480DA9CDE90D36CDE9AD
:102080000F4701F09DFF4FF4C04386480DA9CDE9ED
:102090000D36CDE90F4701F093FF0DA982480F944B
:1020A000CDE90D6401F08CFF8048814B036001F0A5
:1020B0007DFEDFF820C27F4B2C62C5E900C32846B5
:1020C0004FF48043C5E90434C5E90244C5E9064438
:1020D00002F06EFA1021284602F0B2FC2146284692
:1020E00002F0CDFC744DDFF8F0E1AC624FF4827386
:1020F000C5E900E34FF400781823C5E906832846B4
:102100000A23C5E90244C5E90444C5E90844EB6271
:1021100003F08CFB8F232246394660488DF824302B
:102120008DF8344002F036F832464FF47A7309A93C
:10213000284603F0D7FB4FF47A7332460DA92846A0
:1021400003F07CFD3246394654485C4D02F022F8DB
:102150009DF83430D32B04BF594B1E70594B0127C7
:10216000C5E900374FF0100A40230024C5E904A355
:102170004FF4C073C5E906344FF40063C5E9083471
:102180004FF4005302264FF00409AB624FF0030BEB
:1021900007230DA92846CDE90D63CDE90F934FF034
:1021A0000808C5E90249CDE911B6139603F022FAF1
:1021B0004FF6FF7209A92846CDE90A8708940997C6
:1021C0000C9403F037FA384601F08AFD4FF6FF729F
:1021D00009A92846CDE90968CDE90B7403F02AFA6C
:1021E0004FF6FF7209A92846CDE909B8CDE90B944D
:1021F00003F020FA4FF40C730893089B0C934FF6EE
:10220000FF7209A92846CDE909980B9703F012FA45
:1022100040F26A51284603F02BFA342221460DEB96
:10222000020020F0F4FD284D284B2C61C5E9003454
:102230000923C5E905371D23C5E9073B40F20D1207
:1022400040F24313C5E9092340F2171140F2471346
:102250002846C5E90B13C5E90244AC8685F836402B
:1022600002F0A8FCFF21F022CDE912144FF48060A7
:1022700005214FF4A073CDE91401CDE90E240DA979
:10228000CDE9164228462246114D189326E000BF9C
:102290000038024000100240802500200008024063
:1022A000000C0240001802400000024014260020EA
:1022B00000300240A0860100802400204C24002031
:1022C0001C260020400100A0D82400200068014006
:1022D0003C240020005C004000500140CDE9103655
:1022E0000D94ADF864408DF8664002F02EFD1B4B56
:1022F0002B601B6898472B68194DDB689847194B72
:102300002846C5E90034C5E90264C5E90A46C5E9BD
:102310000C4401F05BFD3946284601F00DFEFEF746
:10232000ADFDFEF7AAFD03F02DFF0F4A31465046E2
:1023300004F04CF80D4B0E4A186021460D4803F08E
:102340004DFF0D4B0D4A186021460D4803F046FF26
:102350000C4B186003F028FFFEE700BF14000020BC
:10236000D425002000B0024070480208402400201C
:10237000AC4802087D1E0008482400208848020856
:102380008B0E000844240020704770477FB5094B2E
:102390008DF817201B6802930DF11702012300929C
:1023A00001930A460146044802F0AAF907B05DF815
:1023B00004FB00BF10000020802500207FB5002313
:1023C0008DF81730084B1B6802930A4601230DF164
:1023D0001701009101930146044802F021FA9DF88B
:1023E000170007B05DF804FB1000002080250020D6
:1023F0001FB5084C24680092CDE901340A46012338
:102400000146054802F00CFA003818BF012004B05C
:1024100010BD00BF100000208025002001F060BC2E
:1024200010B5064C00222046042101F0B3FE2046E0
:102430000122BDE81040042101F0ACBE00080240BA
:1024400038B50B4D044601220A484FF4005101F003
:10245000A1FE00220421284601F09CFE2046FFF741
:10246000FBFC28460122BDE83840042101F092BE61
:1024700000080240000C024038B50B4D0446002213
:102480000A484FF4005101F085FE0022042128463D
:1024900001F080FE2046FFF7DFFC28460122BDE860
:1024A0003840042101F076BE00080240000C0240D2
:1024B000F7B5144E144F05460C4630460022042151
:1024C00001F068FE00224FF40051384601F062FE30
:1024D0002846FFF7C1FC0D4B0D481B68224601A999
:1024E00003F0ACFB384601224FF40051019C01F08F
:1024F00051FE30460122042101F04CFE204603B07B
:10250000F0BD00BF00080240000C02400C0000209B
:102510008024002001F0E4BB0268034B9A4201D101
:1025200001F0CCBB704700BF0010004070470000B6
:1025300082B00E4B00220092596C41F480415964E4
:10254000596C01F48041009100990192196C41F09D
:10255000805119641B6C03F080530193019B0F2180
:102560006FF0010002B001F0E1BB00BF0038024093
:102570000268094B9A4282B00BD100230193074BAA
:102580001A6B42F480521A631B6B03F4805301935D
:10259000019B02B0704700BF00300240003802408B
:1025A00007B50F4B02689A4216D10022A3F5F043FB
:1025B0000192196B41F4000119631B6B03F40003D2
:1025C000019305215A20019B01F0B0FB5A2003B072
:1025D0005DF804EB01F0DCBB03B05DF804FB00BF69
:1025E00000B002402DE9F043044689B014220021D6
:1025F00003A820F00CFC2268244B9A4243D1244CBF
:10260000244800250095236B43F004032363236BC8
:1026100003F004030093009B0195236B43F0010337
:102620002363236B03F001030193019B4FF0120915
:102630004FF400734FF001080327042603A9CDE9E6
:102640000339CDE90587079601F0BAFC4FF4807392
:102650001148079603A9CDE90339CDE9058701F0B3
:10266000AFFC0295236C43F400032364236C03F452
:1026700000030293029B236A43F400032362236A4C
:1026800023F40003236209B0BDE8F083005C00403E
:10269000003802400008024000000240F0B599B046
:1026A00004461422002107A820F0B1FB30220DEBD4
:1026B0000200002120F0ABFB22685E4B9A4240F002
:1026C000B78008230C93C0231093042312930CA803
:1026D0004FF40033159302F061FE08B1FFF726FFB7
:1026E000554B5648002400945A6C42F080625A645C
:1026F0005A6C02F080620092009A01941A6B42F0C8
:1027000020021A631A6B02F020020192019A0294CD
:102710001A6B42F001021A631A6B02F00102029274
:10272000029A03941A6B42F002021A631A6B02F0C7
:1027300002020392039A04941A6B42F040021A6355
:102740001A6B02F040020492049A05941A6B42F04C
:1027500004021A631A6B02F004020592059A0694A9
:102760001A6B42F008021A631B6B03F0080306930E
:1027700002250E26069B0B964FF4806307A9CDE930
:102780000735CDE9094501F01BFC41F658032C48FB
:102790000B9607A9CDE907350927CDE9094501F0D1
:1027A0000FFC032327480B9707A9CDE90735CDE98F
:1027B000094501F005FC4FF4706322480B9607A908
:1027C000CDE90735CDE9094501F0FAFB4FF40C637B
:1027D0001D480B9607A9CDE90735CDE9094501F05C
:1027E000EFFBC02319480B9607A9CDE90735CDE9C2
:1027F000094501F0E5FB082315480B9607A9CDE92B
:102800000735CDE9094501F0DBFB4FF4A0530E4835
:102810000B9707A9CDE90735CDE9094501F0D0FBB4
:1028200058202246052101F081FA582001F0B0FA23
:1028300019B0F0BD006801400038024000140240A9
:10284000000002400004024000180240000802405C
:10285000000C024010B5044688B01422002103A8E1
:1028600020F0D5FA2268144B9A4223D103F568432D
:10287000002101915A6C114842F480125A645A6C3A
:1028800002F480120192019A02911A6B42F0200226
:102890001A631B6B03F020030293029B4FF46072D8
:1028A00002230321CDE903230523CDE9061303A960
:1028B00001F086FB08B010BD00500140001402403A
:1028C0002DE9F04186B0002303932B4B1C68002CAC
:1028D0004FD14FF00108C3F80080284B00949A6B49
:1028E000274842EA08029A639B6B03EA08030093B5
:1028F000022703260C25009B01A94FF63F03CDE9D3
:102900000137CDE9046501F05BFB1E48059501A97F
:10291000CDE90187CDE9034601F052FB48F23313BC
:102920001948059501A9CDE90137CDE9034601F024
:1029300047FB4FF683731548059501A9CDE901378B
:10294000CDE9034601F03CFB4CF2037310480595BA
:1029500001A9CDE90137CDE9034601F031FB602340
:102960000C48059501A9CDE90137CDE9034601F0F1
:1029700027FB06B0BDE8F081202600200038024089
:1029800000140240000802400018024000100240FB
:10299000000C02400004024070B588B0002302938E
:1029A000204B1A6C42F010021A641B6C03F01003E7
:1029B0000293054601A903A8029B02F0D1FC069BE5
:1029C0004BBB02F0BDFC184E184B336040F2E733AE
:1029D000F360174BB0FBF3F3013B73603046002309
:1029E0003361B360B36103F0F9FA044680B930464D
:1029F00003F0CAF9044658B9362001F0C9F90F2D81
:102A00000DD822462946362001F090F9094B1D6069
:102A1000204608B070BD02F093FC4000D3E70124CB
:102A2000F6E700BF003802402426002000100040D6
:102A300040420F007C0000207047FEE7FEE7FEE703
:102A4000FEE77047014803F0DDB900BF24260020EF
:102A5000014802F01DB900BFD8240020014801F050
:102A6000E1B900BFD42500200120704708B520F04F
:102A700071FA162303604FF0FF3008BD08B520F04F
:102A800069FA16230360FEE770B50D4614460E463C
:102A9000731B9C4201DC204670BDAFF3008006F83A
:102AA000010BF5E770B50D4614460E46731B9C42AC
:102AB00001DC204670BD16F8010BAFF30080F5E78E
:102AC0004FF0FF3070474FF400534B6000207047C9
:102AD00001207047002070470A4A116808B5034674
:102AE00009B9094911601068694603448B4206D947
:102AF00020F030FA0C2303604FF0FF3008BD136064
:102B0000FCE700BF6C260020C8410120704710B5CB
:102B1000042104461EF012F8204610BD012908B514
:102B200006D0022908D059B900F0DEFC006808BDC3
:102B300000F0DAFC4068FAE700F0D6FC8068F6E7BF
:102B40000020F4E700487047E4480208022070477C
:102B500013B5002451B1036801948DF8034001AA14
:102B60009C680DF10303A04702B010BD0846FBE7C7
:102B7000C0897047008A7047C08870478088704756
:102B8000807A00F07F007047807AC009704700208B
:102B9000704700009FED010A704700BF0000000071
:102BA000704710B5082104461DF0C8FF204610BD2F
:102BB0007047704700F598730868496803C3704709
:102BC000704770474160704770477047064BC0F8C8
:102BD0004C310023C0F8503100F5A273C0F8480111
:102BE000C0F84031704700BF8D2C000801230372EC
:102BF0007047704710B4C26841685410034601EB37
:102C00006200D20748BF0A599B685DF8044B48BF71
:102C1000D35818470346406830B19A681AB9D86843
:102C200000F0010070470120704710B50C210446E8
:102C30001DF084FF204610BD10B5102104461DF084
:102C40007DFF204610BD10B54FF4AE7104461DF057
:102C500075FF204610BD10B50BF070FC0368BDE891
:102C60001040DB6B184710B50446D0F8400158B14E
:102C70000368DB68984738B1D4F8400103689B6863
:102C800098470023C4F8403110BD00002DE9F14FF2
:102C9000D0E9556A0746B06803681B6A984740F652
:102CA0003373984205D8444B444AA32144481FF04B
:102CB000A7FE706803681B6A98470F2803D8414B2A
:102CC0003E4AA421F2E7F06803681B6A98470B2884
:102CD00003D83D4B394AA521E8E70BF02FFCDFF87C
:102CE000F09004300BF04FFCD9F8000010B10368ED
:102CF000DB689847D9F8000010B103681B68984753
:102D0000DFF8D080D8F8000010B103685B699847FD
:102D1000D7F83C0110B103685B689847D8F8000009
:102D200010B103681B689847D7F83C0110B10368DD
:102D30009B689847F068036800215B6A98474FF0EA
:102D4000000B224BC0F804B0044680F808B00360C2
:102D5000B068036859465B6A9847054600F038FC3E
:102D60007068036859465B6A98472946064600F032
:102D700005FC331DC7F83C61C9F80040C8F8005095
:102D8000CAF800302B68C6F808A02846DB68EE6356
:102D90009847336830461B689847214628460DF00F
:102DA00009FE236820461B69984723685B69204613
:102DB00001B0BDE8F04F18478F3F02081D400208E0
:102DC000EF40020836410208D94102089049020842
:102DD000CC340120C8340120044B1B6893F85820E0
:102DE0000AB1D86C00B99868704700BF84340120DC
:102DF000F8B5174604460E460BF062FC124B1C60F9
:102E0000124B2360124B0025C4E95135114BC4E924
:102E100053551868036801219B68C4E94F55C4E9FC
:102E200055769847284600F013FBFFF7D5FF15F0BD
:102E300082FDFFF7D1FF15F0F9FDFFF7CDFF15F08B
:102E400001FE2046F8BD00BFD83401203C490208ED
:102E50002449020884340120064BC0F84C31002379
:102E6000C0F8503100F5A273C0F84801C0F84031F5
:102E7000704700BF8D2C0008406A7047806A704719
:102E800070478A880B8810B5D20A4C88C1699BB2FA
:102E900051F8220043EA0443184410BD10B504461B
:102EA000BAB1107B68B1537BD27A1B0203F4E063A2
:102EB0001A43236A03EB82031A888A4202D193F9E8
:102EC000020010BD05D8013880B204330028F3D1C8
:102ED000F7E70020F5E710B52C2104461DF02EFE83
:102EE000204610BD30B58BB00446BDF86050089543
:102EF000BDF85C5007959DF8505006959DF84C50D4
:102F000005959DF8485004959DF8445003959DF80B
:102F1000405002959DF83C500195BDF83850009501
:102F20000DF016F9064B2360159BE361169B236297
:102F3000199B63621A9BA36220460BB030BD00BF91
:102F4000B449020870477047704770477047704730
:102F500070477047704703681B6B184730B4C268EE
:102F600044685510034604EB6200D20748BF62591B
:102F70009B6830BC48BFD35818470346406830B1FF
:102F80009A681AB9D86800F00100704701207047AC
:102F900010B5102104461DF0D1FD204610BD0000E3
:102FA00010B5034B0360044609F0FEFD204610BD3A
:102FB000344A020810B5064B0360044609F0F4FDDC
:102FC00020464FF473611DF0B9FD204610BD00BFCF
:102FD000344A020800F1C8028A4202D10368DB6A5F
:102FE0001847704770B5036804461B6B1546984731
:102FF0002368294620465B6BBDE87040184770B5D2
:1030000004461D46BDF91060FFF7ECFF2368294612
:1030100020469B6B9847236831462046DB6BBDE812
:1030200070401847F8B5194B018F1B888B42064634
:103030002AD9174B1B682BB9164B174A17486C2116
:103040001FF0DEFC13F81120154B1B6853F82250BB
:10305000144B186800F038FA2B6807469B6B28461B
:1030600098472B6804469B6C3946284698472B683E
:1030700014FB00F45B6A394628469847A4B223182B
:103080001BB2A6F84630F8BD0023FAE7E034012071
:10309000DC3401207C420208BE420208F9420208E8
:1030A000E4340120E83401202DE9F04F044687B0D4
:1030B0000DF0D4FA4B4B23604B4B002504F16C0808
:1030C000C4E910354FF0FF094FF48073A4F8643061
:1030D00004F1B40AC4E91255C4E91455C4E91655FB
:1030E000E563256684F86690A566404607F0A2FF72
:1030F0005046FEF7E9FD3D4BC4F8B43004F1C80674
:103100002433C4F8BC30C4F8C050304608F086FE02
:10311000374BC4F8203F374BC4F8283F4FF4A07713
:1031200004F58870C4F8244FC4F82C5F4FF4616133
:1031300009F030FD04F140002A4629460097F023AB
:103140000390FFF75CFF039804F1040B4FF07F43FB
:10315000A3660146584605F033F914232A46009326
:1031600040466E21FFF74BFF4FF43453C4F8A830AC
:10317000214BC4F8C0304FF47843A4F8C430414622
:103180005846C4E92677C4F8A070C4F8AC50C4F817
:10319000A450C4F894A005F013F94A4629463046D5
:1031A000FFF720FF012305AA04A93046ADF814302B
:1031B000ADF8105008F0A9FC3046A4F80051FFF714
:1031C00031FF4FF0FF33C4E9413304F572635846D1
:1031D000C4F8F030314605F0F3F8204607B0BDE8FA
:1031E000F08F00BF344A02089C4E02085C4C020873
:1031F0001C4A0208D52F00080000FFFF704700009E
:1032000030B5164D2C6814F001048FB0BFF35B8FFE
:1032100020D128461DF094FCE0B13F230993104BC8
:103220000893104B104911480A940122CDE9064336
:103230000423CDE903320A230093CDE90B44CDE901
:1032400001440594FFF74EFE09481FF0F7FB28469E
:103250001DF082FC05480FB030BD00BF7026002075
:103260001C5E0208285E0208605D020874260020C9
:10327000FD3100087047000030B5164D2C6814F081
:1032800001048FB0BFF35B8F21D128461DF058FC9D
:10329000E8B13F230993104B0893104B0793012388
:1032A000CDE9054304930423CDE9024314230C49DB
:1032B00000930B22CDE90B440A480A940194FFF7CE
:1032C00011FE09481FF0BAFB28461DF045FC0548D1
:1032D0000FB030BDA0260020205E02082C5E020840
:1032E000705D0208A42600207532000870470000B7
:1032F00030B5164D2C6814F001048FB0BFF35B8F0E
:1033000020D128461DF01CFCE0B13F230993104B4F
:103310000893104B104911480A940122CDE9064345
:103320000423CDE9033228230093CDE90B44CDE9F2
:1033300001440594FFF7D6FD09481FF07FFB28469E
:103340001DF00AFC05480FB030BD00BFD02600209C
:10335000245E0208305E02080C5E0208D4260020BB
:10336000ED32000800207047002070470EB403B50E
:1033700003AB002153F8042B01930CF067F902B062
:103380005DF804EB03B070470CB407B504AB53F819
:10339000042B01930CF05AF903B05DF804EB02B072
:1033A00070470000436C10B5044673B3038F2BB90C
:1033B000184B194AC52119481FF022FBC38E00EB98
:1033C00043035B8C0BB30EF034F8238F012B03D82F
:1033D000134B144ACB21EEE7E28E531C9BB2092B10
:1033E000194688BFA3F10A0104EB410140F63F10E2
:1033F000498C814209D10A2B04EB420228BF0023E9
:1034000004EB4303508C588451842046BDE810409F
:103410000DF012BF4043020849430208F44302087A
:103420003E4402084C4402080DF0CDBE10B586B0F3
:1034300002AC84E806001A460AAB05930193099B87
:1034400000932146089B0AF017FC06B010BD00004F
:1034500038B518BB124B13481C681349B4B1226825
:1034600022440260626822440A60A26814440F4B3E
:1034700000221A8000F038F8054600F033F80C4BB3
:103480001C600C4B1D600C4B188007E00B4B03605D
:103490000B4B0B600B4B1C68002CE8D138BD00BFF8
:1034A0000C270020042700200027002008270020E8
:1034B000DC340120E4340120E0340120385E0208CD
:1034C000345E0208505E0208044B1B6853F821006A
:1034D000034B1B6803EB4000704700BF0027002030
:1034E0000427002001207047004870471027002063
:1034F00010B5FFF7C1FE044C2060FFF7F9FE6060D5
:10350000FFF77EFEA06010BD1027002010B500243C
:1035100004600C6014601C6010BD704710B54FF45F
:10352000AE7104461DF00AFB204610BD10B50446DE
:10353000D0F8580100F013F82046BDE810400BF019
:103540007FB8000010B50446FFF752FC014B236022
:10355000204610BD704A0208002202607047704782
:10356000704704387047704710B5102104461DF0AD
:10357000E5FA204610BDA0F10400F5E700228260C4
:10358000024A026018324260C1607047C44A0208B1
:103590007047000002484FF4005100F000BE00BF29
:1035A0000018024010B5034B03600446FFF7F8FC17
:1035B000204610BDEC4A020810B50446FFF7F2FFA2
:1035C000204640F634711DF0B9FA204610BD0000C7
:1035D00010B50446FFF768FD034B23600023C4F8D1
:1035E000303F204610BD00BFEC4A0208FFF7B2BCD6
:1035F0002DE9F04FD0F8303F484D2DED028B0133CF
:10360000F022B3FBF2F102FB113483B08246C0F822
:10361000304F286802F076FF00287AD04FF0FF3351
:10362000286800220DF1070102F03CFF9DF80730E9
:10363000582B6ED107EE904A9FED397AF8EEE77A73
:103640000AF16C0B87EE878A68EE077A17EE900A0C
:10365000FDF7ACF841EC100B1DF09EFBF0EE087A84
:1036600068EE277A55EC104B17EE900AFDF79EF89E
:1036700041EC100B1DF08CFA78EE087A57EC106BC9
:1036800017EE900AFDF792F841EC100B1DF080FA4E
:1036900018EE100A59EC108BFDF788F841EC100B6E
:1036A0001DF076FA424651EC100B4B46FCF720FF1A
:1036B00032463B46FCF71CFF1A4B0022FCF718FF72
:1036C000FDF77CF9DFED187A07EE100A67EE277A2E
:1036D00017EE900AFDF76AF841EC100B1DF05CFB49
:1036E00051EC100BFDF742F9BAF87260C6F1C8064A
:1036F000361A29462046FDF739F9BAF8703036B245
:10370000C11A3246584609B20CF04CF9584608F036
:1037100083F903B0BDEC028BBDE8F08F402400209C
:1037200000005C420000F03F00004842F02070477B
:103730004FF4A07070472920FEF79EBE2820FEF7A8
:103740009BBE08B5FEF76CFECA20FEF795FEC320AF
:10375000FEF776FE0820FEF773FE5020FEF770FE9F
:10376000CF20FEF789FE0020FEF76AFEC120FEF79B
:1037700067FE3020FEF764FEED20FEF77DFE64203C
:10378000FEF75EFE0320FEF75BFE1220FEF758FEFA
:103790008120FEF755FEE820FEF76EFE8520FEF73D
:1037A0004FFE0020FEF74CFE7820FEF749FECB20AE
:1037B000FEF762FE3920FEF743FE2C20FEF740FEA6
:1037C0000020FEF73DFE3420FEF73AFE0220FEF711
:1037D00037FEF720FEF750FE2020FEF731FEEA20EC
:1037E000FEF74AFE0020FEF72BFE0020FEF728FE23
:1037F000B120FEF741FE0020FEF722FE1B20FEF75F
:103800001FFEB620FEF738FE0A20FEF719FEA220A2
:10381000FEF716FEC020FEF72FFE1020FEF710FE6A
:10382000C120FEF729FE1020FEF70AFEC520FEF794
:1038300023FE4520FEF704FE1520FEF701FEC720FB
:10384000FEF71AFE9020FEF7FBFD3620FEF714FE71
:10385000C820FEF7F5FDF220FEF70EFE0020FEF771
:10386000EFFDB020FEF708FEC220FEF7E9FDB6200E
:10387000FEF702FE0A20FEF7E3FDA720FEF7E0FDBB
:103880002720FEF7DDFD0420FEF7DAFD2A20FEF7F3
:10389000F3FD0020FEF7D4FD0020FEF7D1FD00204F
:1038A000FEF7CEFDEF20FEF7CBFD2B20FEF7E4FD6B
:1038B0000020FEF7C5FD0020FEF7C2FD0120FEF747
:1038C000BFFD3F20FEF7BCFDF620FEF7D5FD012031
:1038D000FEF7B6FD0020FEF7B3FD0620FEF7B0FDB3
:1038E0002C20FEF7C9FDC820FEF714FE2620FEF7A7
:1038F000C3FD0120FEF7A4FDE020FEF7BDFD0F2073
:10390000FEF79EFD2920FEF79BFD2420FEF798FD83
:103910000C20FEF795FD0E20FEF792FD0920FEF724
:103920008FFD4E20FEF78CFD7820FEF789FD3C20B0
:10393000FEF786FD0920FEF783FD1320FEF780FDCC
:103940000520FEF77DFD1720FEF77AFD1120FEF71A
:1039500077FD0020FEF774FDE120FEF78DFD0020CD
:10396000FEF76EFD1620FEF76BFD1B20FEF768FDCF
:103970000420FEF765FD1120FEF762FD0720FEF72B
:103980005FFD3120FEF75CFD3320FEF759FD42203C
:10399000FEF756FD0520FEF753FD0C20FEF750FD07
:1039A0000A20FEF74DFD2820FEF74AFD2F20FEF7E6
:1039B00047FD0F20FEF744FD1120FEF75DFDC820F6
:1039C000FEF7A8FD2920FEF757FDBDE808402C2092
:1039D000FEF752BD08B5FEF723FD0321D320FEF705
:1039E00067FD80B208BD10B5C4B202220321204693
:1039F000FEF7CCFC0A20FEF711FD20460022032131
:103A0000FEF7C4FCBDE810400220FEF707BD38B544
:103A10000446E4B2FEF7B8FC00212046FEF7CEFCD7
:103A2000012105462046FEF7C9FC40EA052080B288
:103A300038BD10B5C4B240212046FEF7BFFC0306D6
:103A400007D54C212046FEF7B9FC003818BF0120ED
:103A500010BD01224B212046FEF798FC2046002293
:103A60004B21FEF793FC0020F2E773B50423C4B2A8
:103A70000E461546D7210DEB03022046FEF7B8FC93
:103A8000019B1BBA1A0DC3F30B23328020462B80F7
:103A900001224B21FEF77AFC00224B212046FEF743
:103AA00075FC02B070BD000010B50A4A1378984248
:103AB00004460DD0517888420AD00BB141B9012398
:103AC000D454FEF761FC2046BDE81040FFF78BBFE1
:103AD00010BD00BF1C27002010B5C4B2092120462C
:103AE000FEF76CFC40F00102D2B220460921BDE88D
:103AF0001040FEF74BBC10B5C4B209212046FEF7BA
:103B00005DFC092100F0FE022046BDE81040FEF7F2
:103B10003DBC38B5C4B20D4620460A21FEF74EFC26
:103B200040EA0502D2B220460A21BDE83840FEF73D
:103B30002DBC10B50446FEF728FC20461F21FFF7D8
:103B4000E8FF2046BDE81040FFF7C6BF38B5C4B255
:103B50000D4620460A21FEF731FC20EA0502D2B2CA
:103B600020460A21BDE83840FEF710BC10B50446D7
:103B7000FFF7C1FF20461F21BDE81040FFF7E6BF59
:103B800010B5C0B20C460B21FEF718FC204010BD4A
:103B90001F21FFF7F5BF0A46C0B20B21FEF7F6BBA7
:103BA0001F21FFF7F8BF38B5C4B20D4620461721D4
:103BB000FEF704FC20EA0502D2B220461721BDE838
:103BC0003840FEF7E3BB70B5C4B206460421204678
:103BD000FEF7F4FB042100F0FB0205462046FEF749
:103BE000D5FB3046F021FFF7DEFF05F0F802204656
:103BF0000421FEF7CBFB492220212046FEF7C6FB1D
:103C00000220FEF70BFC204601222121FEF7BEFB1D
:103C100020469A224121FEF7B9FB204601224A2183
:103C2000FEF7B4FB204601224B21FEF7AFFB2046F6
:103C300000224B21FEF7AAFB204601225621FEF767
:103C4000A5FB204601225821FEF7A0FB20460122B9
:103C50004021FEF79BFB2046FF220B21FEF796FB3F
:103C6000BDE870400220FEF7D9BB0000054BD3F839
:103C7000882042F47002C3F888204FF000629A60F6
:103C8000704700BF00ED00E008B50B4B1A6842F426
:103C900000721A601A6842F480621A601A6842F46C
:103CA00080721A60032000F02FF80020FEF774FEE7
:103CB000FEF73EFC002008BD003C0240034A044BD6
:103CC00011681B780B441360704700BF2027002049
:103CD00078000020014B1868704700BF20270020A3
:103CE00038B50446FFF7F6FF631C1CBF054B1B7875
:103CF000054618BFE418FFF7EDFF431BA342FAD3B4
:103D000038BD00BF780000200749CA6822F4E0628D
:103D10000302120403F4E063120C134343F0BF6385
:103D200043F40033CB60704700ED00E0164B30B534
:103D3000DC68C4F30224C4F10703251D042B28BF4B
:103D40000423062D4FF0FF358CBF033C002405FAF9
:103D500003F321EA0303A54022EA0502A340002859
:103D600043EA0203ACBF00F16040084A4FEA031384
:103D7000B8BF00F00F00DBB2AABF00F561401354DA
:103D800080F8003330BD00BF00ED00E014ED00E02E
:103D9000002807DB044A4109012300F01F0083408B
:103DA00042F82130704700BF00E100E010B5044642
:103DB00050B1437903F0FF0213B90271FEF7D8FB4B
:103DC00001236371002010BD0120FCE710B50446FB
:103DD00020B390F8393003F0FF021BB980F8382087
:103DE000FEF7DEFB022384F83930236861681A6825
:103DF00022F440320A431A605A6BA16822F007028B
:103E00000A435A631A6CE1686FF30D020A431A649D
:103E100000200123E06384F8393010BD0120FCE765
:103E200070477047036870B55E681D68F207044606
:103E300014D5E90512D51A6822F480721A60C26B93
:103E400042F00102C26301229A60042380F83930F3
:103E5000002380F83830436903B19847B20616D57D
:103E6000AB0414D523681A6822F400521A60202289
:103E70009A60E36B43F00203E363042384F8393070
:103E8000002384F8383063690BB120469847300727
:103E900016D5290514D523681A6822F400621A6021
:103EA00008229A60E36B43F00403E363042384F87D
:103EB0003930002384F8383063690BB120469847C5
:103EC00072070BD56B0509D523681A6822F4806246
:103ED0001A6004229A602046FFF7A2FFB00714D5AB
:103EE000A90512D523681A6822F400721A6002220A
:103EF0009A60E36BE363012384F83930002384F88C
:103F0000383023690BB120469847F20613D5EB04ED
:103F100011D523681A6822F480521A6010229A6020
:103F2000E36BE363012384F83930002384F83830ED
:103F30002046FFF776FF70BDF0B590F83820012AD3
:103F400003464FF002002BD0012283F8382083F87B
:103F5000390003EB0112D2E90740556A174F44EAD2
:103F60000040093C012C9CBF05F07F4210434FEA02
:103F700001161A6888BF40EA056091B9516A394054
:103F800001435162012C9969916103D8596A21F06A
:103F90007F4191620122002083F8392083F83800A4
:103FA000F0BDD16939400143D1619919012C89696A
:103FB00011619CBF25F07F451562EBE7F0FFFC0027
:103FC0002DE9F74FDFF8BC916C4A00230D680124FE
:103FD0009C4004EA0506AC4340F0B7804D680327D7
:103FE00005F003044FEA430807FA08FC671E012F97
:103FF0006FEA0C0C34D8876807EA0C0ECF6807FA12
:1040000008F747EA0E078760476827EA060EC5F3F8
:1040100000179F4047EA0E074760C76807EA0C0E83
:104020008F6807FA08F747EA0E07022CC76019D114
:104030004FEAD30A00EB8A0A03F0070BDAF8207084
:104040004FEA8B0B4FF00F0E0EFA0BFE27EA0E0E07
:104050000F6907FA0BF747EA0E07CAF8207001E06C
:10406000032CDAD1076804FA08F407EA0C073C438A
:1040700015F4403F046068D000240194D9F844400E
:1040800044F48044C9F84440D9F8444023F003077D
:1040900007F1804704F4804407F59C37019403F04E
:1040A000030C019CD7F808E04FEA8C0C0F2404FAAB
:1040B0000CF42EEA040E324CA0424DD004F580647C
:1040C000A0424BD004F58064A04249D004F580643E
:1040D000A04247D004F58064A04245D004F5806436
:1040E000A04243D004F58064A04241D004F580642E
:1040F000A0423FD004F58064A0423DD004F5806426
:10410000A04214BF0A24092404FA0CF444EA0E0461
:10411000BC609468F74315F4801F0CBF3C403443E7
:104120009460D46815F4001F0CBF3C403443D46045
:10413000546815F4003F0CBF3C403443546014688D
:10414000ED0354BF3C40344314600133102B7FF423
:104150003DAF03B0BDE8F08F0024D5E70124D3E7DD
:104160000224D1E70324CFE70424CDE70524CBE7DD
:104170000624C9E70724C7E70824C5E7003C014037
:1041800000000240003802400369194214BF0120B8
:10419000002070470AB1816170470904FBE7436959
:1041A00001EA030221EA030141EA02418161704709
:1041B00001684B6913F480634FF0000210D06FF474
:1041C00080634B612023026380F83D3080F83E20FD
:1041D000036C80F83C2043F0040303640120704723
:1041E000184670472DE9F84606460F4691461D468B
:1041F0004FEA114A3368BAF1010F0CBF5C699C6940
:1042000027EA0404A4B2B4FA84F46409A14501D0F5
:10421000002025E06A1CEED0FFF75CFD089BC01A69
:10422000A84201D8002DE5D13368BAF1010F0CBFC7
:104230005B699B6927EA03039BB2B3FA83F35B09CB
:104240009945D7D100232022336386F83D2086F894
:104250003E30326C86F83C3042F02002326401205D
:10426000BDE8F8862DE9F04104460F46164698460B
:104270002568686927EA000080B2C0B16B695A05F9
:1042800017D52B6843F400732B606FF480636B6168
:1042900020220023236384F83D2084F83E30236CE1
:1042A00043F004032364002384F83C300120BDE87C
:1042B000F081731CDDD0FFF70DFDA0EB0800B042CC
:1042C00001D8002ED4D123685A6927EA020292B29B
:1042D000002ACDD000232022236384F83D2084F8D7
:1042E0003E30236C1343DDE770B504460D46164699
:1042F00023685B691B0601D500201EE02046FFF7FE
:1043000057FFC8B96A1CF3D0FFF7E4FC801BA84232
:1043100001D8002DECD123685B6913F08003E7D14D
:104320002022236384F83D2084F83E30226C84F8F8
:104330003C3042F020022264012070BD2DE9F043A0
:104340001546026885B0DDE90C789946136843F498
:10435000807313600E463B46CDF8008000224FF07C
:1043600001110446FFF73EFF236838B11B68DB05E7
:1043700002D54FF400732364032620E006F0FE0606
:104380001E611A4943463A462046FFF76BFFA8B91B
:10439000236803905A6903929B6903934246394606
:1043A0002046039BFFF7A0FF064660B1236C042B59
:1043B00001BF2268136843F400731360012630467E
:1043C00005B0BDE8F083B9F1010F236802D1EDB269
:1043D0001D61F4E72A0A1A61394642462046FFF772
:1043E00083FF0028E2D12368F1E700BF020001004B
:1043F0002DE9FF479A46036815461A6842F4806221
:104400001A601A68DDE90C7842F480721A600E4670
:104410003B46CDF8008000224FF001110446FFF723
:10442000E1FE236838B11B68DB0544BF4FF400731D
:104430002364032021E05FFA86F906F0FE061E6180
:104440002B4943463A462046FFF70CFFA0B92368A4
:1044500003905A6903929B6903934246394620466A
:10446000039BFFF741FF58B1236C042B01BF226867
:10447000136843F400731360012004B0BDE8F087B3
:10448000BAF1010F23681AD1EDB242461D613946D7
:104490002046FFF729FF02460028E5D121680B6876
:1044A00043F480730B602046CDF800803B464FF00C
:1044B0000111FFF797FE226860B11368B4E72A0A7A
:1044C0001A61394642462046FFF70EFF0028CBD13D
:1044D0002368D9E749F001031361054943463A4689
:1044E0002046FFF7BFFE003818BF0120C5E700BF18
:1044F0000200010070B504460D46164623685B694C
:104500005B0701D500201EE02046FFF751FEC8B929
:104510006A1CF3D0FFF7DEFB801BA84201D8002DF8
:10452000ECD123685B6913F00403E7D120222363F5
:1045300084F83D2084F83E30226C84F83C3042F010
:1045400020022264012070BD70B504460D46164657
:1045500021684B6913F0400301D0002011E04A6943
:10456000D2060FD56FF010024A612022236384F82F
:104570003D2084F83E30236C2364002384F83C30D3
:10458000012070BDFFF7A6FB801BA84201D8002DBB
:10459000DED123685B6913F04003D9D12022236365
:1045A00084F83D2084F83E30236C1343E4E7000098
:1045B00070B5044608B9012070BD90F83D3003F095
:1045C000FF021BB980F83C20FEF70CF8242384F886
:1045D0003D3023681A6822F001021A601A6842F41A
:1045E00000421A601A6822F400421A6000F0A8FE25
:1045F0003F4B65689D4294BF3E4B3F4B98428CBFFA
:1046000000230123002BD6D12268394E51683B4B41
:10461000B0FBF3F321F03F011943B542516088BF6D
:104620004FF49676116A88BF734321F03F0184BF2F
:104630004FF47A76B3FBF6F301330B431362D1697F
:10464000431E2B4821F44F41854221F0FF0132D80F
:104650006D0040F6FC70B3FBF5F30133034242D02A
:10466000C3F30B031943D161D4E907301168034345
:1046700021F0C0010B4313609168D4E9030321F4D6
:104680000341034321F0FF010B439360D4E905305C
:10469000D168034321F0FF010B43D360136843F05B
:1046A0000103136000202023206484F83D30206340
:1046B00084F83E0080E7A06850B905EB4505B3FBE0
:1046C000F5F30133C3F30B037BB143F40043C9E7B4
:1046D00019206843B3FBF0F30133C3F30B0323B199
:1046E00043F44043BEE70423BCE70123BAE700BF1D
:1046F000A08601007F841E00FF083D0040420F009D
:104700002DE9F743044699460C9E0F469046FFF765
:10471000E1FA94F83D30202B054603D0022003B087
:10472000BDE8F08300903C49192301222046FFF7A1
:1047300059FD0028F2D194F83C30012BEED02068CE
:10474000012384F83C300368D9075EBF036843F057
:1047500001030360036823F400630360212384F8EA
:104760003D30402384F83E30002323640A9B63627B
:10477000BDF82C306385638D2385284BE362424668
:10478000CDE900654B4639462046FFF7D7FD0028A6
:104790002AD00120C3E7FFF7A7FD40B1236C042B0B
:1047A00001BF2268136843F400731360F1E7636A82
:1047B00027681A4612F8011B39616262628D218DE9
:1047C000013A92B262857A69481E80B2520720850A
:1047D0000AD548B15A783A6102336362638D013B6E
:1047E00002399BB221856385238D2A4631462046B6
:1047F000002BD0D1FFF77EFE0028CFD122681368AE
:1048000043F400731360202384F83D3084F83C00A7
:1048100084F83E0083E700BF020010000000FFFFA5
:104820002DE9F043044687B09946109F0D46904607
:10483000FFF750FA94F83D30202B064604D00225AD
:10484000284607B0BDE8F08300907A491923012279
:104850002046FFF7C7FC0028F1D194F83C30012B2B
:10486000EDD02068012384F83C300368DB075EBF8D
:10487000036843F001030360036823F400630360EB
:10488000222384F83D30402384F83E300023236403
:104890000E9B6362BDF83C306385638D2385664B58
:1048A000E3622946CDE900764B4642462046FFF7B3
:1048B0009FFD054608B10125C2E7228D2368B2B9E4
:1048C00002905A6902929A690292029A1A6842F414
:1048D00000721A60DFF86481238D002B2CD1202216
:1048E00084F83D2084F83C3084F83E30A8E7012A63
:1048F0000AD11A6822F480621A6003905A690392FE
:104900009A690392039AE1E7022A0ED11A6822F407
:1049100080621A601A6842F400621A6004905A6950
:1049200004929B690493049BD4E705905A6905920D
:104930009B690593059BCDE7032B56D8012B15D119
:10494000324639462046FFF7FFFD0028B3D12368E1
:104950001A69636A1A70636A01336362238D013BCB
:104960002385638D013B9BB26385B5E7022B0096DF
:104970003B464FF000024146204619D1FFF732FC7A
:10498000002898D123681A6842F400721A601A69E4
:10499000636A1A70626A531C6362238D013B23852C
:1049A000638D013B9BB2638523681B695370D2E71B
:1049B000FFF718FC024600287FF47DAF23681968D2
:1049C00021F4806119601969636A1970636A01339F
:1049D0006362238D013B2385638D013B9BB263851D
:1049E000414600963B462046C8E7324639462046B7
:1049F000FFF7AAFD00287FF45EAF23681A69636A97
:104A00001A70628D616A013A92B24B1C628522680B
:104A10006362238D5069013B9BB2400723857FF57C
:104A20005BAF032B02BF136823F480631360136929
:104A30004B7090E7020010000000FFFF040001002F
:104A400010B590F83D30202BDCB216D1242380F82D
:104A50003D3003681A6822F001021A605A6A22F097
:104A600010025A625A6A114359621A6842F00102EE
:104A70001A6080F83D40002010BD0220FCE730B5F0
:104A800090F83D30202BDCB216D10268242380F848
:104A90003D30136823F001031360556A4FF6F0733D
:104AA0002B400B439BB25362136843F00103136026
:104AB00080F83D40002030BD0220FCE70068D1F8BE
:104AC00000C0D201843283182DE9F043C6685D68C6
:104AD0004C68D1F8189005F470455D60C5680CF11C
:104AE0000107C5F30B45C6F30B4626443D4445EA92
:104AF00006455D60C668CD68C6F30A062E449D680B
:104B000005F470459D60C7688D68C7F30A070135D5
:104B10003D4445EA06459D601D690E6925F007057F
:104B20001D614FF0000E1E6191F832709D6991F881
:104B30003180C3F818E091F8305045EA096545EA3C
:104B4000082545EA07459D615D6925F0FF055D6122
:104B50004D695D61DD6925F4E06525F00705DD61DE
:104B6000D1E907573D43DD619D6A4D6AC3F828E0EE
:104B7000072E9D629CBF0E4DAE5DDD6A05F0E025FF
:104B8000DD6288BF01268D6AC96AA4EB0C047443F8
:104B90007543033444EA0544DC621C6B6FF30A047A
:104BA0001C631963835843F001038350BDE8F0830D
:104BB000384B020838B50446002863D090F8A1307D
:104BC00003F0FF021BB980F8A020FDF767FD022368
:104BD00084F8A13023689A6922F070429A61D4E97E
:104BE00001200243E06899690243206902430A43B5
:104BF0009A619A68244960690A409A609A6842EA10
:104C00000042A06902439A60DA68E0690A40DA600B
:104C1000DA6842EA0042206A0243DA601A69606A8E
:104C20000A401A611A6942EA0042A06A02431A6104
:104C30005A690A405A615A69E16A42EA0142216BA3
:104C40000A435A61DA6A94F8350094F8361002F093
:104C50007F42DA62DD6A94F834202A4342EA002275
:104C600042EA0142DA625A6B42F006025A639A69DA
:104C700042F001029A6100200123C4F8A40084F8E4
:104C8000A13038BD0120FCE700F800F07047704704
:104C9000036870B59E6B5D6B7207044614D5690797
:104CA00012D55A6B22F004025A630422DA63D0F858
:104CB000A43043F00103C0F8A430002380F8A12001
:104CC00080F8A030FFF7E2FFB20716D5AB0714D586
:104CD00023685A6B22F002025A630222DA63D4F884
:104CE000A4301343C4F8A430042384F8A130002373
:104CF00084F8A0302046FFF7C9FFF00710D5E90778
:104D00000ED523685A6B22F001025A630122DA633E
:104D1000002384F8A12084F8A0302046FDF762F833
:104D2000320711D52B070FD523685A6B22F00802E2
:104D30005A630822DA63012384F8A130002384F83F
:104D4000A0302046FFF7A3FF70BD2DE9F04190F899
:104D5000A030012B06460F4694464FF002001FD0AC
:104D60004FF0010886F8A08086F8A10034240D4693
:104D700004FB02640FCD38340FC40FCD0FC40FCD28
:104D80000FC42B682360304662463946FFF796FE13
:104D900033680020C3F8248086F8A18086F8A0003C
:104DA000BDE8F08190F8A020012A03464FF00200F0
:104DB00012D01A6883F8A100506B20F001005063F4
:104DC00006480164516B41F001015163002001224A
:104DD00083F8A12083F8A000704700BF006801405D
:104DE00037B500230193184B184D1A6C42F08052CE
:104DF0001A641B6C03F080530193019B144B012236
:104E00001A64FEF767FF04466B68DA030BD5104B94
:104E10000E4D01225A64FEF75DFF04466B689B034A
:104E20000AD5002006E0FEF755FF001BB0F57A7F9B
:104E3000EAD9032003B030BDFEF74CFF001BB0F5EC
:104E40007A7FEBD9F5E700BF0038024000700040E0
:104E500000000E422DE9F341044640B30368DE072B
:104E600010D423689D075BD42368190700F19D8047
:104E700023685A0700F1BD80A369002B40F024810C
:104E800000202CE08D4B9A6802F00C02042A07D017
:104E90009A6802F00C02082A0BD15B68590208D507
:104EA000864B1B689A03DCD56368002BD9D101209F
:104EB00015E06368814DB3F5803F13D12B6843F44F
:104EC00080332B60FEF706FF7C4E054633689B035C
:104ED000C7D4FEF7FFFE401B6428F7D9032002B0B9
:104EE000BDE8F081B3F5A02F04D12B6843F48023F3
:104EF0002B60E3E72A6822F480322A602A6822F4D1
:104F000080222A60002BDDD1FEF7E4FE06462B68E6
:104F10009F03A6D5FEF7DEFE801B6428F7D9DDE7E8
:104F2000664B9A6812F00C0F07D09A6802F00C02D8
:104F3000082A11D15B685D020ED4604A1368990794
:104F400002D5E368012BB2D11368216923F0F8037D
:104F500043EAC103136087E7E268594BB2B101220B
:104F60001A60FEF7B7FE554D06462B689B0707D51E
:104F70002B68226923F0F80343EAC2032B6073E72E
:104F8000FEF7A8FE801B0228EFD9A7E71A60FEF7FC
:104F9000A1FE4A4E054633689F077FF565AFFEF7D1
:104FA00099FE401B0228F6D998E76269444B82B10A
:104FB0000122C3F8802EFEF78DFE404E0546736F2A
:104FC0009B073FF555AFFEF785FE401B0228F6D93B
:104FD00084E7C3F8802EFEF77DFE384E0546736FDA
:104FE0009F077FF545AFFEF775FE401B0228F6D9F7
:104FF00074E7324B1A6C12F0805228D101921A6C6D
:1050000042F080521A641B6C03F080530193019BA1
:1050100001272C4D2B68D8051BD5A368274D012BE4
:1050200027D12B6F43F001032B67FEF753FE234E6E
:10503000054641F28838336F9A0739D5002F3FF47F
:105040001BAF1E4A136C23F08053136414E7002730
:10505000DFE72B6843F480732B60FEF73BFE0646C8
:105060002B68D905D9D4FEF735FE801B0228F7D965
:1050700034E7052B04D12B6F43F004032B67D0E7F3
:105080002A6F22F001022A672A6F22F004022A679F
:10509000002BCAD1FEF71EFE41F2883806462B6F60
:1050A0009B07CBD5FEF716FE801B4045F7D915E7C9
:1050B000FEF710FE401B4045BDD90FE70038024007
:1050C0000000474200700040374DAA6802F00C0211
:1050D000082A3ED0022B354B4FF000021A662BD126
:1050E000FEF7F8FD06462B6899011FD4D4E9073274
:1050F0001343626A43EA8213E26A43EA0263A26AE2
:105100005208013A43EA02436B60284B264D0122C4
:105110001A66FEF7DFFD04462B689A013FF5B0AE34
:10512000FEF7D8FD001B0228F6D9D7E6FEF7D2FD20
:10513000801B0228D7D9D1E6FEF7CCFD04462B68A8
:105140009B017FF59DAEFEF7C5FD001B0228F6D939
:10515000C4E6012B3FF4ABAE6B68E26903F4800157
:1051600091427FF4A4AE216A03F03F028A427FF4A9
:105170009EAE616A47F6C0721A40B2EB811F7FF49F
:1051800096AEA26A520803F44031013AB1EB024FE5
:105190007FF48DAEE26A03F07063B3EB026F14BF6D
:1051A000012000209BE600BF00380240000047427B
:1051B000134908B58B6803F00C03042B1CD0082B93
:1051C0001CD14A684B68496813F4800314BF0D482A
:1051D0000D48C1F3881118BF002302F03F02A1FB64
:1051E0000001FBF78BFC064B5B68C3F30143013303
:1051F0005B00B0FBF3F008BD0248FCE70248FAE7A9
:105200000038024000127A000024F4002DE9F04139
:105210000D46044610B90120BDE8F081434B1A68E1
:1052200002F00F028A4228D321688F072DD4C807C5
:1052300040D43E4B1A6802F00F02AA4265D8226899
:1052400051076BD4130707D5394A2169936823F4B2
:10525000604343EAC1039360FFF7AAFF344B354A2A
:105260009B68C3F30313D35CD840334B1860334BB4
:105270001868FDF791FB0020CEE7CAB21A701B68D0
:1052800003F00F038B42C6D1CEE7294B11F0040F78
:105290001EBF9A6842F4E0529A600E0742BF9A68B5
:1052A00042F460429A609A68A06822F0F0020243D9
:1052B0009A60BCE762681E4B012A1CD11B6813F47C
:1052C000003FA8D01A4EB36823F003031343B36022
:1052D000FEF700FD41F288380746B368626803F0C4
:1052E0000C03B3EB820FA4D0FEF7F4FCC01B4045C7
:1052F000F3D9032090E7911E01291B6802D813F00F
:10530000007FDEE713F0020FDBE7EAB21A701B68DA
:1053100003F00F03AB427FF47EAF90E70449E068EF
:105320008B6823F4E05303438B608BE7003C02401F
:1053300000380240284B0208740000207C00002046
:10534000044B054A9B68C3F38223D35C034A10686D
:10535000D840704700380240204B020874000020FB
:105360000F2303600B4B9A6802F0030242609A68B5
:1053700002F0F00282609A6802F4E052C2609B6818
:10538000DB0803F4E0530361034B1B6803F00F03D6
:105390000B60704700380240003C0240036813F085
:1053A000430FF7B5044640F08880236813F00C0FD4
:1053B00045D08C4B8C4D00221A67FEF78BFC0646BD
:1053C0002B68990000F1CB8021684A0715D5D4E9F4
:1053D0000403D5F888201B0602F0E04243EA80135C
:1053E0001343C5F88830D5F88C30226A23F4F8537B
:1053F000013A43EA0223C5F88C300B0714D57A4AE8
:10540000A369D2F8881020691B0701F0706143EA94
:1054100080130B43C2F88830D2F88C30616A23F4D1
:1054200040330B43C2F88C306E4B6F4E01221A672B
:10543000FEF750FC054633689F0040F197802368D3
:10544000980634D500230193674B684D1A6C42F0DF
:1054500080521A641B6C03F080530193019B2B68EC
:1054600043F480732B60FEF735FC06462B68D805A5
:1054700040F183805C4DA26A2B6F13F4407340F0BF
:105480008380A36A03F44072B2F5407F564A40F02D
:105490009E80916823F0704021F4F81120F4407050
:1054A00001439160116FC3F30B030B431367236830
:1054B000DB0600F1908000204FE04A4B4A4E00226C
:1054C0009A66FEF707FC054633681F013FD4216842
:1054D000C80741BFD4E901231B0743EA8213C6F87A
:1054E00084308A0715D5404AE368D2F8840065689D
:1054F0001B0600F0E04043EA85130343C2F8843002
:10550000D2F88C00E36920F01F00013B0343C2F88E
:105510008C304B060AD5E36862681B0643EA8213A7
:10552000A26843EA0273304AC2F884302D4B2E4EF3
:1055300001229A66FEF7CEFB054633681F013FF550
:1055400034AFFEF7C7FB401B0228F6D904E0FEF794
:10555000C1FB401B0228B7D9032003B0F0BDFEF702
:10556000B9FB801B02287FF62BAFF5E7FEF7B2FBF5
:10557000401B02287FF65FAFEEE7FEF7ABFB801B18
:1055800002287FF673AFE7E702F4407293423FF4DC
:1055900078AF2B6F134A0121C2F8401E23F44073E9
:1055A0000021C2F8401E2B672B6FD9077FF569AF2A
:1055B000FEF790FB41F2883706462B6F9A073FF5BE
:1055C00060AFFEF787FB801BB842F6D9C4E791684D
:1055D00021F4F81165E7064B94F82C20C3F8E0217C
:1055E00069E700BF000047420038024000700040F9
:1055F0000010474238B50D460446C8B190F82C302B
:1056000003F0FF021BB980F82D20FDF759F90223A2
:1056100084F82C30211D206800F00EFD626820689F
:10562000294600F03FFD012384F82C30002038BDCE
:105630000120FCE770B590F82C30022B05460E4691
:10564000D8B212D000F0FB04012C0FD1022385F850
:105650002C30286800F05CFD3368022B06BF052360
:1056600085F82C3085F82C40002070BD0120FCE727
:1056700038B590F82C30022B0446D8B20DD094F8EF
:105680002C30012BDDB209D10223206884F82C30A4
:1056900000F062FD84F82C50002038BD0120FCE7AA
:1056A0002DE9F3471F46894690460446FEF712FB54
:1056B0000A9D3D442D1AFEF70DFB264B1E68C6F3CE
:1056C000CB366E43824601962268936839EA03031B
:1056D0000CBF01230023434501D100202EE07B1C99
:1056E000F3D0FEF7F7FAA0EB0A00A84229D323680B
:1056F0005A6822F0E0025A606268B2F5827F0AD1ED
:10570000A268B2F5004F02D0B2F5806F03D11A68DB
:1057100022F040021A60A26AB2F5005F07D11A684F
:1057200022F400521A601A6842F400521A600123EF
:1057300084F85130002384F85030032002B0BDE8D3
:10574000F087019A019B002A03F1FF33019308BF00
:105750001546B9E774000020F0B585B00B460092FD
:105760000E461746022101220446FFF799FF05461F
:1057700028B1636D43F020036365032515E0124BE8
:105780001868124BB0FBF3F04FF47A735843636818
:105790000390B3F5827F0BD1009733462A468021D0
:1057A0002046FFF77DFF0028E3D1284605B0F0BD75
:1057B000039B002BF9D0039B013B039323689B6859
:1057C0001B06F5D4F1E700BF7400002000366E011F
:1057D00037B50B464168B1F5827F044608D0009288
:1057E00001210022FFF75CFFD0B9002003B030BDDB
:1057F0008168B1F5004F02D0B1F5806F07D12568FF
:105800002868B1F5806F20F04000286004D0009235
:10581000802100222046E5E7009201210022F9E7DD
:10582000636D43F0200363650320DFE710B5044692
:10583000002855D0436A002B4ED14268B2F5827FD2
:1058400000D0C3610023A36294F8513003F0FF023B
:1058500023B984F850202046FCF7FCFF2168A0689B
:10586000A269022384F851300B6823F040030B60D7
:10587000636800F4044003F482730343E06800F4B7
:1058800000600343206900F002000343606900F0F8
:105890000100034302F400700343E06900F03800A4
:1058A0000343206A00F080000343A06A00F4005024
:1058B00003430B60636A120C03F0100302F004024E
:1058C0001A434A60CB6923F40063CB6100200123B3
:1058D000606584F8513010BD0023C0E90433B1E79E
:1058E0000120F8E72DE9F74304461F460D46904690
:1058F000FEF7F0F994F85130012B8146D8B240F010
:105900009F80002D74D0B8F1000F71D094F8503002
:10591000012B00F09580032384F851300023636548
:10592000C4E91033A4F83680A363A387E387A36890
:10593000266884F85000B3F5004F2563A4F834803E
:1059400007D1336823F040033360336843F4804366
:1059500033603368E2685B065EBF336843F0400340
:105960003360B2F5006F636845D113B1B8F1010F30
:1059700007D135F8023BF3602563E38E013B9BB210
:10598000E386E38E9BB2D3B94A4639462046FFF7F9
:10599000E3FE002851D1A36833B901932368DA6884
:1059A00001929B680193019B012384F85130606D43
:1059B0000023C01A84F8503018BF012018E0226874
:1059C0009368980705D5236B33F8021BD1602363D6
:1059D000D3E7FEF77FF9A0EB0900B842D1D3791CD9
:1059E000CFD0012384F85130002384F850300320B5
:1059F00003B0BDE8F08313B1B8F1010F08D12B78E3
:105A00003373236B01332363E38E013B9BB2E38645
:105A1000E38E9BB2002BB7D023689A68920703D518
:105A2000226B12781A73ECE7FEF754F9A0EB090029
:105A3000B842EDD37B1CEBD0D3E720236365AAE704
:105A40000220D5E72DE9F74304460D4691461E4650
:105A5000DDF82880FEF73EF994F851306268012B9A
:105A60000746D9B20AD0B2F5827F40F0E580A3683C
:105A7000002B40F0E180042940F0DE80002D4BD067
:105A8000B9F1000F48D0002E46D094F85030012BC9
:105A900000F0D280012384F8503094F85130C4F8DB
:105AA0003890042B1CBF052384F851300023636514
:105AB000C4E910332368E687E6861968A687490695
:105AC00058BF1968256358BF41F04001A68658BFEA
:105AD0001960E168B1F5006F55D10AB1012E07D107
